{
  "contractName": "MiddlePayment",
  "abi": [
    {
      "anonymous": false,
      "inputs": [
        {
          "indexed": false,
          "internalType": "int256",
          "name": "id",
          "type": "int256"
        },
        {
          "indexed": false,
          "internalType": "uint256",
          "name": "tokens",
          "type": "uint256"
        },
        {
          "indexed": false,
          "internalType": "uint256",
          "name": "correctAnswer",
          "type": "uint256"
        }
      ],
      "name": "payToCompanies",
      "type": "event"
    },
    {
      "anonymous": false,
      "inputs": [
        {
          "indexed": false,
          "internalType": "int256",
          "name": "id",
          "type": "int256"
        },
        {
          "indexed": false,
          "internalType": "uint256",
          "name": "mintHost",
          "type": "uint256"
        },
        {
          "indexed": false,
          "internalType": "uint256",
          "name": "payHost",
          "type": "uint256"
        },
        {
          "indexed": false,
          "internalType": "uint256",
          "name": "mintAdv",
          "type": "uint256"
        },
        {
          "indexed": false,
          "internalType": "uint256",
          "name": "payAdv",
          "type": "uint256"
        }
      ],
      "name": "payToExperts",
      "type": "event"
    },
    {
      "anonymous": false,
      "inputs": [
        {
          "indexed": false,
          "internalType": "int256",
          "name": "id",
          "type": "int256"
        },
        {
          "indexed": false,
          "internalType": "uint256",
          "name": "premDF",
          "type": "uint256"
        },
        {
          "indexed": false,
          "internalType": "uint256",
          "name": "mintDF",
          "type": "uint256"
        },
        {
          "indexed": false,
          "internalType": "uint256",
          "name": "mintCMF",
          "type": "uint256"
        },
        {
          "indexed": false,
          "internalType": "uint256",
          "name": "mintMF",
          "type": "uint256"
        }
      ],
      "name": "payToHost",
      "type": "event"
    },
    {
      "anonymous": false,
      "inputs": [
        {
          "indexed": false,
          "internalType": "int256",
          "name": "id",
          "type": "int256"
        },
        {
          "indexed": false,
          "internalType": "uint256",
          "name": "expertPercMint",
          "type": "uint256"
        },
        {
          "indexed": false,
          "internalType": "uint256",
          "name": "percent",
          "type": "uint256"
        },
        {
          "indexed": false,
          "internalType": "uint256",
          "name": "expertPremiumPerc",
          "type": "uint256"
        }
      ],
      "name": "payToPlayers",
      "type": "event"
    },
    {
      "anonymous": false,
      "inputs": [
        {
          "indexed": false,
          "internalType": "int256",
          "name": "id",
          "type": "int256"
        },
        {
          "indexed": false,
          "internalType": "string",
          "name": "purpose",
          "type": "string"
        }
      ],
      "name": "revertedEvent",
      "type": "event"
    },
    {
      "inputs": [
        {
          "internalType": "int256",
          "name": "",
          "type": "int256"
        }
      ],
      "name": "MPData",
      "outputs": [
        {
          "internalType": "int256",
          "name": "id",
          "type": "int256"
        },
        {
          "internalType": "uint256",
          "name": "correctAnswer",
          "type": "uint256"
        },
        {
          "internalType": "uint256",
          "name": "loserPool",
          "type": "uint256"
        },
        {
          "internalType": "uint256",
          "name": "tokenMinted",
          "type": "uint256"
        },
        {
          "internalType": "bool",
          "name": "reverted",
          "type": "bool"
        },
        {
          "internalType": "bool",
          "name": "eventFinish",
          "type": "bool"
        }
      ],
      "stateMutability": "view",
      "type": "function",
      "constant": true
    },
    {
      "inputs": [],
      "name": "__MPConfig",
      "outputs": [],
      "stateMutability": "nonpayable",
      "type": "function"
    },
    {
      "inputs": [],
      "name": "__MPStructInit",
      "outputs": [],
      "stateMutability": "nonpayable",
      "type": "function"
    },
    {
      "inputs": [],
      "name": "advisorPepc",
      "outputs": [
        {
          "internalType": "uint256",
          "name": "",
          "type": "uint256"
        }
      ],
      "stateMutability": "view",
      "type": "function",
      "constant": true
    },
    {
      "inputs": [],
      "name": "advisorPercMint",
      "outputs": [
        {
          "internalType": "uint256",
          "name": "",
          "type": "uint256"
        }
      ],
      "stateMutability": "view",
      "type": "function",
      "constant": true
    },
    {
      "inputs": [
        {
          "internalType": "uint256",
          "name": "_GFindex",
          "type": "uint256"
        },
        {
          "internalType": "int256",
          "name": "_id",
          "type": "int256"
        },
        {
          "internalType": "contract PubStruct",
          "name": "eventsData",
          "type": "address"
        }
      ],
      "name": "calcMintedTokens",
      "outputs": [
        {
          "internalType": "uint256",
          "name": "",
          "type": "uint256"
        }
      ],
      "stateMutability": "view",
      "type": "function",
      "constant": true
    },
    {
      "inputs": [
        {
          "internalType": "int256",
          "name": "_id",
          "type": "int256"
        }
      ],
      "name": "checkEventFinish",
      "outputs": [
        {
          "internalType": "bool",
          "name": "",
          "type": "bool"
        }
      ],
      "stateMutability": "view",
      "type": "function",
      "constant": true
    },
    {
      "inputs": [
        {
          "internalType": "int256",
          "name": "_id",
          "type": "int256"
        }
      ],
      "name": "checkReverted",
      "outputs": [
        {
          "internalType": "bool",
          "name": "",
          "type": "bool"
        }
      ],
      "stateMutability": "view",
      "type": "function",
      "constant": true
    },
    {
      "inputs": [],
      "name": "comMarketFundPerc",
      "outputs": [
        {
          "internalType": "uint256",
          "name": "",
          "type": "uint256"
        }
      ],
      "stateMutability": "view",
      "type": "function",
      "constant": true
    },
    {
      "inputs": [],
      "name": "comMarketFundWallet",
      "outputs": [
        {
          "internalType": "address payable",
          "name": "",
          "type": "address"
        }
      ],
      "stateMutability": "view",
      "type": "function",
      "constant": true
    },
    {
      "inputs": [],
      "name": "developFundPerc",
      "outputs": [
        {
          "internalType": "uint256",
          "name": "",
          "type": "uint256"
        }
      ],
      "stateMutability": "view",
      "type": "function",
      "constant": true
    },
    {
      "inputs": [],
      "name": "developFundPercPremim",
      "outputs": [
        {
          "internalType": "uint256",
          "name": "",
          "type": "uint256"
        }
      ],
      "stateMutability": "view",
      "type": "function",
      "constant": true
    },
    {
      "inputs": [],
      "name": "expertExtraPerc",
      "outputs": [
        {
          "internalType": "uint256",
          "name": "",
          "type": "uint256"
        }
      ],
      "stateMutability": "view",
      "type": "function",
      "constant": true
    },
    {
      "inputs": [],
      "name": "expertPerc",
      "outputs": [
        {
          "internalType": "uint256",
          "name": "",
          "type": "uint256"
        }
      ],
      "stateMutability": "view",
      "type": "function",
      "constant": true
    },
    {
      "inputs": [],
      "name": "expertPercMint",
      "outputs": [
        {
          "internalType": "uint256",
          "name": "",
          "type": "uint256"
        }
      ],
      "stateMutability": "view",
      "type": "function",
      "constant": true
    },
    {
      "inputs": [],
      "name": "expertPremiumPerc",
      "outputs": [
        {
          "internalType": "uint256",
          "name": "",
          "type": "uint256"
        }
      ],
      "stateMutability": "view",
      "type": "function",
      "constant": true
    },
    {
      "inputs": [],
      "name": "extraHostPerc",
      "outputs": [
        {
          "internalType": "uint256",
          "name": "",
          "type": "uint256"
        }
      ],
      "stateMutability": "view",
      "type": "function",
      "constant": true
    },
    {
      "inputs": [],
      "name": "extraHostPercMint",
      "outputs": [
        {
          "internalType": "uint256",
          "name": "",
          "type": "uint256"
        }
      ],
      "stateMutability": "view",
      "type": "function",
      "constant": true
    },
    {
      "inputs": [
        {
          "internalType": "int256",
          "name": "_id",
          "type": "int256"
        }
      ],
      "name": "getCorrectAnswer",
      "outputs": [
        {
          "internalType": "uint256",
          "name": "",
          "type": "uint256"
        }
      ],
      "stateMutability": "view",
      "type": "function",
      "constant": true
    },
    {
      "inputs": [
        {
          "internalType": "int256",
          "name": "_id",
          "type": "int256"
        }
      ],
      "name": "getLoserPool",
      "outputs": [
        {
          "internalType": "uint256",
          "name": "",
          "type": "uint256"
        }
      ],
      "stateMutability": "view",
      "type": "function",
      "constant": true
    },
    {
      "inputs": [
        {
          "internalType": "uint256",
          "name": "_percent",
          "type": "uint256"
        },
        {
          "internalType": "uint256",
          "name": "_from",
          "type": "uint256"
        }
      ],
      "name": "getPercent",
      "outputs": [
        {
          "internalType": "uint256",
          "name": "",
          "type": "uint256"
        }
      ],
      "stateMutability": "pure",
      "type": "function",
      "constant": true
    },
    {
      "inputs": [
        {
          "internalType": "int256",
          "name": "_id",
          "type": "int256"
        }
      ],
      "name": "getTokenMinted",
      "outputs": [
        {
          "internalType": "uint256",
          "name": "",
          "type": "uint256"
        }
      ],
      "stateMutability": "view",
      "type": "function",
      "constant": true
    },
    {
      "inputs": [],
      "name": "hostPerc",
      "outputs": [
        {
          "internalType": "uint256",
          "name": "",
          "type": "uint256"
        }
      ],
      "stateMutability": "view",
      "type": "function",
      "constant": true
    },
    {
      "inputs": [],
      "name": "hostPercMint",
      "outputs": [
        {
          "internalType": "uint256",
          "name": "",
          "type": "uint256"
        }
      ],
      "stateMutability": "view",
      "type": "function",
      "constant": true
    },
    {
      "inputs": [],
      "name": "moderatorsFundPerc",
      "outputs": [
        {
          "internalType": "uint256",
          "name": "",
          "type": "uint256"
        }
      ],
      "stateMutability": "view",
      "type": "function",
      "constant": true
    },
    {
      "inputs": [],
      "name": "moderatorsFundWallet",
      "outputs": [
        {
          "internalType": "address payable",
          "name": "",
          "type": "address"
        }
      ],
      "stateMutability": "view",
      "type": "function",
      "constant": true
    },
    {
      "inputs": [
        {
          "internalType": "address",
          "name": "_peaddr",
          "type": "address"
        },
        {
          "internalType": "address",
          "name": "_ppaddr",
          "type": "address"
        }
      ],
      "name": "setAddresses",
      "outputs": [],
      "stateMutability": "nonpayable",
      "type": "function"
    },
    {
      "inputs": [
        {
          "internalType": "uint256",
          "name": "_adPercMint",
          "type": "uint256"
        },
        {
          "internalType": "uint256",
          "name": "_adPerc",
          "type": "uint256"
        }
      ],
      "name": "setAdvisorPerc",
      "outputs": [],
      "stateMutability": "nonpayable",
      "type": "function"
    },
    {
      "inputs": [
        {
          "internalType": "uint256",
          "name": "_ePercMint",
          "type": "uint256"
        },
        {
          "internalType": "uint256",
          "name": "_ePerc",
          "type": "uint256"
        },
        {
          "internalType": "uint256",
          "name": "_eExtraPerc",
          "type": "uint256"
        },
        {
          "internalType": "uint256",
          "name": "_ePremPerc",
          "type": "uint256"
        }
      ],
      "name": "setExpertPerc",
      "outputs": [],
      "stateMutability": "nonpayable",
      "type": "function"
    },
    {
      "inputs": [
        {
          "internalType": "int256",
          "name": "_id",
          "type": "int256"
        }
      ],
      "name": "setFinishEvent",
      "outputs": [],
      "stateMutability": "nonpayable",
      "type": "function"
    },
    {
      "inputs": [
        {
          "internalType": "uint256",
          "name": "_dFPerc",
          "type": "uint256"
        },
        {
          "internalType": "uint256",
          "name": "_dFPPremim",
          "type": "uint256"
        },
        {
          "internalType": "uint256",
          "name": "_cMFPerc",
          "type": "uint256"
        },
        {
          "internalType": "uint256",
          "name": "_mFPerc",
          "type": "uint256"
        }
      ],
      "name": "setFundPerc",
      "outputs": [],
      "stateMutability": "nonpayable",
      "type": "function"
    },
    {
      "inputs": [
        {
          "internalType": "address payable",
          "name": "_CMFWallet",
          "type": "address"
        },
        {
          "internalType": "address payable",
          "name": "_MFWallet",
          "type": "address"
        }
      ],
      "name": "setFundWallet",
      "outputs": [],
      "stateMutability": "nonpayable",
      "type": "function"
    },
    {
      "inputs": [
        {
          "internalType": "uint256",
          "name": "_hostPercMint",
          "type": "uint256"
        },
        {
          "internalType": "uint256",
          "name": "_hostPerc",
          "type": "uint256"
        },
        {
          "internalType": "uint256",
          "name": "_eHPerc",
          "type": "uint256"
        },
        {
          "internalType": "uint256",
          "name": "_eHPMint",
          "type": "uint256"
        }
      ],
      "name": "setHostPerc",
      "outputs": [],
      "stateMutability": "nonpayable",
      "type": "function"
    },
    {
      "inputs": [
        {
          "internalType": "int256",
          "name": "_id",
          "type": "int256"
        }
      ],
      "name": "setReverted",
      "outputs": [],
      "stateMutability": "nonpayable",
      "type": "function"
    },
    {
      "inputs": [],
      "name": "__MiddlePaymentInit",
      "outputs": [],
      "stateMutability": "nonpayable",
      "type": "function"
    },
    {
      "inputs": [
        {
          "internalType": "contract PublicEvents",
          "name": "_addr",
          "type": "address"
        }
      ],
      "name": "setAddr",
      "outputs": [],
      "stateMutability": "nonpayable",
      "type": "function"
    },
    {
      "inputs": [
        {
          "internalType": "int256",
          "name": "_id",
          "type": "int256"
        }
      ],
      "name": "letsFindCorrectAnswer",
      "outputs": [],
      "stateMutability": "nonpayable",
      "type": "function"
    },
    {
      "inputs": [
        {
          "internalType": "int256",
          "name": "_id",
          "type": "int256"
        },
        {
          "internalType": "string",
          "name": "purpose",
          "type": "string"
        }
      ],
      "name": "revertedPayment",
      "outputs": [],
      "stateMutability": "nonpayable",
      "type": "function"
    },
    {
      "inputs": [
        {
          "internalType": "int256",
          "name": "_id",
          "type": "int256"
        }
      ],
      "name": "letsPayToCompanies",
      "outputs": [],
      "stateMutability": "nonpayable",
      "type": "function"
    },
    {
      "inputs": [
        {
          "internalType": "int256",
          "name": "_id",
          "type": "int256"
        }
      ],
      "name": "letsPaytoHost",
      "outputs": [],
      "stateMutability": "nonpayable",
      "type": "function"
    },
    {
      "inputs": [
        {
          "internalType": "int256",
          "name": "_id",
          "type": "int256"
        }
      ],
      "name": "letsPayToExperts",
      "outputs": [],
      "stateMutability": "nonpayable",
      "type": "function"
    }
  ],
  "bytecode": "0x608060405234801561001057600080fd5b5061527b806100206000396000f3fe608060405234801561001057600080fd5b50600436106102535760003560e01c80638a9dbda711610146578063cb95c204116100c3578063e1232df911610087578063e1232df914610a14578063e1755c6a14610a1e578063e1dcc40914610a3c578063e79f365d14610a5a578063f7ec585114610a88578063fab5102c14610aa657610253565b8063cb95c204146108b6578063d1d80fdf14610902578063d343c1dc14610946578063dba8fe871461098a578063de6eb439146109a857610253565b8063af9ace451161010a578063af9ace45146107c5578063bc26b101146107e3578063bdc9055414610825578063bf2c691c1461088e578063c12c8c461461089857610253565b80638a9dbda7146106ed5780638fc8bc421461070b57806390107afe146107295780639ec2345a1461078d578063aef5671b146107bb57610253565b8063362e41b6116101d4578063786508c511610198578063786508c5146105eb578063802cc34c14610609578063870d94501461063d578063896aa7a41461066b5780638a571fcc1461068957610253565b8063362e41b61461042c57806355e8415814610470578063622198661461048e578063684a3247146104da578063769c48981461052657610253565b806324beedd31161021b57806324beedd3146103425780632819bd02146103605780632c316d05146103985780632c7d577e146103b65780633467f697146103f857610253565b8063051e9ea7146102585780630583e6ee1461028657806305b442ee146102b45780631c408357146102f65780631f36c48314610314575b600080fd5b6102846004803603602081101561026e57600080fd5b8101908080359060200190929190505050610af2565b005b6102b26004803603602081101561029c57600080fd5b810190808035906020019092919050505061196e565b005b6102e0600480360360208110156102ca57600080fd5b8101908080359060200190929190505050611a63565b6040518082815260200191505060405180910390f35b6102fe611a83565b6040518082815260200191505060405180910390f35b6103406004803603602081101561032a57600080fd5b8101908080359060200190929190505050611a89565b005b61034a61240f565b6040518082815260200191505060405180910390f35b6103966004803603604081101561037657600080fd5b810190808035906020019092919080359060200190929190505050612415565b005b6103a06124ea565b6040518082815260200191505060405180910390f35b6103e2600480360360208110156103cc57600080fd5b81019080803590602001909291905050506124f0565b6040518082815260200191505060405180910390f35b610400612510565b604051808273ffffffffffffffffffffffffffffffffffffffff16815260200191505060405180910390f35b6104586004803603602081101561044257600080fd5b8101908080359060200190929190505050612536565b60405180821515815260200191505060405180910390f35b610478612563565b6040518082815260200191505060405180910390f35b6104c4600480360360408110156104a457600080fd5b810190808035906020019092919080359060200190929190505050612569565b6040518082815260200191505060405180910390f35b610524600480360360808110156104f057600080fd5b8101908080359060200190929190803590602001909291908035906020019092919080359060200190929190505050612580565b005b6105e96004803603604081101561053c57600080fd5b81019080803590602001909291908035906020019064010000000081111561056357600080fd5b82018360208201111561057557600080fd5b8035906020019184600183028401116401000000008311171561059757600080fd5b91908080601f016020809104026020016040519081016040528093929190818152602001838380828437600081840152601f19601f820116905080830192505050505050509192919290505050612665565b005b6105f361278e565b6040518082815260200191505060405180910390f35b610611612794565b604051808273ffffffffffffffffffffffffffffffffffffffff16815260200191505060405180910390f35b6106696004803603602081101561065357600080fd5b81019080803590602001909291905050506127ba565b005b6106736131fc565b6040518082815260200191505060405180910390f35b6106eb6004803603604081101561069f57600080fd5b81019080803573ffffffffffffffffffffffffffffffffffffffff169060200190929190803573ffffffffffffffffffffffffffffffffffffffff169060200190929190505050613202565b005b6106f561334b565b6040518082815260200191505060405180910390f35b610713613351565b6040518082815260200191505060405180910390f35b61078b6004803603604081101561073f57600080fd5b81019080803573ffffffffffffffffffffffffffffffffffffffff169060200190929190803573ffffffffffffffffffffffffffffffffffffffff169060200190929190505050613357565b005b6107b9600480360360208110156107a357600080fd5b81019080803590602001909291905050506134a0565b005b6107c3613595565b005b6107cd6136d4565b6040518082815260200191505060405180910390f35b61080f600480360360208110156107f957600080fd5b81019080803590602001909291905050506136da565b6040518082815260200191505060405180910390f35b6108516004803603602081101561083b57600080fd5b81019080803590602001909291905050506136fa565b6040518087815260200186815260200185815260200184815260200183151581526020018215158152602001965050505050505060405180910390f35b610896613750565b005b6108a061388f565b6040518082815260200191505060405180910390f35b610900600480360360808110156108cc57600080fd5b8101908080359060200190929190803590602001909291908035906020019092919080359060200190929190505050613895565b005b6109446004803603602081101561091857600080fd5b81019080803573ffffffffffffffffffffffffffffffffffffffff16906020019092919050505061397a565b005b6109726004803603602081101561095c57600080fd5b8101908080359060200190929190505050613b03565b60405180821515815260200191505060405180910390f35b610992613b30565b6040518082815260200191505060405180910390f35b6109fe600480360360608110156109be57600080fd5b810190808035906020019092919080359060200190929190803573ffffffffffffffffffffffffffffffffffffffff169060200190929190505050613b36565b6040518082815260200191505060405180910390f35b610a1c613f20565b005b610a2661402e565b6040518082815260200191505060405180910390f35b610a44614034565b6040518082815260200191505060405180910390f35b610a8660048036036020811015610a7057600080fd5b810190808035906020019092919050505061403a565b005b610a90614568565b6040518082815260200191505060405180910390f35b610af060048036036080811015610abc57600080fd5b810190808035906020019092919080359060200190929190803590602001909291908035906020019092919050505061456e565b005b600060029054906101000a900473ffffffffffffffffffffffffffffffffffffffff1673ffffffffffffffffffffffffffffffffffffffff163373ffffffffffffffffffffffffffffffffffffffff1614610bb5576040517f08c379a000000000000000000000000000000000000000000000000000000000815260040180806020018281038252600a8152602001807f6f776e6572206f6e6c790000000000000000000000000000000000000000000081525060200191505060405180910390fd5b600080600080600073ffffffffffffffffffffffffffffffffffffffff16601560009054906101000a900473ffffffffffffffffffffffffffffffffffffffff1673ffffffffffffffffffffffffffffffffffffffff166342f1bb8d876040518263ffffffff1660e01b81526004018082815260200191505060206040518083038186803b158015610c4657600080fd5b505afa158015610c5a573d6000803e3d6000fd5b505050506040513d6020811015610c7057600080fd5b810190808051906020019092919050505073ffffffffffffffffffffffffffffffffffffffff16146114ed57610cc26014600087815260200190815260200160002060030154600a5460075401612569565b9350601660009054906101000a900473ffffffffffffffffffffffffffffffffffffffff1673ffffffffffffffffffffffffffffffffffffffff166340c10f19601560009054906101000a900473ffffffffffffffffffffffffffffffffffffffff1673ffffffffffffffffffffffffffffffffffffffff1663f438835c886040518263ffffffff1660e01b81526004018082815260200191505060206040518083038186803b158015610d7557600080fd5b505afa158015610d89573d6000803e3d6000fd5b505050506040513d6020811015610d9f57600080fd5b8101908080519060200190929190505050866040518363ffffffff1660e01b8152600401808373ffffffffffffffffffffffffffffffffffffffff16815260200182815260200192505050602060405180830381600087803b158015610e0457600080fd5b505af1158015610e18573d6000803e3d6000fd5b505050506040513d6020811015610e2e57600080fd5b8101908080519060200190929190505050610eb1576040517f08c379a00000000000000000000000000000000000000000000000000000000081526004018080602001828103825260168152602001807f6d696e7420686f737420776974682061647669736f720000000000000000000081525060200191505060405180910390fd5b610ed36014600087815260200190815260200160002060030154600f54612569565b9150601660009054906101000a900473ffffffffffffffffffffffffffffffffffffffff1673ffffffffffffffffffffffffffffffffffffffff166340c10f19601560009054906101000a900473ffffffffffffffffffffffffffffffffffffffff1673ffffffffffffffffffffffffffffffffffffffff166342f1bb8d886040518263ffffffff1660e01b81526004018082815260200191505060206040518083038186803b158015610f8657600080fd5b505afa158015610f9a573d6000803e3d6000fd5b505050506040513d6020811015610fb057600080fd5b8101908080519060200190929190505050846040518363ffffffff1660e01b8152600401808373ffffffffffffffffffffffffffffffffffffffff16815260200182815260200192505050602060405180830381600087803b15801561101557600080fd5b505af1158015611029573d6000803e3d6000fd5b505050506040513d602081101561103f57600080fd5b81019080805190602001909291905050506110c2576040517f08c379a000000000000000000000000000000000000000000000000000000000815260040180806020018281038252600f8152602001807f6d696e7420746f2061647669736f72000000000000000000000000000000000081525060200191505060405180910390fd5b6110e8601460008781526020019081526020016000206002015460095460085401612569565b9250601660009054906101000a900473ffffffffffffffffffffffffffffffffffffffff1673ffffffffffffffffffffffffffffffffffffffff1663c4076876601560009054906101000a900473ffffffffffffffffffffffffffffffffffffffff1673ffffffffffffffffffffffffffffffffffffffff1663f438835c886040518263ffffffff1660e01b81526004018082815260200191505060206040518083038186803b15801561119b57600080fd5b505afa1580156111af573d6000803e3d6000fd5b505050506040513d60208110156111c557600080fd5b8101908080519060200190929190505050856040518363ffffffff1660e01b8152600401808373ffffffffffffffffffffffffffffffffffffffff16815260200182815260200192505050602060405180830381600087803b15801561122a57600080fd5b505af115801561123e573d6000803e3d6000fd5b505050506040513d602081101561125457600080fd5b81019080805190602001909291905050506112d7576040517f08c379a00000000000000000000000000000000000000000000000000000000081526004018080602001828103825260188152602001807f70617920746f20686f737420776974682061647669736f72000000000000000081525060200191505060405180910390fd5b6112f96014600087815260200190815260200160002060020154601054612569565b9050601660009054906101000a900473ffffffffffffffffffffffffffffffffffffffff1673ffffffffffffffffffffffffffffffffffffffff1663c4076876601560009054906101000a900473ffffffffffffffffffffffffffffffffffffffff1673ffffffffffffffffffffffffffffffffffffffff166342f1bb8d886040518263ffffffff1660e01b81526004018082815260200191505060206040518083038186803b1580156113ac57600080fd5b505afa1580156113c0573d6000803e3d6000fd5b505050506040513d60208110156113d657600080fd5b8101908080519060200190929190505050836040518363ffffffff1660e01b8152600401808373ffffffffffffffffffffffffffffffffffffffff16815260200182815260200192505050602060405180830381600087803b15801561143b57600080fd5b505af115801561144f573d6000803e3d6000fd5b505050506040513d602081101561146557600080fd5b81019080805190602001909291905050506114e8576040517f08c379a000000000000000000000000000000000000000000000000000000000815260040180806020018281038252600e8152602001807f70617920746f2061647669736f7200000000000000000000000000000000000081525060200191505060405180910390fd5b611910565b61150f6014600087815260200190815260200160002060030154600754612569565b9350601660009054906101000a900473ffffffffffffffffffffffffffffffffffffffff1673ffffffffffffffffffffffffffffffffffffffff166340c10f19601560009054906101000a900473ffffffffffffffffffffffffffffffffffffffff1673ffffffffffffffffffffffffffffffffffffffff1663f438835c886040518263ffffffff1660e01b81526004018082815260200191505060206040518083038186803b1580156115c257600080fd5b505afa1580156115d6573d6000803e3d6000fd5b505050506040513d60208110156115ec57600080fd5b8101908080519060200190929190505050866040518363ffffffff1660e01b8152600401808373ffffffffffffffffffffffffffffffffffffffff16815260200182815260200192505050602060405180830381600087803b15801561165157600080fd5b505af1158015611665573d6000803e3d6000fd5b505050506040513d602081101561167b57600080fd5b81019080805190602001909291905050506116fe576040517f08c379a000000000000000000000000000000000000000000000000000000000815260040180806020018281038252600c8152602001807f6d696e7420746f20686f7374000000000000000000000000000000000000000081525060200191505060405180910390fd5b6117206014600087815260200190815260200160002060020154600854612569565b9250601660009054906101000a900473ffffffffffffffffffffffffffffffffffffffff1673ffffffffffffffffffffffffffffffffffffffff1663c4076876601560009054906101000a900473ffffffffffffffffffffffffffffffffffffffff1673ffffffffffffffffffffffffffffffffffffffff1663f438835c886040518263ffffffff1660e01b81526004018082815260200191505060206040518083038186803b1580156117d357600080fd5b505afa1580156117e7573d6000803e3d6000fd5b505050506040513d60208110156117fd57600080fd5b8101908080519060200190929190505050856040518363ffffffff1660e01b8152600401808373ffffffffffffffffffffffffffffffffffffffff16815260200182815260200192505050602060405180830381600087803b15801561186257600080fd5b505af1158015611876573d6000803e3d6000fd5b505050506040513d602081101561188c57600080fd5b810190808051906020019092919050505061190f576040517f08c379a000000000000000000000000000000000000000000000000000000000815260040180806020018281038252600b8152602001807f70617920746f20686f737400000000000000000000000000000000000000000081525060200191505060405180910390fd5b5b7f8b25ea6050ae86d4a92f0105ec319f239c299ccb27723dcd9e04d02220d9f7fa8585858585604051808681526020018581526020018481526020018381526020018281526020019550505050505060405180910390a15050505050565b601360009054906101000a900473ffffffffffffffffffffffffffffffffffffffff1673ffffffffffffffffffffffffffffffffffffffff163373ffffffffffffffffffffffffffffffffffffffff1614611a31576040517f08c379a000000000000000000000000000000000000000000000000000000000815260040180806020018281038252600f8152602001807f7070436f6e7472616374206f6e6c79000000000000000000000000000000000081525060200191505060405180910390fd5b60016014600083815260200190815260200160002060040160016101000a81548160ff02191690831515021790555050565b600060146000838152602001908152602001600020600201549050919050565b60035481565b600060029054906101000a900473ffffffffffffffffffffffffffffffffffffffff1673ffffffffffffffffffffffffffffffffffffffff163373ffffffffffffffffffffffffffffffffffffffff1614611b4c576040517f08c379a000000000000000000000000000000000000000000000000000000000815260040180806020018281038252600a8152602001807f6f776e6572206f6e6c790000000000000000000000000000000000000000000081525060200191505060405180910390fd5b600080611b716014600085815260200190815260200160002060030154600354612569565b9050601660009054906101000a900473ffffffffffffffffffffffffffffffffffffffff1673ffffffffffffffffffffffffffffffffffffffff166340c10f19600060029054906101000a900473ffffffffffffffffffffffffffffffffffffffff16836040518363ffffffff1660e01b8152600401808373ffffffffffffffffffffffffffffffffffffffff16815260200182815260200192505050602060405180830381600087803b158015611c2857600080fd5b505af1158015611c3c573d6000803e3d6000fd5b505050506040513d6020811015611c5257600080fd5b8101908080519060200190929190505050611cd5576040517f08c379a00000000000000000000000000000000000000000000000000000000081526004018080602001828103825260158152602001807f6d696e7420646576656c6f706d656e742066756e64000000000000000000000081525060200191505060405180910390fd5b6000601560009054906101000a900473ffffffffffffffffffffffffffffffffffffffff1673ffffffffffffffffffffffffffffffffffffffff166380559173856040518263ffffffff1660e01b81526004018082815260200191505060206040518083038186803b158015611d4a57600080fd5b505afa158015611d5e573d6000803e3d6000fd5b505050506040513d6020811015611d7457600080fd5b81019080805190602001909291905050501115611fa957611e44601560009054906101000a900473ffffffffffffffffffffffffffffffffffffffff1673ffffffffffffffffffffffffffffffffffffffff166380559173856040518263ffffffff1660e01b81526004018082815260200191505060206040518083038186803b158015611e0157600080fd5b505afa158015611e15573d6000803e3d6000fd5b505050506040513d6020811015611e2b57600080fd5b8101908080519060200190929190505050600454612569565b9150601660009054906101000a900473ffffffffffffffffffffffffffffffffffffffff1673ffffffffffffffffffffffffffffffffffffffff1663458a8079600060029054906101000a900473ffffffffffffffffffffffffffffffffffffffff16846040518363ffffffff1660e01b8152600401808373ffffffffffffffffffffffffffffffffffffffff16815260200182815260200192505050602060405180830381600087803b158015611efb57600080fd5b505af1158015611f0f573d6000803e3d6000fd5b505050506040513d6020811015611f2557600080fd5b8101908080519060200190929190505050611fa8576040517f08c379a000000000000000000000000000000000000000000000000000000000815260040180806020018281038252601c8152602001807f7072656d69756d2070617920646576656c6f706d656e742066756e640000000081525060200191505060405180910390fd5b5b60008073ffffffffffffffffffffffffffffffffffffffff16601560009054906101000a900473ffffffffffffffffffffffffffffffffffffffff1673ffffffffffffffffffffffffffffffffffffffff166342f1bb8d866040518263ffffffff1660e01b81526004018082815260200191505060206040518083038186803b15801561203557600080fd5b505afa158015612049573d6000803e3d6000fd5b505050506040513d602081101561205f57600080fd5b810190808051906020019092919050505073ffffffffffffffffffffffffffffffffffffffff16141561209c57600f54600a5460055401016120a0565b6005545b905060006120c4601460008781526020019081526020016000206003015483612569565b9050601660009054906101000a900473ffffffffffffffffffffffffffffffffffffffff1673ffffffffffffffffffffffffffffffffffffffff166340c10f19600160009054906101000a900473ffffffffffffffffffffffffffffffffffffffff16836040518363ffffffff1660e01b8152600401808373ffffffffffffffffffffffffffffffffffffffff16815260200182815260200192505050602060405180830381600087803b15801561217b57600080fd5b505af115801561218f573d6000803e3d6000fd5b505050506040513d60208110156121a557600080fd5b8101908080519060200190929190505050612228576040517f08c379a000000000000000000000000000000000000000000000000000000000815260040180806020018281038252601d8152602001807f6d696e7420636f6d6d756e697479206d61726b6574696e672066756e6400000081525060200191505060405180910390fd5b600061224c6014600088815260200190815260200160002060030154600654612569565b9050601660009054906101000a900473ffffffffffffffffffffffffffffffffffffffff1673ffffffffffffffffffffffffffffffffffffffff166340c10f19600260009054906101000a900473ffffffffffffffffffffffffffffffffffffffff16836040518363ffffffff1660e01b8152600401808373ffffffffffffffffffffffffffffffffffffffff16815260200182815260200192505050602060405180830381600087803b15801561230357600080fd5b505af1158015612317573d6000803e3d6000fd5b505050506040513d602081101561232d57600080fd5b81019080805190602001909291905050506123b0576040517f08c379a00000000000000000000000000000000000000000000000000000000081526004018080602001828103825260148152602001807f6d696e74206d6f64657261746f72732066756e6400000000000000000000000081525060200191505060405180910390fd5b7f27650ccb91ed33fea2eb9b1f7cecf9d3db7cf69fe53e31fc832dcecd9f3178f38686868585604051808681526020018581526020018481526020018381526020018281526020019550505050505060405180910390a1505050505050565b60065481565b600060029054906101000a900473ffffffffffffffffffffffffffffffffffffffff1673ffffffffffffffffffffffffffffffffffffffff163373ffffffffffffffffffffffffffffffffffffffff16146124d8576040517f08c379a000000000000000000000000000000000000000000000000000000000815260040180806020018281038252600a8152602001807f6f776e6572206f6e6c790000000000000000000000000000000000000000000081525060200191505060405180910390fd5b81600f81905550806010819055505050565b600d5481565b600060146000838152602001908152602001600020600301549050919050565b600260009054906101000a900473ffffffffffffffffffffffffffffffffffffffff1681565b60006014600083815260200190815260200160002060040160009054906101000a900460ff169050919050565b600a5481565b600060648284028161257757fe5b04905092915050565b600060029054906101000a900473ffffffffffffffffffffffffffffffffffffffff1673ffffffffffffffffffffffffffffffffffffffff163373ffffffffffffffffffffffffffffffffffffffff1614612643576040517f08c379a000000000000000000000000000000000000000000000000000000000815260040180806020018281038252600a8152602001807f6f776e6572206f6e6c790000000000000000000000000000000000000000000081525060200191505060405180910390fd5b83600781905550826008819055508160098190555080600a8190555050505050565b600060029054906101000a900473ffffffffffffffffffffffffffffffffffffffff1673ffffffffffffffffffffffffffffffffffffffff163373ffffffffffffffffffffffffffffffffffffffff16148061270e5750601760009054906101000a900473ffffffffffffffffffffffffffffffffffffffff1673ffffffffffffffffffffffffffffffffffffffff163373ffffffffffffffffffffffffffffffffffffffff16145b612780576040517f08c379a000000000000000000000000000000000000000000000000000000000815260040180806020018281038252601b8152602001807f6f776e6572206f6e6c79206f72207075622061646472206f6e6c79000000000081525060200191505060405180910390fd5b61278a8282614653565b5050565b60105481565b600160009054906101000a900473ffffffffffffffffffffffffffffffffffffffff1681565b600060029054906101000a900473ffffffffffffffffffffffffffffffffffffffff1673ffffffffffffffffffffffffffffffffffffffff163373ffffffffffffffffffffffffffffffffffffffff161461287d576040517f08c379a000000000000000000000000000000000000000000000000000000000815260040180806020018281038252600a8152602001807f6f776e6572206f6e6c790000000000000000000000000000000000000000000081525060200191505060405180910390fd5b60008073ffffffffffffffffffffffffffffffffffffffff16601560009054906101000a900473ffffffffffffffffffffffffffffffffffffffff1673ffffffffffffffffffffffffffffffffffffffff166342f1bb8d846040518263ffffffff1660e01b81526004018082815260200191505060206040518083038186803b15801561290957600080fd5b505afa15801561291d573d6000803e3d6000fd5b505050506040513d602081101561293357600080fd5b810190808051906020019092919050505073ffffffffffffffffffffffffffffffffffffffff16141561296c57600d54600c5401612970565b600c545b905060006014600084815260200190815260200160002060010154905060006129998483614b78565b905060005b601560009054906101000a900473ffffffffffffffffffffffffffffffffffffffff1673ffffffffffffffffffffffffffffffffffffffff166323c8778e86856040518363ffffffff1660e01b8152600401808381526020018281526020019250505060206040518083038186803b158015612a1957600080fd5b505afa158015612a2d573d6000803e3d6000fd5b505050506040513d6020811015612a4357600080fd5b81019080805190602001909291905050508110156131a2576000601560009054906101000a900473ffffffffffffffffffffffffffffffffffffffff1673ffffffffffffffffffffffffffffffffffffffff16630569ae998786856040518463ffffffff1660e01b815260040180848152602001838152602001828152602001935050505060206040518083038186803b158015612ae057600080fd5b505afa158015612af4573d6000803e3d6000fd5b505050506040513d6020811015612b0a57600080fd5b8101908080519060200190929190505050905060008112613194576000601560009054906101000a900473ffffffffffffffffffffffffffffffffffffffff1673ffffffffffffffffffffffffffffffffffffffff1663f46cf8388887866040518463ffffffff1660e01b815260040180848152602001838152602001828152602001935050505060206040518083038186803b158015612baa57600080fd5b505afa158015612bbe573d6000803e3d6000fd5b505050506040513d6020811015612bd457600080fd5b8101908080519060200190929190505050905060008460018401612c10601460008c815260200190815260200160002060030154600b54612569565b0281612c1857fe5b049050601660009054906101000a900473ffffffffffffffffffffffffffffffffffffffff1673ffffffffffffffffffffffffffffffffffffffff166340c10f1983836040518363ffffffff1660e01b8152600401808373ffffffffffffffffffffffffffffffffffffffff16815260200182815260200192505050602060405180830381600087803b158015612cae57600080fd5b505af1158015612cc2573d6000803e3d6000fd5b505050506040513d6020811015612cd857600080fd5b8101908080519060200190929190505050612d5b576040517f08c379a00000000000000000000000000000000000000000000000000000000081526004018080602001828103825260088152602001807f6d696e742065787000000000000000000000000000000000000000000000000081525060200191505060405180910390fd5b60008560018501612d82601460008d8152602001908152602001600020600201548b612569565b0281612d8a57fe5b049050601660009054906101000a900473ffffffffffffffffffffffffffffffffffffffff1673ffffffffffffffffffffffffffffffffffffffff1663c407687684836040518363ffffffff1660e01b8152600401808373ffffffffffffffffffffffffffffffffffffffff16815260200182815260200192505050602060405180830381600087803b158015612e2057600080fd5b505af1158015612e34573d6000803e3d6000fd5b505050506040513d6020811015612e4a57600080fd5b8101908080519060200190929190505050612ecd576040517f08c379a00000000000000000000000000000000000000000000000000000000081526004018080602001828103825260078152602001807f706179206578700000000000000000000000000000000000000000000000000081525060200191505060405180910390fd5b6000601560009054906101000a900473ffffffffffffffffffffffffffffffffffffffff1673ffffffffffffffffffffffffffffffffffffffff1663805591738b6040518263ffffffff1660e01b81526004018082815260200191505060206040518083038186803b158015612f4257600080fd5b505afa158015612f56573d6000803e3d6000fd5b505050506040513d6020811015612f6c57600080fd5b810190808051906020019092919050505011156131905760008660018601613043601560009054906101000a900473ffffffffffffffffffffffffffffffffffffffff1673ffffffffffffffffffffffffffffffffffffffff1663805591738e6040518263ffffffff1660e01b81526004018082815260200191505060206040518083038186803b15801561300057600080fd5b505afa158015613014573d6000803e3d6000fd5b505050506040513d602081101561302a57600080fd5b8101908080519060200190929190505050600e54612569565b028161304b57fe5b049050601660009054906101000a900473ffffffffffffffffffffffffffffffffffffffff1673ffffffffffffffffffffffffffffffffffffffff1663458a807985836040518363ffffffff1660e01b8152600401808373ffffffffffffffffffffffffffffffffffffffff16815260200182815260200192505050602060405180830381600087803b1580156130e157600080fd5b505af11580156130f5573d6000803e3d6000fd5b505050506040513d602081101561310b57600080fd5b810190808051906020019092919050505061318e576040517f08c379a000000000000000000000000000000000000000000000000000000000815260040180806020018281038252600c8152602001807f7072656d2070617920657870000000000000000000000000000000000000000081525060200191505060405180910390fd5b505b5050505b50808060010191505061299e565b507f2bd559d8c6b28edb22c6601c647a868a978f9bf770180306abba94aa10f46be384600b5485600e546040518085815260200184815260200183815260200182815260200194505050505060405180910390a150505050565b600c5481565b600060029054906101000a900473ffffffffffffffffffffffffffffffffffffffff1673ffffffffffffffffffffffffffffffffffffffff163373ffffffffffffffffffffffffffffffffffffffff16146132c5576040517f08c379a000000000000000000000000000000000000000000000000000000000815260040180806020018281038252600a8152602001807f6f776e6572206f6e6c790000000000000000000000000000000000000000000081525060200191505060405180910390fd5b81600160006101000a81548173ffffffffffffffffffffffffffffffffffffffff021916908373ffffffffffffffffffffffffffffffffffffffff16021790555080600260006101000a81548173ffffffffffffffffffffffffffffffffffffffff021916908373ffffffffffffffffffffffffffffffffffffffff1602179055505050565b60075481565b60085481565b601160009054906101000a900473ffffffffffffffffffffffffffffffffffffffff1673ffffffffffffffffffffffffffffffffffffffff163373ffffffffffffffffffffffffffffffffffffffff161461341a576040517f08c379a000000000000000000000000000000000000000000000000000000000815260040180806020018281038252600a8152602001807f6f776e6572206f6e6c790000000000000000000000000000000000000000000081525060200191505060405180910390fd5b81601260006101000a81548173ffffffffffffffffffffffffffffffffffffffff021916908373ffffffffffffffffffffffffffffffffffffffff16021790555080601360006101000a81548173ffffffffffffffffffffffffffffffffffffffff021916908373ffffffffffffffffffffffffffffffffffffffff1602179055505050565b601260009054906101000a900473ffffffffffffffffffffffffffffffffffffffff1673ffffffffffffffffffffffffffffffffffffffff163373ffffffffffffffffffffffffffffffffffffffff1614613563576040517f08c379a000000000000000000000000000000000000000000000000000000000815260040180806020018281038252600f8152602001807f7065436f6e7472616374206f6e6c79000000000000000000000000000000000081525060200191505060405180910390fd5b60016014600083815260200190815260200160002060040160006101000a81548160ff02191690831515021790555050565b600060019054906101000a900460ff16806135b457506135b3614de2565b5b806135ca575060008054906101000a900460ff16155b61361f576040517f08c379a000000000000000000000000000000000000000000000000000000000815260040180806020018281038252602e815260200180615218602e913960400191505060405180910390fd5b60008060019054906101000a900460ff16159050801561366f576001600060016101000a81548160ff02191690831515021790555060016000806101000a81548160ff0219169083151502179055505b33600060026101000a81548173ffffffffffffffffffffffffffffffffffffffff021916908373ffffffffffffffffffffffffffffffffffffffff16021790555080156136d15760008060016101000a81548160ff0219169083151502179055505b50565b600b5481565b600060146000838152602001908152602001600020600101549050919050565b60146020528060005260406000206000915090508060000154908060010154908060020154908060030154908060040160009054906101000a900460ff16908060040160019054906101000a900460ff16905086565b600060019054906101000a900460ff168061376f575061376e614de2565b5b80613785575060008054906101000a900460ff16155b6137da576040517f08c379a000000000000000000000000000000000000000000000000000000000815260040180806020018281038252602e815260200180615218602e913960400191505060405180910390fd5b60008060019054906101000a900460ff16159050801561382a576001600060016101000a81548160ff02191690831515021790555060016000806101000a81548160ff0219169083151502179055505b33601160006101000a81548173ffffffffffffffffffffffffffffffffffffffff021916908373ffffffffffffffffffffffffffffffffffffffff160217905550801561388c5760008060016101000a81548160ff0219169083151502179055505b50565b60095481565b600060029054906101000a900473ffffffffffffffffffffffffffffffffffffffff1673ffffffffffffffffffffffffffffffffffffffff163373ffffffffffffffffffffffffffffffffffffffff1614613958576040517f08c379a000000000000000000000000000000000000000000000000000000000815260040180806020018281038252600a8152602001807f6f776e6572206f6e6c790000000000000000000000000000000000000000000081525060200191505060405180910390fd5b8360038190555082600481905550816005819055508060068190555050505050565b600060029054906101000a900473ffffffffffffffffffffffffffffffffffffffff1673ffffffffffffffffffffffffffffffffffffffff163373ffffffffffffffffffffffffffffffffffffffff1614613a3d576040517f08c379a000000000000000000000000000000000000000000000000000000000815260040180806020018281038252600a8152602001807f6f776e6572206f6e6c790000000000000000000000000000000000000000000081525060200191505060405180910390fd5b80601660006101000a81548173ffffffffffffffffffffffffffffffffffffffff021916908373ffffffffffffffffffffffffffffffffffffffff16021790555080601760006101000a81548173ffffffffffffffffffffffffffffffffffffffff021916908373ffffffffffffffffffffffffffffffffffffffff16021790555080601560006101000a81548173ffffffffffffffffffffffffffffffffffffffff021916908373ffffffffffffffffffffffffffffffffffffffff16021790555050565b60006014600083815260200190815260200160002060040160019054906101000a900460ff169050919050565b600e5481565b600080600090506000805b8473ffffffffffffffffffffffffffffffffffffffff1663a96c2aea876040518263ffffffff1660e01b81526004018082815260200191505060206040518083038186803b158015613b9257600080fd5b505afa158015613ba6573d6000803e3d6000fd5b505050506040513d6020811015613bbc57600080fd5b8101908080519060200190929190505050811015613dba57828573ffffffffffffffffffffffffffffffffffffffff166371aee94588846040518363ffffffff1660e01b8152600401808381526020018281526020019250505060206040518083038186803b158015613c2e57600080fd5b505afa158015613c42573d6000803e3d6000fd5b505050506040513d6020811015613c5857600080fd5b81019080805190602001909291905050501115613d0d578291508473ffffffffffffffffffffffffffffffffffffffff166371aee94587836040518363ffffffff1660e01b8152600401808381526020018281526020019250505060206040518083038186803b158015613ccb57600080fd5b505afa158015613cdf573d6000803e3d6000fd5b505050506040513d6020811015613cf557600080fd5b81019080805190602001909291905050509250613dad565b818573ffffffffffffffffffffffffffffffffffffffff166371aee94588846040518363ffffffff1660e01b8152600401808381526020018281526020019250505060206040518083038186803b158015613d6757600080fd5b505afa158015613d7b573d6000803e3d6000fd5b505050506040513d6020811015613d9157600080fd5b81019080805190602001909291905050501115613dac578291505b5b8080600101915050613b41565b5060008473ffffffffffffffffffffffffffffffffffffffff1663f946c207876040518263ffffffff1660e01b81526004018082815260200191505060206040518083038186803b158015613e0e57600080fd5b505afa158015613e22573d6000803e3d6000fd5b505050506040513d6020811015613e3857600080fd5b810190808051906020019092919050505090506000613e578383614df3565b613e618584614df3565b6064030190506000828773ffffffffffffffffffffffffffffffffffffffff166330286c378a6040518263ffffffff1660e01b81526004018082815260200191505060206040518083038186803b158015613ebb57600080fd5b505afa158015613ecf573d6000803e3d6000fd5b505050506040513d6020811015613ee557600080fd5b810190808051906020019092919050505081613efd57fe5b0490506127108983858402020281613f1157fe5b04955050505050509392505050565b600060019054906101000a900460ff1680613f3f5750613f3e614de2565b5b80613f55575060008054906101000a900460ff16155b613faa576040517f08c379a000000000000000000000000000000000000000000000000000000000815260040180806020018281038252602e815260200180615218602e913960400191505060405180910390fd5b60008060019054906101000a900460ff161590508015613ffa576001600060016101000a81548160ff02191690831515021790555060016000806101000a81548160ff0219169083151502179055505b614002613750565b61400a613595565b801561402b5760008060016101000a81548160ff0219169083151502179055505b50565b60055481565b60045481565b600060029054906101000a900473ffffffffffffffffffffffffffffffffffffffff1673ffffffffffffffffffffffffffffffffffffffff163373ffffffffffffffffffffffffffffffffffffffff16146140fd576040517f08c379a000000000000000000000000000000000000000000000000000000000815260040180806020018281038252600a8152602001807f6f776e6572206f6e6c790000000000000000000000000000000000000000000081525060200191505060405180910390fd5b600080600080601560009054906101000a900473ffffffffffffffffffffffffffffffffffffffff1673ffffffffffffffffffffffffffffffffffffffff1663a96c2aea866040518263ffffffff1660e01b81526004018082815260200191505060206040518083038186803b15801561417657600080fd5b505afa15801561418a573d6000803e3d6000fd5b505050506040513d60208110156141a057600080fd5b8101908080519060200190929190505050905060005b818110156144bf5784601560009054906101000a900473ffffffffffffffffffffffffffffffffffffffff1673ffffffffffffffffffffffffffffffffffffffff166323c8778e88846040518363ffffffff1660e01b8152600401808381526020018281526020019250505060206040518083038186803b15801561423a57600080fd5b505afa15801561424e573d6000803e3d6000fd5b505050506040513d602081101561426457600080fd5b8101908080519060200190929190505050111561433b57601560009054906101000a900473ffffffffffffffffffffffffffffffffffffffff1673ffffffffffffffffffffffffffffffffffffffff166323c8778e87836040518363ffffffff1660e01b8152600401808381526020018281526020019250505060206040518083038186803b1580156142f657600080fd5b505afa15801561430a573d6000803e3d6000fd5b505050506040513d602081101561432057600080fd5b810190808051906020019092919050505094508092506144b2565b84601560009054906101000a900473ffffffffffffffffffffffffffffffffffffffff1673ffffffffffffffffffffffffffffffffffffffff166323c8778e88846040518363ffffffff1660e01b8152600401808381526020018281526020019250505060206040518083038186803b1580156143b757600080fd5b505afa1580156143cb573d6000803e3d6000fd5b505050506040513d60208110156143e157600080fd5b810190808051906020019092919050505014156144b157601560009054906101000a900473ffffffffffffffffffffffffffffffffffffffff1673ffffffffffffffffffffffffffffffffffffffff166323c8778e87836040518363ffffffff1660e01b8152600401808381526020018281526020019250505060206040518083038186803b15801561447357600080fd5b505afa158015614487573d6000803e3d6000fd5b505050506040513d602081101561449d57600080fd5b810190808051906020019092919050505093505b5b80806001019150506141b6565b508383141561453b5760016014600087815260200190815260200160002060040160006101000a81548160ff021916908315150217905550614536856040518060400160405280600f81526020017f6475706c69636174206578706572740000000000000000000000000000000000815250614653565b614561565b8160146000878152602001908152602001600020600101819055506145608286614e0a565b5b5050505050565b600f5481565b600060029054906101000a900473ffffffffffffffffffffffffffffffffffffffff1673ffffffffffffffffffffffffffffffffffffffff163373ffffffffffffffffffffffffffffffffffffffff1614614631576040517f08c379a000000000000000000000000000000000000000000000000000000000815260040180806020018281038252600a8152602001807f6f776e6572206f6e6c790000000000000000000000000000000000000000000081525060200191505060405180910390fd5b83600b8190555082600c8190555081600d8190555080600e8190555050505050565b60005b601560009054906101000a900473ffffffffffffffffffffffffffffffffffffffff1673ffffffffffffffffffffffffffffffffffffffff1663a96c2aea846040518263ffffffff1660e01b81526004018082815260200191505060206040518083038186803b1580156146c957600080fd5b505afa1580156146dd573d6000803e3d6000fd5b505050506040513d60208110156146f357600080fd5b8101908080519060200190929190505050811015614aa05760005b601560009054906101000a900473ffffffffffffffffffffffffffffffffffffffff1673ffffffffffffffffffffffffffffffffffffffff166371aee94585846040518363ffffffff1660e01b8152600401808381526020018281526020019250505060206040518083038186803b15801561478957600080fd5b505afa15801561479d573d6000803e3d6000fd5b505050506040513d60208110156147b357600080fd5b8101908080519060200190929190505050811015614a9257601660009054906101000a900473ffffffffffffffffffffffffffffffffffffffff1673ffffffffffffffffffffffffffffffffffffffff1663c4076876601560009054906101000a900473ffffffffffffffffffffffffffffffffffffffff1673ffffffffffffffffffffffffffffffffffffffff16637c997f678786866040518463ffffffff1660e01b815260040180848152602001838152602001828152602001935050505060206040518083038186803b15801561488c57600080fd5b505afa1580156148a0573d6000803e3d6000fd5b505050506040513d60208110156148b657600080fd5b8101908080519060200190929190505050601560009054906101000a900473ffffffffffffffffffffffffffffffffffffffff1673ffffffffffffffffffffffffffffffffffffffff1663859f0f6a8887876040518463ffffffff1660e01b815260040180848152602001838152602001828152602001935050505060206040518083038186803b15801561494a57600080fd5b505afa15801561495e573d6000803e3d6000fd5b505050506040513d602081101561497457600080fd5b81019080805190602001909291905050506040518363ffffffff1660e01b8152600401808373ffffffffffffffffffffffffffffffffffffffff16815260200182815260200192505050602060405180830381600087803b1580156149d857600080fd5b505af11580156149ec573d6000803e3d6000fd5b505050506040513d6020811015614a0257600080fd5b8101908080519060200190929190505050614a85576040517f08c379a000000000000000000000000000000000000000000000000000000000815260040180806020018281038252600a8152602001807f726576657274206265740000000000000000000000000000000000000000000081525060200191505060405180910390fd5b808060010191505061470e565b508080600101915050614656565b5060016014600084815260200190815260200160002060040160006101000a81548160ff0219169083151502179055507f847521552ad126e64c52b14640c804737bd67f2b6674309b332d1e5b17f857d182826040518083815260200180602001828103825283818151815260200191508051906020019080838360005b83811015614b39578082015181840152602081019050614b1e565b50505050905090810190601f168015614b665780820380516001836020036101000a031916815260200191505b50935050505060405180910390a15050565b6000806000905060005b601560009054906101000a900473ffffffffffffffffffffffffffffffffffffffff1673ffffffffffffffffffffffffffffffffffffffff166323c8778e86866040518363ffffffff1660e01b8152600401808381526020018281526020019250505060206040518083038186803b158015614bfd57600080fd5b505afa158015614c11573d6000803e3d6000fd5b505050506040513d6020811015614c2757600080fd5b8101908080519060200190929190505050811015614dd7576000601560009054906101000a900473ffffffffffffffffffffffffffffffffffffffff1673ffffffffffffffffffffffffffffffffffffffff16630569ae998787856040518463ffffffff1660e01b815260040180848152602001838152602001828152602001935050505060206040518083038186803b158015614cc457600080fd5b505afa158015614cd8573d6000803e3d6000fd5b505050506040513d6020811015614cee57600080fd5b810190808051906020019092919050505012614dca576001601560009054906101000a900473ffffffffffffffffffffffffffffffffffffffff1673ffffffffffffffffffffffffffffffffffffffff16630569ae998787856040518463ffffffff1660e01b815260040180848152602001838152602001828152602001935050505060206040518083038186803b158015614d8957600080fd5b505afa158015614d9d573d6000803e3d6000fd5b505050506040513d6020811015614db357600080fd5b810190808051906020019092919050505001820191505b8080600101915050614b82565b508091505092915050565b6000614ded30615204565b15905090565b6000816064840281614e0157fe5b04905092915050565b600080600090505b601560009054906101000a900473ffffffffffffffffffffffffffffffffffffffff1673ffffffffffffffffffffffffffffffffffffffff166371aee94584866040518363ffffffff1660e01b8152600401808381526020018281526020019250505060206040518083038186803b158015614e8d57600080fd5b505afa158015614ea1573d6000803e3d6000fd5b505050506040513d6020811015614eb757600080fd5b8101908080519060200190929190505050811015614f9e57601560009054906101000a900473ffffffffffffffffffffffffffffffffffffffff1673ffffffffffffffffffffffffffffffffffffffff1663859f0f6a8486846040518463ffffffff1660e01b815260040180848152602001838152602001828152602001935050505060206040518083038186803b158015614f5257600080fd5b505afa158015614f66573d6000803e3d6000fd5b505050506040513d6020811015614f7c57600080fd5b8101908080519060200190929190505050820191508080600101915050614e12565b50600081601560009054906101000a900473ffffffffffffffffffffffffffffffffffffffff1673ffffffffffffffffffffffffffffffffffffffff166330286c37856040518263ffffffff1660e01b81526004018082815260200191505060206040518083038186803b15801561501557600080fd5b505afa158015615029573d6000803e3d6000fd5b505050506040513d602081101561503f57600080fd5b81019080805190602001909291905050500390506000811180156150635750600082115b156151be578060146000858152602001908152602001600020600201819055506000615154601660009054906101000a900473ffffffffffffffffffffffffffffffffffffffff1673ffffffffffffffffffffffffffffffffffffffff16636e25fb856040518163ffffffff1660e01b815260040160206040518083038186803b1580156150f057600080fd5b505afa158015615104573d6000803e3d6000fd5b505050506040513d602081101561511a57600080fd5b810190808051906020019092919050505085601560009054906101000a900473ffffffffffffffffffffffffffffffffffffffff16613b36565b90508060146000868152602001908152602001600020600301819055507f379c6b224a7fe6850c58f9de93dac19c04862dd67059a1948f1f9d70a1fe0f9f84828760405180848152602001838152602001828152602001935050505060405180910390a1506151fe565b6151fd836040518060400160405280601581526020017f706c61792063686f7365206f6e6520616e737765720000000000000000000000815250612665565b5b50505050565b600080823b90506000811191505091905056fe496e697469616c697a61626c653a20636f6e747261637420697320616c726561647920696e697469616c697a6564a2646970667358221220b07cea9187a0ceca6fe9f7951ca778828927e8d0b899c33fafe980408cbbe19864736f6c63430007060033",
  "immutableReferences": {},
  "source": "// SPDX-License-Identifier: MIT\npragma solidity >=0.4.22 <0.9.0;\nimport {PubStruct} from \"../../struct/PubStruct.sol\";\nimport {PublicEvents} from \"./PublicEvents.sol\";\nimport {MPStruct} from \"../../struct/MPStruct.sol\";\nimport {Libs} from \"./Libs.sol\";\nimport {MPConfig} from \"../../config/MPConfig.sol\";\n\ncontract MiddlePayment is Libs, MPConfig, MPStruct {\n    PubStruct eventsData;\n    PublicEvents PublicAddr;\n    address pubAddr;\n\n    event payToCompanies(int id, uint tokens, uint correctAnswer);\n    event payToHost(int id, uint premDF, uint mintDF, uint mintCMF, uint mintMF);\n    event payToExperts(int id, uint mintHost, uint payHost, uint mintAdv, uint payAdv);\n    event payToPlayers(int id, uint expertPercMint, uint percent, uint expertPremiumPerc );\n    event revertedEvent(int id, string purpose);\n\n    function __MiddlePaymentInit() public initializer {\n        __MPStructInit();\n        __MPConfig();\n    }\n\n    function setAddr(PublicEvents _addr) public {\n        require(msg.sender == owner, \"owner only\");\n        PublicAddr = _addr;\n        pubAddr = address(_addr);\n        eventsData = PubStruct(_addr);\n    }\n\n    function letsFindCorrectAnswer(int _id) public {\n        require(msg.sender == owner, \"owner only\");\n        uint bigValue = 0;\n        uint candDub = 0;\n        uint correctAnswer;\n        uint questAmount = eventsData.getQuestAmount(_id);\n\n        // find correct answer\n        for (uint i = 0; i < questAmount; i++) {\n            if (eventsData.getExpertAmount(_id, i) > bigValue) {\n                bigValue = eventsData.getExpertAmount(_id, i);\n                correctAnswer = i;\n            } else if (eventsData.getExpertAmount(_id, i) == bigValue) {\n                candDub = eventsData.getExpertAmount(_id, i);\n            }\n        }\n\n        if (candDub == bigValue) {\n            MPData[_id].reverted = true;\n            revertPayment(_id, \"duplicat expert\");\n        } else {\n            MPData[_id].correctAnswer = correctAnswer;\n            findLosersPool(correctAnswer, _id);\n        }\n    }\n\n    function findLosersPool(uint correctAnswer, int _id) private {\n        uint B;\n        for (uint i = 0; i < eventsData.getPlayerAmount(_id, correctAnswer); i++) {\n            B = B + eventsData.getPlayerTokens(_id, correctAnswer, i);\n        }\n        \n        uint lP = eventsData.getPool(_id) - B;\n        if (lP > 0 && B > 0) {\n             MPData[_id].loserPool = lP;\n            // calculate minted tokens\n            uint tokens =\n                calcMintedTokens(\n                    PublicAddr.getGF(),\n                    _id,\n                    eventsData\n                );\n                \n            MPData[_id].tokenMinted = tokens;\n            emit payToCompanies(_id, tokens, correctAnswer);\n        } else {\n            revertedPayment(_id, \"play chose one answer\");\n        }\n    }\n\n    function revertedPayment(int _id, string memory purpose)\n        public\n    {\n        require(msg.sender == owner || msg.sender == pubAddr, \"owner only or pub addr only\");\n        revertPayment(_id, purpose);\n    }\n\n    function revertPayment(int _id, string memory purpose) private {\n        for (uint i = 0; i < eventsData.getQuestAmount(_id); i++) {\n            for (uint z = 0; z < eventsData.getPlayerAmount(_id, i); z++) {\n                require(\n                    PublicAddr.pay(eventsData.getPlayerWallet(_id, i, z), eventsData.getPlayerTokens(_id, i, z)),\n                    \"revert bet\"\n                );\n            }\n        }\n        MPData[_id].reverted = true;\n        emit revertedEvent(_id, purpose);\n    }\n\n    function letsPayToCompanies(int _id) public {\n        require(msg.sender == owner, \"owner only\");\n        // pay to Development Fund\n        uint premDF = 0;\n        uint mintDF = getPercent(MPData[_id].tokenMinted, developFundPerc);\n        require( PublicAddr.mint(owner, mintDF), \"mint development fund\" );\n        if (eventsData.getPremiumAmount(_id) > 0) {\n            premDF = getPercent(eventsData.getPremiumAmount(_id), developFundPercPremim );\n            require(                \n                PublicAddr.payBTY(owner, premDF),\n                \"premium pay development fund\"\n            );\n        }\n        // pay to Community Marketing Fund\n        uint percentCMF = eventsData.getAdvisorAddr(_id) != address(0)\n                ? comMarketFundPerc\n                : comMarketFundPerc + extraHostPercMint + advisorPercMint;\n        uint mintCMF = getPercent(MPData[_id].tokenMinted, percentCMF);         \n        require(\n            PublicAddr.mint(comMarketFundWallet, mintCMF),\n            \"mint community marketing fund\"\n        );\n\n        uint mintMF = getPercent(MPData[_id].tokenMinted, moderatorsFundPerc);\n        // pay to Moderators Fund\n        require(\n            PublicAddr.mint(moderatorsFundWallet, mintMF),\n            \"mint moderators fund\"\n        );\n        emit payToHost(_id, premDF, mintDF, mintCMF, mintMF);\n    }\n\n    function letsPaytoHost(int _id) public {\n        require(msg.sender == owner, \"owner only\");\n        uint mintHost = 0;\n        uint payHost = 0;\n        uint mintAdv = 0;\n        uint payAdv = 0;\n        if (eventsData.getAdvisorAddr(_id) != address(0)) {\n            // pay minted tokens\n            mintHost = getPercent( MPData[_id].tokenMinted, hostPercMint + extraHostPercMint);\n            require(\n                PublicAddr.mint(eventsData.getHostAddr(_id), mintHost),\n                \"mint host with advisor\"\n            );\n            mintAdv = getPercent(MPData[_id].tokenMinted, advisorPercMint);\n            require(\n                PublicAddr.mint(eventsData.getAdvisorAddr(_id), mintAdv),\n                \"mint to advisor\"\n            );\n            // pay tokens\n            payHost = getPercent(MPData[_id].loserPool, hostPerc + extraHostPerc);\n            require(\n                PublicAddr.pay(eventsData.getHostAddr(_id), payHost),\n                \"pay to host with advisor\"\n            );\n            payAdv = getPercent(MPData[_id].loserPool, advisorPepc);\n            require(\n                PublicAddr.pay(eventsData.getAdvisorAddr(_id), payAdv),\n                \"pay to advisor\"\n            );\n        } else {\n            // mint to host\n            mintHost = getPercent(MPData[_id].tokenMinted, hostPercMint);\n            require(\n                PublicAddr.mint(eventsData.getHostAddr(_id), mintHost),\n                \"mint to host\"\n            );\n            payHost = getPercent(MPData[_id].loserPool, hostPerc);\n            // pay to host\n            require(\n                PublicAddr.pay(eventsData.getHostAddr(_id), payHost),\n                \"pay to host\"\n            );\n        }\n        emit payToExperts(_id, mintHost, payHost, mintAdv, payAdv);\n    }\n\n    function letsPayToExperts(int _id) public {\n        require(msg.sender == owner, \"owner only\");\n        uint percent = eventsData.getAdvisorAddr(_id) != address(0)\n                ? expertPerc\n                : expertPerc + expertExtraPerc;\n        uint correctAnswer = MPData[_id].correctAnswer;\n        int allReputation = calcReput(_id, correctAnswer);\n\n        for (uint i = 0; i < eventsData.getExpertAmount(_id, correctAnswer); i++ ) {\n            int reputation = eventsData.getExpertReput(_id, correctAnswer, i);\n            if (reputation >= 0) {\n                address payable expertWallet = eventsData.getExpertWallet(_id, correctAnswer, i);\n\n                // mint tokens\n                uint amountMint = (getPercent(MPData[_id].tokenMinted, expertPercMint) * (uint(reputation) + 1)) / uint(allReputation);\n                require(PublicAddr.mint(expertWallet, amountMint), \"mint exp\");\n\n                // pay tokens\n                uint amount = (getPercent(MPData[_id].loserPool, percent) * (uint(reputation) + 1)) / uint(allReputation);\n                require(PublicAddr.pay(expertWallet, amount), \"pay exp\");\n\n                // pay in premium events\n                if (eventsData.getPremiumAmount(_id) > 0) {\n                    uint premiumAmount = (getPercent(eventsData.getPremiumAmount(_id), expertPremiumPerc ) * (uint(reputation) + 1)) / uint(allReputation);\n                    require(PublicAddr.payBTY(expertWallet, premiumAmount),\"prem pay exp\");\n                }\n       \n            }\n        }\n        emit payToPlayers(_id, expertPercMint, percent, expertPremiumPerc);\n    }\n    \n    function calcReput(int _id, uint correctAnswer) private view returns(int) { \n        int allReputation = 0;\n        for ( uint i = 0; i < eventsData.getExpertAmount(_id, correctAnswer); i++ ) {\n            if ( eventsData.getExpertReput(_id, correctAnswer, i) >= 0 ) {\n                allReputation = allReputation + (eventsData.getExpertReput(_id, correctAnswer, i) + 1);\n            }\n        }\n        return allReputation;\n    }\n}\n",
  "sourcePath": "/Users/macbook/Documents/freelance/tokenominc/contracts/matic/events/PublicEvents/MiddlePayment.sol",
  "compiler": {
    "name": "solc",
    "version": "0.7.6+commit.7338295f.Linux.g++"
  },
  "schemaVersion": "3.3.4",
  "updatedAt": "2021-04-01T07:27:32.038Z",
  "networkType": "ethereum",
  "devdoc": {
    "kind": "dev",
    "methods": {},
    "version": 1
  },
  "userdoc": {
    "kind": "user",
    "methods": {},
    "version": 1
  }
}