{
  "contractName": "MiddlePayment",
  "abi": [
    {
      "anonymous": false,
      "inputs": [
        {
          "indexed": false,
          "internalType": "int256",
          "name": "id",
          "type": "int256"
        },
        {
          "indexed": false,
          "internalType": "uint256",
          "name": "tokens",
          "type": "uint256"
        },
        {
          "indexed": false,
          "internalType": "uint256",
          "name": "correctAnswer",
          "type": "uint256"
        }
      ],
      "name": "payToCompanies",
      "type": "event"
    },
    {
      "anonymous": false,
      "inputs": [
        {
          "indexed": false,
          "internalType": "int256",
          "name": "id",
          "type": "int256"
        },
        {
          "indexed": false,
          "internalType": "uint256",
          "name": "mintHost",
          "type": "uint256"
        },
        {
          "indexed": false,
          "internalType": "uint256",
          "name": "payHost",
          "type": "uint256"
        },
        {
          "indexed": false,
          "internalType": "uint256",
          "name": "mintAdv",
          "type": "uint256"
        },
        {
          "indexed": false,
          "internalType": "uint256",
          "name": "payAdv",
          "type": "uint256"
        }
      ],
      "name": "payToExperts",
      "type": "event"
    },
    {
      "anonymous": false,
      "inputs": [
        {
          "indexed": false,
          "internalType": "int256",
          "name": "id",
          "type": "int256"
        },
        {
          "indexed": false,
          "internalType": "uint256",
          "name": "premDF",
          "type": "uint256"
        },
        {
          "indexed": false,
          "internalType": "uint256",
          "name": "mintDF",
          "type": "uint256"
        },
        {
          "indexed": false,
          "internalType": "uint256",
          "name": "mintCMF",
          "type": "uint256"
        },
        {
          "indexed": false,
          "internalType": "uint256",
          "name": "mintMF",
          "type": "uint256"
        }
      ],
      "name": "payToHost",
      "type": "event"
    },
    {
      "anonymous": false,
      "inputs": [
        {
          "indexed": false,
          "internalType": "int256",
          "name": "id",
          "type": "int256"
        },
        {
          "indexed": false,
          "internalType": "uint256",
          "name": "expertPercMint",
          "type": "uint256"
        },
        {
          "indexed": false,
          "internalType": "uint256",
          "name": "percent",
          "type": "uint256"
        },
        {
          "indexed": false,
          "internalType": "uint256",
          "name": "expertPremiumPerc",
          "type": "uint256"
        }
      ],
      "name": "payToPlayers",
      "type": "event"
    },
    {
      "anonymous": false,
      "inputs": [
        {
          "indexed": false,
          "internalType": "int256",
          "name": "id",
          "type": "int256"
        },
        {
          "indexed": false,
          "internalType": "string",
          "name": "purpose",
          "type": "string"
        }
      ],
      "name": "revertedEvent",
      "type": "event"
    },
    {
      "inputs": [
        {
          "internalType": "int256",
          "name": "",
          "type": "int256"
        }
      ],
      "name": "MPData",
      "outputs": [
        {
          "internalType": "int256",
          "name": "id",
          "type": "int256"
        },
        {
          "internalType": "uint256",
          "name": "correctAnswer",
          "type": "uint256"
        },
        {
          "internalType": "uint256",
          "name": "loserPool",
          "type": "uint256"
        },
        {
          "internalType": "uint256",
          "name": "tokenMinted",
          "type": "uint256"
        },
        {
          "internalType": "bool",
          "name": "reverted",
          "type": "bool"
        },
        {
          "internalType": "bool",
          "name": "eventFinish",
          "type": "bool"
        }
      ],
      "stateMutability": "view",
      "type": "function",
      "constant": true
    },
    {
      "inputs": [],
      "name": "__MPConfig",
      "outputs": [],
      "stateMutability": "nonpayable",
      "type": "function"
    },
    {
      "inputs": [],
      "name": "__MPStructInit",
      "outputs": [],
      "stateMutability": "nonpayable",
      "type": "function"
    },
    {
      "inputs": [],
      "name": "advisorPepc",
      "outputs": [
        {
          "internalType": "uint256",
          "name": "",
          "type": "uint256"
        }
      ],
      "stateMutability": "view",
      "type": "function",
      "constant": true
    },
    {
      "inputs": [],
      "name": "advisorPercMint",
      "outputs": [
        {
          "internalType": "uint256",
          "name": "",
          "type": "uint256"
        }
      ],
      "stateMutability": "view",
      "type": "function",
      "constant": true
    },
    {
      "inputs": [
        {
          "internalType": "uint256",
          "name": "_GFindex",
          "type": "uint256"
        },
        {
          "internalType": "int256",
          "name": "_id",
          "type": "int256"
        },
        {
          "internalType": "contract PubStruct",
          "name": "eventsData",
          "type": "address"
        },
        {
          "internalType": "bool",
          "name": "minted",
          "type": "bool"
        }
      ],
      "name": "calcMintedTokens",
      "outputs": [
        {
          "internalType": "uint256",
          "name": "",
          "type": "uint256"
        }
      ],
      "stateMutability": "view",
      "type": "function",
      "constant": true
    },
    {
      "inputs": [
        {
          "internalType": "int256",
          "name": "_id",
          "type": "int256"
        }
      ],
      "name": "checkEventFinish",
      "outputs": [
        {
          "internalType": "bool",
          "name": "",
          "type": "bool"
        }
      ],
      "stateMutability": "view",
      "type": "function",
      "constant": true
    },
    {
      "inputs": [
        {
          "internalType": "int256",
          "name": "_id",
          "type": "int256"
        }
      ],
      "name": "checkReverted",
      "outputs": [
        {
          "internalType": "bool",
          "name": "",
          "type": "bool"
        }
      ],
      "stateMutability": "view",
      "type": "function",
      "constant": true
    },
    {
      "inputs": [],
      "name": "comMarketFundPerc",
      "outputs": [
        {
          "internalType": "uint256",
          "name": "",
          "type": "uint256"
        }
      ],
      "stateMutability": "view",
      "type": "function",
      "constant": true
    },
    {
      "inputs": [],
      "name": "comMarketFundWallet",
      "outputs": [
        {
          "internalType": "address payable",
          "name": "",
          "type": "address"
        }
      ],
      "stateMutability": "view",
      "type": "function",
      "constant": true
    },
    {
      "inputs": [],
      "name": "developFundPerc",
      "outputs": [
        {
          "internalType": "uint256",
          "name": "",
          "type": "uint256"
        }
      ],
      "stateMutability": "view",
      "type": "function",
      "constant": true
    },
    {
      "inputs": [],
      "name": "developFundPercPremim",
      "outputs": [
        {
          "internalType": "uint256",
          "name": "",
          "type": "uint256"
        }
      ],
      "stateMutability": "view",
      "type": "function",
      "constant": true
    },
    {
      "inputs": [],
      "name": "expertExtraPerc",
      "outputs": [
        {
          "internalType": "uint256",
          "name": "",
          "type": "uint256"
        }
      ],
      "stateMutability": "view",
      "type": "function",
      "constant": true
    },
    {
      "inputs": [],
      "name": "expertPerc",
      "outputs": [
        {
          "internalType": "uint256",
          "name": "",
          "type": "uint256"
        }
      ],
      "stateMutability": "view",
      "type": "function",
      "constant": true
    },
    {
      "inputs": [],
      "name": "expertPercMint",
      "outputs": [
        {
          "internalType": "uint256",
          "name": "",
          "type": "uint256"
        }
      ],
      "stateMutability": "view",
      "type": "function",
      "constant": true
    },
    {
      "inputs": [],
      "name": "expertPremiumPerc",
      "outputs": [
        {
          "internalType": "uint256",
          "name": "",
          "type": "uint256"
        }
      ],
      "stateMutability": "view",
      "type": "function",
      "constant": true
    },
    {
      "inputs": [],
      "name": "extraHostPerc",
      "outputs": [
        {
          "internalType": "uint256",
          "name": "",
          "type": "uint256"
        }
      ],
      "stateMutability": "view",
      "type": "function",
      "constant": true
    },
    {
      "inputs": [],
      "name": "extraHostPercMint",
      "outputs": [
        {
          "internalType": "uint256",
          "name": "",
          "type": "uint256"
        }
      ],
      "stateMutability": "view",
      "type": "function",
      "constant": true
    },
    {
      "inputs": [
        {
          "internalType": "int256",
          "name": "_id",
          "type": "int256"
        }
      ],
      "name": "getCorrectAnswer",
      "outputs": [
        {
          "internalType": "uint256",
          "name": "",
          "type": "uint256"
        }
      ],
      "stateMutability": "view",
      "type": "function",
      "constant": true
    },
    {
      "inputs": [
        {
          "internalType": "int256",
          "name": "_id",
          "type": "int256"
        }
      ],
      "name": "getLoserPool",
      "outputs": [
        {
          "internalType": "uint256",
          "name": "",
          "type": "uint256"
        }
      ],
      "stateMutability": "view",
      "type": "function",
      "constant": true
    },
    {
      "inputs": [
        {
          "internalType": "uint256",
          "name": "_percent",
          "type": "uint256"
        },
        {
          "internalType": "uint256",
          "name": "_from",
          "type": "uint256"
        }
      ],
      "name": "getPercent",
      "outputs": [
        {
          "internalType": "uint256",
          "name": "",
          "type": "uint256"
        }
      ],
      "stateMutability": "pure",
      "type": "function",
      "constant": true
    },
    {
      "inputs": [
        {
          "internalType": "int256",
          "name": "_id",
          "type": "int256"
        }
      ],
      "name": "getTokenMinted",
      "outputs": [
        {
          "internalType": "uint256",
          "name": "",
          "type": "uint256"
        }
      ],
      "stateMutability": "view",
      "type": "function",
      "constant": true
    },
    {
      "inputs": [],
      "name": "hostPerc",
      "outputs": [
        {
          "internalType": "uint256",
          "name": "",
          "type": "uint256"
        }
      ],
      "stateMutability": "view",
      "type": "function",
      "constant": true
    },
    {
      "inputs": [],
      "name": "hostPercMint",
      "outputs": [
        {
          "internalType": "uint256",
          "name": "",
          "type": "uint256"
        }
      ],
      "stateMutability": "view",
      "type": "function",
      "constant": true
    },
    {
      "inputs": [],
      "name": "moderatorsFundPerc",
      "outputs": [
        {
          "internalType": "uint256",
          "name": "",
          "type": "uint256"
        }
      ],
      "stateMutability": "view",
      "type": "function",
      "constant": true
    },
    {
      "inputs": [],
      "name": "moderatorsFundWallet",
      "outputs": [
        {
          "internalType": "address payable",
          "name": "",
          "type": "address"
        }
      ],
      "stateMutability": "view",
      "type": "function",
      "constant": true
    },
    {
      "inputs": [
        {
          "internalType": "address",
          "name": "_peaddr",
          "type": "address"
        },
        {
          "internalType": "address",
          "name": "_ppaddr",
          "type": "address"
        }
      ],
      "name": "setAddresses",
      "outputs": [],
      "stateMutability": "nonpayable",
      "type": "function"
    },
    {
      "inputs": [
        {
          "internalType": "uint256",
          "name": "_adPercMint",
          "type": "uint256"
        },
        {
          "internalType": "uint256",
          "name": "_adPerc",
          "type": "uint256"
        }
      ],
      "name": "setAdvisorPerc",
      "outputs": [],
      "stateMutability": "nonpayable",
      "type": "function"
    },
    {
      "inputs": [
        {
          "internalType": "uint256",
          "name": "_ePercMint",
          "type": "uint256"
        },
        {
          "internalType": "uint256",
          "name": "_ePerc",
          "type": "uint256"
        },
        {
          "internalType": "uint256",
          "name": "_eExtraPerc",
          "type": "uint256"
        },
        {
          "internalType": "uint256",
          "name": "_ePremPerc",
          "type": "uint256"
        }
      ],
      "name": "setExpertPerc",
      "outputs": [],
      "stateMutability": "nonpayable",
      "type": "function"
    },
    {
      "inputs": [
        {
          "internalType": "int256",
          "name": "_id",
          "type": "int256"
        }
      ],
      "name": "setFinishEvent",
      "outputs": [],
      "stateMutability": "nonpayable",
      "type": "function"
    },
    {
      "inputs": [
        {
          "internalType": "uint256",
          "name": "_dFPerc",
          "type": "uint256"
        },
        {
          "internalType": "uint256",
          "name": "_dFPPremim",
          "type": "uint256"
        },
        {
          "internalType": "uint256",
          "name": "_cMFPerc",
          "type": "uint256"
        },
        {
          "internalType": "uint256",
          "name": "_mFPerc",
          "type": "uint256"
        }
      ],
      "name": "setFundPerc",
      "outputs": [],
      "stateMutability": "nonpayable",
      "type": "function"
    },
    {
      "inputs": [
        {
          "internalType": "address payable",
          "name": "_CMFWallet",
          "type": "address"
        },
        {
          "internalType": "address payable",
          "name": "_MFWallet",
          "type": "address"
        }
      ],
      "name": "setFundWallet",
      "outputs": [],
      "stateMutability": "nonpayable",
      "type": "function"
    },
    {
      "inputs": [
        {
          "internalType": "uint256",
          "name": "_hostPercMint",
          "type": "uint256"
        },
        {
          "internalType": "uint256",
          "name": "_hostPerc",
          "type": "uint256"
        },
        {
          "internalType": "uint256",
          "name": "_eHPerc",
          "type": "uint256"
        },
        {
          "internalType": "uint256",
          "name": "_eHPMint",
          "type": "uint256"
        }
      ],
      "name": "setHostPerc",
      "outputs": [],
      "stateMutability": "nonpayable",
      "type": "function"
    },
    {
      "inputs": [
        {
          "internalType": "int256",
          "name": "_id",
          "type": "int256"
        }
      ],
      "name": "setReverted",
      "outputs": [],
      "stateMutability": "nonpayable",
      "type": "function"
    },
    {
      "inputs": [],
      "name": "__MiddlePaymentInit",
      "outputs": [],
      "stateMutability": "nonpayable",
      "type": "function"
    },
    {
      "inputs": [
        {
          "internalType": "contract PublicEvents",
          "name": "_addr",
          "type": "address"
        }
      ],
      "name": "setAddr",
      "outputs": [],
      "stateMutability": "nonpayable",
      "type": "function"
    },
    {
      "inputs": [
        {
          "internalType": "int256",
          "name": "_id",
          "type": "int256"
        }
      ],
      "name": "letsFindCorrectAnswer",
      "outputs": [],
      "stateMutability": "nonpayable",
      "type": "function"
    },
    {
      "inputs": [
        {
          "internalType": "int256",
          "name": "_id",
          "type": "int256"
        },
        {
          "internalType": "string",
          "name": "purpose",
          "type": "string"
        }
      ],
      "name": "revertedPayment",
      "outputs": [],
      "stateMutability": "nonpayable",
      "type": "function"
    },
    {
      "inputs": [
        {
          "internalType": "int256",
          "name": "_id",
          "type": "int256"
        }
      ],
      "name": "letsPayToCompanies",
      "outputs": [],
      "stateMutability": "nonpayable",
      "type": "function"
    },
    {
      "inputs": [
        {
          "internalType": "int256",
          "name": "_id",
          "type": "int256"
        }
      ],
      "name": "letsPaytoHost",
      "outputs": [],
      "stateMutability": "nonpayable",
      "type": "function"
    },
    {
      "inputs": [
        {
          "internalType": "int256",
          "name": "_id",
          "type": "int256"
        }
      ],
      "name": "letsPayToExperts",
      "outputs": [],
      "stateMutability": "nonpayable",
      "type": "function"
    }
  ],
  "bytecode": "0x608060405234801561001057600080fd5b5061593080620000216000396000f3fe608060405234801561001057600080fd5b50600436106102535760003560e01c80638a9dbda711610146578063c12c8c46116100c3578063e1232df911610087578063e1232df914610a20578063e1755c6a14610a2a578063e1dcc40914610a48578063e79f365d14610a66578063f7ec585114610a94578063fab5102c14610ab257610253565b8063c12c8c4614610910578063cb95c2041461092e578063d1d80fdf1461097a578063d343c1dc146109be578063dba8fe8714610a0257610253565b8063af9ace451161010a578063af9ace45146107c5578063ba1c6752146107e3578063bc26b1011461085b578063bdc905541461089d578063bf2c691c1461090657610253565b80638a9dbda7146106ed5780638fc8bc421461070b57806390107afe146107295780639ec2345a1461078d578063aef5671b146107bb57610253565b8063362e41b6116101d4578063786508c511610198578063786508c5146105eb578063802cc34c14610609578063870d94501461063d578063896aa7a41461066b5780638a571fcc1461068957610253565b8063362e41b61461042c57806355e8415814610470578063622198661461048e578063684a3247146104da578063769c48981461052657610253565b806324beedd31161021b57806324beedd3146103425780632819bd02146103605780632c316d05146103985780632c7d577e146103b65780633467f697146103f857610253565b8063051e9ea7146102585780630583e6ee1461028657806305b442ee146102b45780631c408357146102f65780631f36c48314610314575b600080fd5b6102846004803603602081101561026e57600080fd5b8101908080359060200190929190505050610afe565b005b6102b26004803603602081101561029c57600080fd5b8101908080359060200190929190505050611ae2565b005b6102e0600480360360208110156102ca57600080fd5b8101908080359060200190929190505050611bd7565b6040518082815260200191505060405180910390f35b6102fe611bf7565b6040518082815260200191505060405180910390f35b6103406004803603602081101561032a57600080fd5b8101908080359060200190929190505050611bfd565b005b61034a612636565b6040518082815260200191505060405180910390f35b6103966004803603604081101561037657600080fd5b81019080803590602001909291908035906020019092919050505061263c565b005b6103a0612711565b6040518082815260200191505060405180910390f35b6103e2600480360360208110156103cc57600080fd5b8101908080359060200190929190505050612717565b6040518082815260200191505060405180910390f35b610400612737565b604051808273ffffffffffffffffffffffffffffffffffffffff16815260200191505060405180910390f35b6104586004803603602081101561044257600080fd5b810190808035906020019092919050505061275d565b60405180821515815260200191505060405180910390f35b61047861278a565b6040518082815260200191505060405180910390f35b6104c4600480360360408110156104a457600080fd5b810190808035906020019092919080359060200190929190505050612790565b6040518082815260200191505060405180910390f35b610524600480360360808110156104f057600080fd5b81019080803590602001909291908035906020019092919080359060200190929190803590602001909291905050506127a7565b005b6105e96004803603604081101561053c57600080fd5b81019080803590602001909291908035906020019064010000000081111561056357600080fd5b82018360208201111561057557600080fd5b8035906020019184600183028401116401000000008311171561059757600080fd5b91908080601f016020809104026020016040519081016040528093929190818152602001838380828437600081840152601f19601f82011690508083019250505050505050919291929050505061288c565b005b6105f36129b5565b6040518082815260200191505060405180910390f35b6106116129bb565b604051808273ffffffffffffffffffffffffffffffffffffffff16815260200191505060405180910390f35b6106696004803603602081101561065357600080fd5b81019080803590602001909291905050506129e1565b005b61067361337f565b6040518082815260200191505060405180910390f35b6106eb6004803603604081101561069f57600080fd5b81019080803573ffffffffffffffffffffffffffffffffffffffff169060200190929190803573ffffffffffffffffffffffffffffffffffffffff169060200190929190505050613385565b005b6106f56134ce565b6040518082815260200191505060405180910390f35b6107136134d4565b6040518082815260200191505060405180910390f35b61078b6004803603604081101561073f57600080fd5b81019080803573ffffffffffffffffffffffffffffffffffffffff169060200190929190803573ffffffffffffffffffffffffffffffffffffffff1690602001909291905050506134da565b005b6107b9600480360360208110156107a357600080fd5b8101908080359060200190929190505050613623565b005b6107c3613718565b005b6107cd613857565b6040518082815260200191505060405180910390f35b610845600480360360808110156107f957600080fd5b810190808035906020019092919080359060200190929190803573ffffffffffffffffffffffffffffffffffffffff16906020019092919080351515906020019092919050505061385d565b6040518082815260200191505060405180910390f35b6108876004803603602081101561087157600080fd5b8101908080359060200190929190505050613c55565b6040518082815260200191505060405180910390f35b6108c9600480360360208110156108b357600080fd5b8101908080359060200190929190505050613c75565b6040518087815260200186815260200185815260200184815260200183151581526020018215158152602001965050505050505060405180910390f35b61090e613ccb565b005b610918613e0a565b6040518082815260200191505060405180910390f35b6109786004803603608081101561094457600080fd5b8101908080359060200190929190803590602001909291908035906020019092919080359060200190929190505050613e10565b005b6109bc6004803603602081101561099057600080fd5b81019080803573ffffffffffffffffffffffffffffffffffffffff169060200190929190505050613ef5565b005b6109ea600480360360208110156109d457600080fd5b810190808035906020019092919050505061407e565b60405180821515815260200191505060405180910390f35b610a0a6140ab565b6040518082815260200191505060405180910390f35b610a286140b1565b005b610a326141bf565b6040518082815260200191505060405180910390f35b610a506141c5565b6040518082815260200191505060405180910390f35b610a9260048036036020811015610a7c57600080fd5b81019080803590602001909291905050506141cb565b005b610a9c6146f9565b6040518082815260200191505060405180910390f35b610afc60048036036080811015610ac857600080fd5b81019080803590602001909291908035906020019092919080359060200190929190803590602001909291905050506146ff565b005b600060029054906101000a900473ffffffffffffffffffffffffffffffffffffffff1673ffffffffffffffffffffffffffffffffffffffff163373ffffffffffffffffffffffffffffffffffffffff1614610bc1576040517f08c379a000000000000000000000000000000000000000000000000000000000815260040180806020018281038252600a8152602001807f6f776e6572206f6e6c790000000000000000000000000000000000000000000081525060200191505060405180910390fd5b600080600080600073ffffffffffffffffffffffffffffffffffffffff16601560009054906101000a900473ffffffffffffffffffffffffffffffffffffffff1673ffffffffffffffffffffffffffffffffffffffff166342f1bb8d876040518263ffffffff1660e01b81526004018082815260200191505060206040518083038186803b158015610c5257600080fd5b505afa158015610c66573d6000803e3d6000fd5b505050506040513d6020811015610c7c57600080fd5b810190808051906020019092919050505073ffffffffffffffffffffffffffffffffffffffff16146115ad57601660009054906101000a900473ffffffffffffffffffffffffffffffffffffffff1673ffffffffffffffffffffffffffffffffffffffff1663fe4c58c5866040518263ffffffff1660e01b81526004018082815260200191505060206040518083038186803b158015610d1b57600080fd5b505afa158015610d2f573d6000803e3d6000fd5b505050506040513d6020811015610d4557600080fd5b81019080805190602001909291905050501561118257610d816014600087815260200190815260200160002060030154600a5460075401612790565b9350601660009054906101000a900473ffffffffffffffffffffffffffffffffffffffff1673ffffffffffffffffffffffffffffffffffffffff166340c10f19601560009054906101000a900473ffffffffffffffffffffffffffffffffffffffff1673ffffffffffffffffffffffffffffffffffffffff1663f438835c886040518263ffffffff1660e01b81526004018082815260200191505060206040518083038186803b158015610e3457600080fd5b505afa158015610e48573d6000803e3d6000fd5b505050506040513d6020811015610e5e57600080fd5b8101908080519060200190929190505050866040518363ffffffff1660e01b8152600401808373ffffffffffffffffffffffffffffffffffffffff16815260200182815260200192505050602060405180830381600087803b158015610ec357600080fd5b505af1158015610ed7573d6000803e3d6000fd5b505050506040513d6020811015610eed57600080fd5b8101908080519060200190929190505050610f70576040517f08c379a00000000000000000000000000000000000000000000000000000000081526004018080602001828103825260168152602001807f6d696e7420686f737420776974682061647669736f720000000000000000000081525060200191505060405180910390fd5b610f926014600087815260200190815260200160002060030154600f54612790565b9150601660009054906101000a900473ffffffffffffffffffffffffffffffffffffffff1673ffffffffffffffffffffffffffffffffffffffff166340c10f19601560009054906101000a900473ffffffffffffffffffffffffffffffffffffffff1673ffffffffffffffffffffffffffffffffffffffff166342f1bb8d886040518263ffffffff1660e01b81526004018082815260200191505060206040518083038186803b15801561104557600080fd5b505afa158015611059573d6000803e3d6000fd5b505050506040513d602081101561106f57600080fd5b8101908080519060200190929190505050846040518363ffffffff1660e01b8152600401808373ffffffffffffffffffffffffffffffffffffffff16815260200182815260200192505050602060405180830381600087803b1580156110d457600080fd5b505af11580156110e8573d6000803e3d6000fd5b505050506040513d60208110156110fe57600080fd5b8101908080519060200190929190505050611181576040517f08c379a000000000000000000000000000000000000000000000000000000000815260040180806020018281038252600f8152602001807f6d696e7420746f2061647669736f72000000000000000000000000000000000081525060200191505060405180910390fd5b5b6111a8601460008781526020019081526020016000206002015460095460085401612790565b9250601660009054906101000a900473ffffffffffffffffffffffffffffffffffffffff1673ffffffffffffffffffffffffffffffffffffffff1663c4076876601560009054906101000a900473ffffffffffffffffffffffffffffffffffffffff1673ffffffffffffffffffffffffffffffffffffffff1663f438835c886040518263ffffffff1660e01b81526004018082815260200191505060206040518083038186803b15801561125b57600080fd5b505afa15801561126f573d6000803e3d6000fd5b505050506040513d602081101561128557600080fd5b8101908080519060200190929190505050856040518363ffffffff1660e01b8152600401808373ffffffffffffffffffffffffffffffffffffffff16815260200182815260200192505050602060405180830381600087803b1580156112ea57600080fd5b505af11580156112fe573d6000803e3d6000fd5b505050506040513d602081101561131457600080fd5b8101908080519060200190929190505050611397576040517f08c379a00000000000000000000000000000000000000000000000000000000081526004018080602001828103825260188152602001807f70617920746f20686f737420776974682061647669736f72000000000000000081525060200191505060405180910390fd5b6113b96014600087815260200190815260200160002060020154601054612790565b9050601660009054906101000a900473ffffffffffffffffffffffffffffffffffffffff1673ffffffffffffffffffffffffffffffffffffffff1663c4076876601560009054906101000a900473ffffffffffffffffffffffffffffffffffffffff1673ffffffffffffffffffffffffffffffffffffffff166342f1bb8d886040518263ffffffff1660e01b81526004018082815260200191505060206040518083038186803b15801561146c57600080fd5b505afa158015611480573d6000803e3d6000fd5b505050506040513d602081101561149657600080fd5b8101908080519060200190929190505050836040518363ffffffff1660e01b8152600401808373ffffffffffffffffffffffffffffffffffffffff16815260200182815260200192505050602060405180830381600087803b1580156114fb57600080fd5b505af115801561150f573d6000803e3d6000fd5b505050506040513d602081101561152557600080fd5b81019080805190602001909291905050506115a8576040517f08c379a000000000000000000000000000000000000000000000000000000000815260040180806020018281038252600e8152602001807f70617920746f2061647669736f7200000000000000000000000000000000000081525060200191505060405180910390fd5b611a84565b601660009054906101000a900473ffffffffffffffffffffffffffffffffffffffff1673ffffffffffffffffffffffffffffffffffffffff1663fe4c58c5866040518263ffffffff1660e01b81526004018082815260200191505060206040518083038186803b15801561162057600080fd5b505afa158015611634573d6000803e3d6000fd5b505050506040513d602081101561164a57600080fd5b810190808051906020019092919050505015611872576116826014600087815260200190815260200160002060030154600754612790565b9350601660009054906101000a900473ffffffffffffffffffffffffffffffffffffffff1673ffffffffffffffffffffffffffffffffffffffff166340c10f19601560009054906101000a900473ffffffffffffffffffffffffffffffffffffffff1673ffffffffffffffffffffffffffffffffffffffff1663f438835c886040518263ffffffff1660e01b81526004018082815260200191505060206040518083038186803b15801561173557600080fd5b505afa158015611749573d6000803e3d6000fd5b505050506040513d602081101561175f57600080fd5b8101908080519060200190929190505050866040518363ffffffff1660e01b8152600401808373ffffffffffffffffffffffffffffffffffffffff16815260200182815260200192505050602060405180830381600087803b1580156117c457600080fd5b505af11580156117d8573d6000803e3d6000fd5b505050506040513d60208110156117ee57600080fd5b8101908080519060200190929190505050611871576040517f08c379a000000000000000000000000000000000000000000000000000000000815260040180806020018281038252600c8152602001807f6d696e7420746f20686f7374000000000000000000000000000000000000000081525060200191505060405180910390fd5b5b6118946014600087815260200190815260200160002060020154600854612790565b9250601660009054906101000a900473ffffffffffffffffffffffffffffffffffffffff1673ffffffffffffffffffffffffffffffffffffffff1663c4076876601560009054906101000a900473ffffffffffffffffffffffffffffffffffffffff1673ffffffffffffffffffffffffffffffffffffffff1663f438835c886040518263ffffffff1660e01b81526004018082815260200191505060206040518083038186803b15801561194757600080fd5b505afa15801561195b573d6000803e3d6000fd5b505050506040513d602081101561197157600080fd5b8101908080519060200190929190505050856040518363ffffffff1660e01b8152600401808373ffffffffffffffffffffffffffffffffffffffff16815260200182815260200192505050602060405180830381600087803b1580156119d657600080fd5b505af11580156119ea573d6000803e3d6000fd5b505050506040513d6020811015611a0057600080fd5b8101908080519060200190929190505050611a83576040517f08c379a000000000000000000000000000000000000000000000000000000000815260040180806020018281038252600b8152602001807f70617920746f20686f737400000000000000000000000000000000000000000081525060200191505060405180910390fd5b5b7f8b25ea6050ae86d4a92f0105ec319f239c299ccb27723dcd9e04d02220d9f7fa8585858585604051808681526020018581526020018481526020018381526020018281526020019550505050505060405180910390a15050505050565b601360009054906101000a900473ffffffffffffffffffffffffffffffffffffffff1673ffffffffffffffffffffffffffffffffffffffff163373ffffffffffffffffffffffffffffffffffffffff1614611ba5576040517f08c379a000000000000000000000000000000000000000000000000000000000815260040180806020018281038252600f8152602001807f7070436f6e7472616374206f6e6c79000000000000000000000000000000000081525060200191505060405180910390fd5b60016014600083815260200190815260200160002060040160016101000a81548160ff02191690831515021790555050565b600060146000838152602001908152602001600020600201549050919050565b60035481565b600060029054906101000a900473ffffffffffffffffffffffffffffffffffffffff1673ffffffffffffffffffffffffffffffffffffffff163373ffffffffffffffffffffffffffffffffffffffff1614611cc0576040517f08c379a000000000000000000000000000000000000000000000000000000000815260040180806020018281038252600a8152602001807f6f776e6572206f6e6c790000000000000000000000000000000000000000000081525060200191505060405180910390fd5b600080600080601660009054906101000a900473ffffffffffffffffffffffffffffffffffffffff1673ffffffffffffffffffffffffffffffffffffffff1663fe4c58c5866040518263ffffffff1660e01b81526004018082815260200191505060206040518083038186803b158015611d3957600080fd5b505afa158015611d4d573d6000803e3d6000fd5b505050506040513d6020811015611d6357600080fd5b81019080805190602001909291905050501561230457611d9b6014600087815260200190815260200160002060030154600354612790565b9250601660009054906101000a900473ffffffffffffffffffffffffffffffffffffffff1673ffffffffffffffffffffffffffffffffffffffff166340c10f19600060029054906101000a900473ffffffffffffffffffffffffffffffffffffffff16856040518363ffffffff1660e01b8152600401808373ffffffffffffffffffffffffffffffffffffffff16815260200182815260200192505050602060405180830381600087803b158015611e5257600080fd5b505af1158015611e66573d6000803e3d6000fd5b505050506040513d6020811015611e7c57600080fd5b8101908080519060200190929190505050611eff576040517f08c379a00000000000000000000000000000000000000000000000000000000081526004018080602001828103825260158152602001807f6d696e7420646576656c6f706d656e742066756e64000000000000000000000081525060200191505060405180910390fd5b60008073ffffffffffffffffffffffffffffffffffffffff16601560009054906101000a900473ffffffffffffffffffffffffffffffffffffffff1673ffffffffffffffffffffffffffffffffffffffff166342f1bb8d886040518263ffffffff1660e01b81526004018082815260200191505060206040518083038186803b158015611f8b57600080fd5b505afa158015611f9f573d6000803e3d6000fd5b505050506040513d6020811015611fb557600080fd5b810190808051906020019092919050505073ffffffffffffffffffffffffffffffffffffffff161415611ff257600f54600a546005540101611ff6565b6005545b9050612018601460008881526020019081526020016000206003015482612790565b9250601660009054906101000a900473ffffffffffffffffffffffffffffffffffffffff1673ffffffffffffffffffffffffffffffffffffffff166340c10f19600160009054906101000a900473ffffffffffffffffffffffffffffffffffffffff16856040518363ffffffff1660e01b8152600401808373ffffffffffffffffffffffffffffffffffffffff16815260200182815260200192505050602060405180830381600087803b1580156120cf57600080fd5b505af11580156120e3573d6000803e3d6000fd5b505050506040513d60208110156120f957600080fd5b810190808051906020019092919050505061217c576040517f08c379a000000000000000000000000000000000000000000000000000000000815260040180806020018281038252601d8152602001807f6d696e7420636f6d6d756e697479206d61726b6574696e672066756e6400000081525060200191505060405180910390fd5b61219e6014600088815260200190815260200160002060030154600654612790565b9150601660009054906101000a900473ffffffffffffffffffffffffffffffffffffffff1673ffffffffffffffffffffffffffffffffffffffff166340c10f19600260009054906101000a900473ffffffffffffffffffffffffffffffffffffffff16846040518363ffffffff1660e01b8152600401808373ffffffffffffffffffffffffffffffffffffffff16815260200182815260200192505050602060405180830381600087803b15801561225557600080fd5b505af1158015612269573d6000803e3d6000fd5b505050506040513d602081101561227f57600080fd5b8101908080519060200190929190505050612302576040517f08c379a00000000000000000000000000000000000000000000000000000000081526004018080602001828103825260148152602001807f6d696e74206d6f64657261746f72732066756e6400000000000000000000000081525060200191505060405180910390fd5b505b6000601560009054906101000a900473ffffffffffffffffffffffffffffffffffffffff1673ffffffffffffffffffffffffffffffffffffffff166380559173876040518263ffffffff1660e01b81526004018082815260200191505060206040518083038186803b15801561237957600080fd5b505afa15801561238d573d6000803e3d6000fd5b505050506040513d60208110156123a357600080fd5b810190808051906020019092919050505011156125d857612473601560009054906101000a900473ffffffffffffffffffffffffffffffffffffffff1673ffffffffffffffffffffffffffffffffffffffff166380559173876040518263ffffffff1660e01b81526004018082815260200191505060206040518083038186803b15801561243057600080fd5b505afa158015612444573d6000803e3d6000fd5b505050506040513d602081101561245a57600080fd5b8101908080519060200190929190505050600454612790565b9350601660009054906101000a900473ffffffffffffffffffffffffffffffffffffffff1673ffffffffffffffffffffffffffffffffffffffff1663c4076876600060029054906101000a900473ffffffffffffffffffffffffffffffffffffffff16866040518363ffffffff1660e01b8152600401808373ffffffffffffffffffffffffffffffffffffffff16815260200182815260200192505050602060405180830381600087803b15801561252a57600080fd5b505af115801561253e573d6000803e3d6000fd5b505050506040513d602081101561255457600080fd5b81019080805190602001909291905050506125d7576040517f08c379a000000000000000000000000000000000000000000000000000000000815260040180806020018281038252601c8152602001807f7072656d69756d2070617920646576656c6f706d656e742066756e640000000081525060200191505060405180910390fd5b5b7f27650ccb91ed33fea2eb9b1f7cecf9d3db7cf69fe53e31fc832dcecd9f3178f38585858585604051808681526020018581526020018481526020018381526020018281526020019550505050505060405180910390a15050505050565b60065481565b600060029054906101000a900473ffffffffffffffffffffffffffffffffffffffff1673ffffffffffffffffffffffffffffffffffffffff163373ffffffffffffffffffffffffffffffffffffffff16146126ff576040517f08c379a000000000000000000000000000000000000000000000000000000000815260040180806020018281038252600a8152602001807f6f776e6572206f6e6c790000000000000000000000000000000000000000000081525060200191505060405180910390fd5b81600f81905550806010819055505050565b600d5481565b600060146000838152602001908152602001600020600301549050919050565b600260009054906101000a900473ffffffffffffffffffffffffffffffffffffffff1681565b60006014600083815260200190815260200160002060040160009054906101000a900460ff169050919050565b600a5481565b600060648284028161279e57fe5b04905092915050565b600060029054906101000a900473ffffffffffffffffffffffffffffffffffffffff1673ffffffffffffffffffffffffffffffffffffffff163373ffffffffffffffffffffffffffffffffffffffff161461286a576040517f08c379a000000000000000000000000000000000000000000000000000000000815260040180806020018281038252600a8152602001807f6f776e6572206f6e6c790000000000000000000000000000000000000000000081525060200191505060405180910390fd5b83600781905550826008819055508160098190555080600a8190555050505050565b600060029054906101000a900473ffffffffffffffffffffffffffffffffffffffff1673ffffffffffffffffffffffffffffffffffffffff163373ffffffffffffffffffffffffffffffffffffffff1614806129355750601760009054906101000a900473ffffffffffffffffffffffffffffffffffffffff1673ffffffffffffffffffffffffffffffffffffffff163373ffffffffffffffffffffffffffffffffffffffff16145b6129a7576040517f08c379a000000000000000000000000000000000000000000000000000000000815260040180806020018281038252601b8152602001807f6f776e6572206f6e6c79206f72207075622061646472206f6e6c79000000000081525060200191505060405180910390fd5b6129b182826147e4565b5050565b60105481565b600160009054906101000a900473ffffffffffffffffffffffffffffffffffffffff1681565b600060029054906101000a900473ffffffffffffffffffffffffffffffffffffffff1673ffffffffffffffffffffffffffffffffffffffff163373ffffffffffffffffffffffffffffffffffffffff1614612aa4576040517f08c379a000000000000000000000000000000000000000000000000000000000815260040180806020018281038252600a8152602001807f6f776e6572206f6e6c790000000000000000000000000000000000000000000081525060200191505060405180910390fd5b60008073ffffffffffffffffffffffffffffffffffffffff16601560009054906101000a900473ffffffffffffffffffffffffffffffffffffffff1673ffffffffffffffffffffffffffffffffffffffff166342f1bb8d846040518263ffffffff1660e01b81526004018082815260200191505060206040518083038186803b158015612b3057600080fd5b505afa158015612b44573d6000803e3d6000fd5b505050506040513d6020811015612b5a57600080fd5b810190808051906020019092919050505073ffffffffffffffffffffffffffffffffffffffff161415612b9357600d54600c5401612b97565b600c545b90506000601460008481526020019081526020016000206001015490506000612bc08483614fb3565b905060008113156131a45760005b601560009054906101000a900473ffffffffffffffffffffffffffffffffffffffff1673ffffffffffffffffffffffffffffffffffffffff166323c8778e86856040518363ffffffff1660e01b8152600401808381526020018281526020019250505060206040518083038186803b158015612c4957600080fd5b505afa158015612c5d573d6000803e3d6000fd5b505050506040513d6020811015612c7357600080fd5b810190808051906020019092919050505081101561319e576000601560009054906101000a900473ffffffffffffffffffffffffffffffffffffffff1673ffffffffffffffffffffffffffffffffffffffff16630569ae998786856040518463ffffffff1660e01b815260040180848152602001838152602001828152602001935050505060206040518083038186803b158015612d1057600080fd5b505afa158015612d24573d6000803e3d6000fd5b505050506040513d6020811015612d3a57600080fd5b8101908080519060200190929190505050905060008112613190576000601560009054906101000a900473ffffffffffffffffffffffffffffffffffffffff1673ffffffffffffffffffffffffffffffffffffffff1663f46cf8388887866040518463ffffffff1660e01b815260040180848152602001838152602001828152602001935050505060206040518083038186803b158015612dda57600080fd5b505afa158015612dee573d6000803e3d6000fd5b505050506040513d6020811015612e0457600080fd5b81019080805190602001909291905050509050601660009054906101000a900473ffffffffffffffffffffffffffffffffffffffff1673ffffffffffffffffffffffffffffffffffffffff1663fe4c58c5886040518263ffffffff1660e01b81526004018082815260200191505060206040518083038186803b158015612e8a57600080fd5b505afa158015612e9e573d6000803e3d6000fd5b505050506040513d6020811015612eb457600080fd5b8101908080519060200190929190505050156130405760008460018401612ef3601460008c815260200190815260200160002060030154600b54612790565b0281612efb57fe5b049050601660009054906101000a900473ffffffffffffffffffffffffffffffffffffffff1673ffffffffffffffffffffffffffffffffffffffff166340c10f1983836040518363ffffffff1660e01b8152600401808373ffffffffffffffffffffffffffffffffffffffff16815260200182815260200192505050602060405180830381600087803b158015612f9157600080fd5b505af1158015612fa5573d6000803e3d6000fd5b505050506040513d6020811015612fbb57600080fd5b810190808051906020019092919050505061303e576040517f08c379a00000000000000000000000000000000000000000000000000000000081526004018080602001828103825260088152602001807f6d696e742065787000000000000000000000000000000000000000000000000081525060200191505060405180910390fd5b505b601660009054906101000a900473ffffffffffffffffffffffffffffffffffffffff1673ffffffffffffffffffffffffffffffffffffffff1663c40768768261308e8a8a600e54888b61521d565b6040518363ffffffff1660e01b8152600401808373ffffffffffffffffffffffffffffffffffffffff16815260200182815260200192505050602060405180830381600087803b1580156130e157600080fd5b505af11580156130f5573d6000803e3d6000fd5b505050506040513d602081101561310b57600080fd5b810190808051906020019092919050505061318e576040517f08c379a00000000000000000000000000000000000000000000000000000000081526004018080602001828103825260078152602001807f706179206578700000000000000000000000000000000000000000000000000081525060200191505060405180910390fd5b505b508080600101915050612bce565b50613326565b601660009054906101000a900473ffffffffffffffffffffffffffffffffffffffff1673ffffffffffffffffffffffffffffffffffffffff1663c4076876600160009054906101000a900473ffffffffffffffffffffffffffffffffffffffff16613225601460008981526020019081526020016000206002015487612790565b6040518363ffffffff1660e01b8152600401808373ffffffffffffffffffffffffffffffffffffffff16815260200182815260200192505050602060405180830381600087803b15801561327857600080fd5b505af115801561328c573d6000803e3d6000fd5b505050506040513d60208110156132a257600080fd5b8101908080519060200190929190505050613325576040517f08c379a000000000000000000000000000000000000000000000000000000000815260040180806020018281038252601d8152602001807f6d696e7420636f6d6d756e697479206d61726b6574696e672066756e6400000081525060200191505060405180910390fd5b5b7f2bd559d8c6b28edb22c6601c647a868a978f9bf770180306abba94aa10f46be384600b5485600e546040518085815260200184815260200183815260200182815260200194505050505060405180910390a150505050565b600c5481565b600060029054906101000a900473ffffffffffffffffffffffffffffffffffffffff1673ffffffffffffffffffffffffffffffffffffffff163373ffffffffffffffffffffffffffffffffffffffff1614613448576040517f08c379a000000000000000000000000000000000000000000000000000000000815260040180806020018281038252600a8152602001807f6f776e6572206f6e6c790000000000000000000000000000000000000000000081525060200191505060405180910390fd5b81600160006101000a81548173ffffffffffffffffffffffffffffffffffffffff021916908373ffffffffffffffffffffffffffffffffffffffff16021790555080600260006101000a81548173ffffffffffffffffffffffffffffffffffffffff021916908373ffffffffffffffffffffffffffffffffffffffff1602179055505050565b60075481565b60085481565b601160009054906101000a900473ffffffffffffffffffffffffffffffffffffffff1673ffffffffffffffffffffffffffffffffffffffff163373ffffffffffffffffffffffffffffffffffffffff161461359d576040517f08c379a000000000000000000000000000000000000000000000000000000000815260040180806020018281038252600a8152602001807f6f776e6572206f6e6c790000000000000000000000000000000000000000000081525060200191505060405180910390fd5b81601260006101000a81548173ffffffffffffffffffffffffffffffffffffffff021916908373ffffffffffffffffffffffffffffffffffffffff16021790555080601360006101000a81548173ffffffffffffffffffffffffffffffffffffffff021916908373ffffffffffffffffffffffffffffffffffffffff1602179055505050565b601260009054906101000a900473ffffffffffffffffffffffffffffffffffffffff1673ffffffffffffffffffffffffffffffffffffffff163373ffffffffffffffffffffffffffffffffffffffff16146136e6576040517f08c379a000000000000000000000000000000000000000000000000000000000815260040180806020018281038252600f8152602001807f7065436f6e7472616374206f6e6c79000000000000000000000000000000000081525060200191505060405180910390fd5b60016014600083815260200190815260200160002060040160006101000a81548160ff02191690831515021790555050565b600060019054906101000a900460ff168061373757506137366153c5565b5b8061374d575060008054906101000a900460ff16155b6137a2576040517f08c379a000000000000000000000000000000000000000000000000000000000815260040180806020018281038252602e8152602001806158cd602e913960400191505060405180910390fd5b60008060019054906101000a900460ff1615905080156137f2576001600060016101000a81548160ff02191690831515021790555060016000806101000a81548160ff0219169083151502179055505b33600060026101000a81548173ffffffffffffffffffffffffffffffffffffffff021916908373ffffffffffffffffffffffffffffffffffffffff16021790555080156138545760008060016101000a81548160ff0219169083151502179055505b50565b600b5481565b60008115613c485760008060005b8573ffffffffffffffffffffffffffffffffffffffff1663a96c2aea886040518263ffffffff1660e01b81526004018082815260200191505060206040518083038186803b1580156138bc57600080fd5b505afa1580156138d0573d6000803e3d6000fd5b505050506040513d60208110156138e657600080fd5b8101908080519060200190929190505050811015613ae457828673ffffffffffffffffffffffffffffffffffffffff166371aee94589846040518363ffffffff1660e01b8152600401808381526020018281526020019250505060206040518083038186803b15801561395857600080fd5b505afa15801561396c573d6000803e3d6000fd5b505050506040513d602081101561398257600080fd5b81019080805190602001909291905050501115613a37578291508573ffffffffffffffffffffffffffffffffffffffff166371aee94588836040518363ffffffff1660e01b8152600401808381526020018281526020019250505060206040518083038186803b1580156139f557600080fd5b505afa158015613a09573d6000803e3d6000fd5b505050506040513d6020811015613a1f57600080fd5b81019080805190602001909291905050509250613ad7565b818673ffffffffffffffffffffffffffffffffffffffff166371aee94589846040518363ffffffff1660e01b8152600401808381526020018281526020019250505060206040518083038186803b158015613a9157600080fd5b505afa158015613aa5573d6000803e3d6000fd5b505050506040513d6020811015613abb57600080fd5b81019080805190602001909291905050501115613ad6578291505b5b808060010191505061386b565b5060008573ffffffffffffffffffffffffffffffffffffffff1663f946c207886040518263ffffffff1660e01b81526004018082815260200191505060206040518083038186803b158015613b3857600080fd5b505afa158015613b4c573d6000803e3d6000fd5b505050506040513d6020811015613b6257600080fd5b810190808051906020019092919050505090506000613b8183836153d6565b613b8b85846153d6565b6064030190506000828873ffffffffffffffffffffffffffffffffffffffff166330286c378b6040518263ffffffff1660e01b81526004018082815260200191505060206040518083038186803b158015613be557600080fd5b505afa158015613bf9573d6000803e3d6000fd5b505050506040513d6020811015613c0f57600080fd5b810190808051906020019092919050505081613c2757fe5b0490506127108a83858402020281613c3b57fe5b0495505050505050613c4d565b600090505b949350505050565b600060146000838152602001908152602001600020600101549050919050565b60146020528060005260406000206000915090508060000154908060010154908060020154908060030154908060040160009054906101000a900460ff16908060040160019054906101000a900460ff16905086565b600060019054906101000a900460ff1680613cea5750613ce96153c5565b5b80613d00575060008054906101000a900460ff16155b613d55576040517f08c379a000000000000000000000000000000000000000000000000000000000815260040180806020018281038252602e8152602001806158cd602e913960400191505060405180910390fd5b60008060019054906101000a900460ff161590508015613da5576001600060016101000a81548160ff02191690831515021790555060016000806101000a81548160ff0219169083151502179055505b33601160006101000a81548173ffffffffffffffffffffffffffffffffffffffff021916908373ffffffffffffffffffffffffffffffffffffffff1602179055508015613e075760008060016101000a81548160ff0219169083151502179055505b50565b60095481565b600060029054906101000a900473ffffffffffffffffffffffffffffffffffffffff1673ffffffffffffffffffffffffffffffffffffffff163373ffffffffffffffffffffffffffffffffffffffff1614613ed3576040517f08c379a000000000000000000000000000000000000000000000000000000000815260040180806020018281038252600a8152602001807f6f776e6572206f6e6c790000000000000000000000000000000000000000000081525060200191505060405180910390fd5b8360038190555082600481905550816005819055508060068190555050505050565b600060029054906101000a900473ffffffffffffffffffffffffffffffffffffffff1673ffffffffffffffffffffffffffffffffffffffff163373ffffffffffffffffffffffffffffffffffffffff1614613fb8576040517f08c379a000000000000000000000000000000000000000000000000000000000815260040180806020018281038252600a8152602001807f6f776e6572206f6e6c790000000000000000000000000000000000000000000081525060200191505060405180910390fd5b80601660006101000a81548173ffffffffffffffffffffffffffffffffffffffff021916908373ffffffffffffffffffffffffffffffffffffffff16021790555080601760006101000a81548173ffffffffffffffffffffffffffffffffffffffff021916908373ffffffffffffffffffffffffffffffffffffffff16021790555080601560006101000a81548173ffffffffffffffffffffffffffffffffffffffff021916908373ffffffffffffffffffffffffffffffffffffffff16021790555050565b60006014600083815260200190815260200160002060040160019054906101000a900460ff169050919050565b600e5481565b600060019054906101000a900460ff16806140d057506140cf6153c5565b5b806140e6575060008054906101000a900460ff16155b61413b576040517f08c379a000000000000000000000000000000000000000000000000000000000815260040180806020018281038252602e8152602001806158cd602e913960400191505060405180910390fd5b60008060019054906101000a900460ff16159050801561418b576001600060016101000a81548160ff02191690831515021790555060016000806101000a81548160ff0219169083151502179055505b614193613ccb565b61419b613718565b80156141bc5760008060016101000a81548160ff0219169083151502179055505b50565b60055481565b60045481565b600060029054906101000a900473ffffffffffffffffffffffffffffffffffffffff1673ffffffffffffffffffffffffffffffffffffffff163373ffffffffffffffffffffffffffffffffffffffff161461428e576040517f08c379a000000000000000000000000000000000000000000000000000000000815260040180806020018281038252600a8152602001807f6f776e6572206f6e6c790000000000000000000000000000000000000000000081525060200191505060405180910390fd5b600080600080601560009054906101000a900473ffffffffffffffffffffffffffffffffffffffff1673ffffffffffffffffffffffffffffffffffffffff1663a96c2aea866040518263ffffffff1660e01b81526004018082815260200191505060206040518083038186803b15801561430757600080fd5b505afa15801561431b573d6000803e3d6000fd5b505050506040513d602081101561433157600080fd5b8101908080519060200190929190505050905060005b818110156146505784601560009054906101000a900473ffffffffffffffffffffffffffffffffffffffff1673ffffffffffffffffffffffffffffffffffffffff166323c8778e88846040518363ffffffff1660e01b8152600401808381526020018281526020019250505060206040518083038186803b1580156143cb57600080fd5b505afa1580156143df573d6000803e3d6000fd5b505050506040513d60208110156143f557600080fd5b810190808051906020019092919050505011156144cc57601560009054906101000a900473ffffffffffffffffffffffffffffffffffffffff1673ffffffffffffffffffffffffffffffffffffffff166323c8778e87836040518363ffffffff1660e01b8152600401808381526020018281526020019250505060206040518083038186803b15801561448757600080fd5b505afa15801561449b573d6000803e3d6000fd5b505050506040513d60208110156144b157600080fd5b81019080805190602001909291905050509450809250614643565b84601560009054906101000a900473ffffffffffffffffffffffffffffffffffffffff1673ffffffffffffffffffffffffffffffffffffffff166323c8778e88846040518363ffffffff1660e01b8152600401808381526020018281526020019250505060206040518083038186803b15801561454857600080fd5b505afa15801561455c573d6000803e3d6000fd5b505050506040513d602081101561457257600080fd5b8101908080519060200190929190505050141561464257601560009054906101000a900473ffffffffffffffffffffffffffffffffffffffff1673ffffffffffffffffffffffffffffffffffffffff166323c8778e87836040518363ffffffff1660e01b8152600401808381526020018281526020019250505060206040518083038186803b15801561460457600080fd5b505afa158015614618573d6000803e3d6000fd5b505050506040513d602081101561462e57600080fd5b810190808051906020019092919050505093505b5b8080600101915050614347565b50838314156146cc5760016014600087815260200190815260200160002060040160006101000a81548160ff0219169083151502179055506146c7856040518060400160405280600f81526020017f6475706c696361742065787065727400000000000000000000000000000000008152506147e4565b6146f2565b8160146000878152602001908152602001600020600101819055506146f182866153ed565b5b5050505050565b600f5481565b600060029054906101000a900473ffffffffffffffffffffffffffffffffffffffff1673ffffffffffffffffffffffffffffffffffffffff163373ffffffffffffffffffffffffffffffffffffffff16146147c2576040517f08c379a000000000000000000000000000000000000000000000000000000000815260040180806020018281038252600a8152602001807f6f776e6572206f6e6c790000000000000000000000000000000000000000000081525060200191505060405180910390fd5b83600b8190555082600c8190555081600d8190555080600e8190555050505050565b60005b601560009054906101000a900473ffffffffffffffffffffffffffffffffffffffff1673ffffffffffffffffffffffffffffffffffffffff1663a96c2aea846040518263ffffffff1660e01b81526004018082815260200191505060206040518083038186803b15801561485a57600080fd5b505afa15801561486e573d6000803e3d6000fd5b505050506040513d602081101561488457600080fd5b8101908080519060200190929190505050811015614c315760005b601560009054906101000a900473ffffffffffffffffffffffffffffffffffffffff1673ffffffffffffffffffffffffffffffffffffffff166371aee94585846040518363ffffffff1660e01b8152600401808381526020018281526020019250505060206040518083038186803b15801561491a57600080fd5b505afa15801561492e573d6000803e3d6000fd5b505050506040513d602081101561494457600080fd5b8101908080519060200190929190505050811015614c2357601660009054906101000a900473ffffffffffffffffffffffffffffffffffffffff1673ffffffffffffffffffffffffffffffffffffffff1663c4076876601560009054906101000a900473ffffffffffffffffffffffffffffffffffffffff1673ffffffffffffffffffffffffffffffffffffffff16637c997f678786866040518463ffffffff1660e01b815260040180848152602001838152602001828152602001935050505060206040518083038186803b158015614a1d57600080fd5b505afa158015614a31573d6000803e3d6000fd5b505050506040513d6020811015614a4757600080fd5b8101908080519060200190929190505050601560009054906101000a900473ffffffffffffffffffffffffffffffffffffffff1673ffffffffffffffffffffffffffffffffffffffff1663859f0f6a8887876040518463ffffffff1660e01b815260040180848152602001838152602001828152602001935050505060206040518083038186803b158015614adb57600080fd5b505afa158015614aef573d6000803e3d6000fd5b505050506040513d6020811015614b0557600080fd5b81019080805190602001909291905050506040518363ffffffff1660e01b8152600401808373ffffffffffffffffffffffffffffffffffffffff16815260200182815260200192505050602060405180830381600087803b158015614b6957600080fd5b505af1158015614b7d573d6000803e3d6000fd5b505050506040513d6020811015614b9357600080fd5b8101908080519060200190929190505050614c16576040517f08c379a000000000000000000000000000000000000000000000000000000000815260040180806020018281038252600a8152602001807f726576657274206265740000000000000000000000000000000000000000000081525060200191505060405180910390fd5b808060010191505061489f565b5080806001019150506147e7565b506000601560009054906101000a900473ffffffffffffffffffffffffffffffffffffffff1673ffffffffffffffffffffffffffffffffffffffff166380559173846040518263ffffffff1660e01b81526004018082815260200191505060206040518083038186803b158015614ca757600080fd5b505afa158015614cbb573d6000803e3d6000fd5b505050506040513d6020811015614cd157600080fd5b810190808051906020019092919050505090506000811115614edb57601660009054906101000a900473ffffffffffffffffffffffffffffffffffffffff1673ffffffffffffffffffffffffffffffffffffffff1663c4076876601560009054906101000a900473ffffffffffffffffffffffffffffffffffffffff1673ffffffffffffffffffffffffffffffffffffffff1663f438835c866040518263ffffffff1660e01b81526004018082815260200191505060206040518083038186803b158015614d9e57600080fd5b505afa158015614db2573d6000803e3d6000fd5b505050506040513d6020811015614dc857600080fd5b8101908080519060200190929190505050836040518363ffffffff1660e01b8152600401808373ffffffffffffffffffffffffffffffffffffffff16815260200182815260200192505050602060405180830381600087803b158015614e2d57600080fd5b505af1158015614e41573d6000803e3d6000fd5b505050506040513d6020811015614e5757600080fd5b8101908080519060200190929190505050614eda576040517f08c379a000000000000000000000000000000000000000000000000000000000815260040180806020018281038252600e8152602001807f726576657274207072656d69756d00000000000000000000000000000000000081525060200191505060405180910390fd5b5b60016014600085815260200190815260200160002060040160006101000a81548160ff0219169083151502179055507f847521552ad126e64c52b14640c804737bd67f2b6674309b332d1e5b17f857d183836040518083815260200180602001828103825283818151815260200191508051906020019080838360005b83811015614f73578082015181840152602081019050614f58565b50505050905090810190601f168015614fa05780820380516001836020036101000a031916815260200191505b50935050505060405180910390a1505050565b6000806000905060005b601560009054906101000a900473ffffffffffffffffffffffffffffffffffffffff1673ffffffffffffffffffffffffffffffffffffffff166323c8778e86866040518363ffffffff1660e01b8152600401808381526020018281526020019250505060206040518083038186803b15801561503857600080fd5b505afa15801561504c573d6000803e3d6000fd5b505050506040513d602081101561506257600080fd5b8101908080519060200190929190505050811015615212576000601560009054906101000a900473ffffffffffffffffffffffffffffffffffffffff1673ffffffffffffffffffffffffffffffffffffffff16630569ae998787856040518463ffffffff1660e01b815260040180848152602001838152602001828152602001935050505060206040518083038186803b1580156150ff57600080fd5b505afa158015615113573d6000803e3d6000fd5b505050506040513d602081101561512957600080fd5b810190808051906020019092919050505012615205576001601560009054906101000a900473ffffffffffffffffffffffffffffffffffffffff1673ffffffffffffffffffffffffffffffffffffffff16630569ae998787856040518463ffffffff1660e01b815260040180848152602001838152602001828152602001935050505060206040518083038186803b1580156151c457600080fd5b505afa1580156151d8573d6000803e3d6000fd5b505050506040513d60208110156151ee57600080fd5b810190808051906020019092919050505001820191505b8080600101915050614fbd565b508091505092915050565b6000806152426014600089815260200190815260200160002060020154878686615895565b90506000601560009054906101000a900473ffffffffffffffffffffffffffffffffffffffff1673ffffffffffffffffffffffffffffffffffffffff166380559173896040518263ffffffff1660e01b81526004018082815260200191505060206040518083038186803b1580156152b957600080fd5b505afa1580156152cd573d6000803e3d6000fd5b505050506040513d60208110156152e357600080fd5b810190808051906020019092919050505011156153b8576153b3601560009054906101000a900473ffffffffffffffffffffffffffffffffffffffff1673ffffffffffffffffffffffffffffffffffffffff166380559173896040518263ffffffff1660e01b81526004018082815260200191505060206040518083038186803b15801561537057600080fd5b505afa158015615384573d6000803e3d6000fd5b505050506040513d602081101561539a57600080fd5b8101908080519060200190929190505050868686615895565b810190505b8091505095945050505050565b60006153d0306158b9565b15905090565b60008160648402816153e457fe5b04905092915050565b600080600090505b601560009054906101000a900473ffffffffffffffffffffffffffffffffffffffff1673ffffffffffffffffffffffffffffffffffffffff166371aee94584866040518363ffffffff1660e01b8152600401808381526020018281526020019250505060206040518083038186803b15801561547057600080fd5b505afa158015615484573d6000803e3d6000fd5b505050506040513d602081101561549a57600080fd5b810190808051906020019092919050505081101561558157601560009054906101000a900473ffffffffffffffffffffffffffffffffffffffff1673ffffffffffffffffffffffffffffffffffffffff1663859f0f6a8486846040518463ffffffff1660e01b815260040180848152602001838152602001828152602001935050505060206040518083038186803b15801561553557600080fd5b505afa158015615549573d6000803e3d6000fd5b505050506040513d602081101561555f57600080fd5b81019080805190602001909291905050508201915080806001019150506153f5565b50600081601560009054906101000a900473ffffffffffffffffffffffffffffffffffffffff1673ffffffffffffffffffffffffffffffffffffffff166330286c37856040518263ffffffff1660e01b81526004018082815260200191505060206040518083038186803b1580156155f857600080fd5b505afa15801561560c573d6000803e3d6000fd5b505050506040513d602081101561562257600080fd5b81019080805190602001909291905050500390506000811180156156465750600082115b1561584f5780601460008581526020019081526020016000206002018190555060006157e5601660009054906101000a900473ffffffffffffffffffffffffffffffffffffffff1673ffffffffffffffffffffffffffffffffffffffff16636e25fb856040518163ffffffff1660e01b815260040160206040518083038186803b1580156156d357600080fd5b505afa1580156156e7573d6000803e3d6000fd5b505050506040513d60208110156156fd57600080fd5b810190808051906020019092919050505085601560009054906101000a900473ffffffffffffffffffffffffffffffffffffffff16601660009054906101000a900473ffffffffffffffffffffffffffffffffffffffff1673ffffffffffffffffffffffffffffffffffffffff1663fe4c58c5896040518263ffffffff1660e01b81526004018082815260200191505060206040518083038186803b1580156157a557600080fd5b505afa1580156157b9573d6000803e3d6000fd5b505050506040513d60208110156157cf57600080fd5b810190808051906020019092919050505061385d565b90508060146000868152602001908152602001600020600301819055507f379c6b224a7fe6850c58f9de93dac19c04862dd67059a1948f1f9d70a1fe0f9f84828760405180848152602001838152602001828152602001935050505060405180910390a15061588f565b61588e836040518060400160405280601581526020017f706c61792063686f7365206f6e6520616e73776572000000000000000000000081525061288c565b5b50505050565b600081600184016158a68787612790565b02816158ae57fe5b049050949350505050565b600080823b90506000811191505091905056fe496e697469616c697a61626c653a20636f6e747261637420697320616c726561647920696e697469616c697a6564a26469706673582212209c61ca20866b23bf63dbc749861f2e7ab325fdb82727c5f921fda93bdaecc43e64736f6c63430007060033",
  "immutableReferences": {},
  "source": "// SPDX-License-Identifier: MIT\npragma solidity >=0.4.22 <0.9.0;\nimport {PubStruct} from \"../../struct/PubStruct.sol\";\nimport {PublicEvents} from \"./PublicEvents.sol\";\nimport {MPStruct} from \"../../struct/MPStruct.sol\";\nimport {Libs} from \"./Libs.sol\";\nimport {MPConfig} from \"../../config/MPConfig.sol\";\n\ncontract MiddlePayment is Libs, MPConfig, MPStruct {\n    PubStruct eventsData;\n    PublicEvents PublicAddr;\n    address pubAddr;\n\n    event payToCompanies(int id, uint tokens, uint correctAnswer);\n    event payToHost(int id, uint premDF, uint mintDF, uint mintCMF, uint mintMF);\n    event payToExperts(int id, uint mintHost, uint payHost, uint mintAdv, uint payAdv);\n    event payToPlayers(int id, uint expertPercMint, uint percent, uint expertPremiumPerc );\n    event revertedEvent(int id, string purpose);\n\n    function __MiddlePaymentInit() public initializer {\n        __MPStructInit();\n        __MPConfig();\n    }\n\n    function setAddr(PublicEvents _addr) public {\n        require(msg.sender == owner, \"owner only\");\n        PublicAddr = _addr;\n        pubAddr = address(_addr);\n        eventsData = PubStruct(_addr);\n    }\n\n    function letsFindCorrectAnswer(int _id) public {\n        require(msg.sender == owner, \"owner only\");\n        uint bigValue = 0;\n        uint candDub = 0;\n        uint correctAnswer;\n        uint questAmount = eventsData.getQuestAmount(_id);\n\n        // find correct answer\n        for (uint i = 0; i < questAmount; i++) {\n            if (eventsData.getExpertAmount(_id, i) > bigValue) {\n                bigValue = eventsData.getExpertAmount(_id, i);\n                correctAnswer = i;\n            } else if (eventsData.getExpertAmount(_id, i) == bigValue) {\n                candDub = eventsData.getExpertAmount(_id, i);\n            }\n        }\n\n        if (candDub == bigValue) {\n            MPData[_id].reverted = true;\n            revertPayment(_id, \"duplicat expert\");\n        } else {\n            MPData[_id].correctAnswer = correctAnswer;\n            findLosersPool(correctAnswer, _id);\n        }\n    }\n\n    function findLosersPool(uint correctAnswer, int _id) private {\n        uint B;\n        for (uint i = 0; i < eventsData.getPlayerAmount(_id, correctAnswer); i++) {\n            B = B + eventsData.getPlayerTokens(_id, correctAnswer, i);\n        }\n        \n        uint lP = eventsData.getPool(_id) - B;\n        if (lP > 0 && B > 0) {\n             MPData[_id].loserPool = lP;\n            // calculate minted tokens\n            uint tokens =\n                calcMintedTokens(\n                    PublicAddr.getGF(),\n                    _id,\n                    eventsData,\n                    PublicAddr.canMint(_id)\n                );\n                \n            MPData[_id].tokenMinted = tokens;\n            emit payToCompanies(_id, tokens, correctAnswer);\n        } else {\n            revertedPayment(_id, \"play chose one answer\");\n        }\n    }\n\n    function revertedPayment(int _id, string memory purpose)\n        public\n    {\n        require(msg.sender == owner || msg.sender == pubAddr, \"owner only or pub addr only\");\n        revertPayment(_id, purpose);\n    }\n\n    function revertPayment(int _id, string memory purpose) private {\n        for (uint i = 0; i < eventsData.getQuestAmount(_id); i++) {\n            for (uint z = 0; z < eventsData.getPlayerAmount(_id, i); z++) {\n                require(\n                    PublicAddr.pay(eventsData.getPlayerWallet(_id, i, z), eventsData.getPlayerTokens(_id, i, z)),\n                    \"revert bet\"\n                );\n            }\n        }\n        uint premiumAmount = eventsData.getPremiumAmount(_id);\n        if(premiumAmount > 0){\n            require(\n                PublicAddr.pay(eventsData.getHostAddr(_id), premiumAmount),\n                \"revert premium\"\n            );\n        }\n        MPData[_id].reverted = true;\n        emit revertedEvent(_id, purpose);\n    }\n\n    function letsPayToCompanies(int _id) public {\n        require(msg.sender == owner, \"owner only\");\n        uint premDF = 0;\n        uint mintDF = 0; \n        uint mintCMF = 0;\n        uint mintMF = 0;\n        if(PublicAddr.canMint(_id)){\n            // pay to Development Fund\n            mintDF = getPercent(MPData[_id].tokenMinted, developFundPerc);\n            require( PublicAddr.mint(owner, mintDF), \"mint development fund\" );\n            // pay to Community Marketing Fund\n            uint percentCMF = eventsData.getAdvisorAddr(_id) != address(0)\n                    ? comMarketFundPerc\n                    : comMarketFundPerc + extraHostPercMint + advisorPercMint;\n            mintCMF = getPercent(MPData[_id].tokenMinted, percentCMF);         \n            require(\n                PublicAddr.mint(comMarketFundWallet, mintCMF),\n                \"mint community marketing fund\"\n            );\n    \n            mintMF = getPercent(MPData[_id].tokenMinted, moderatorsFundPerc);\n            // pay to Moderators Fund\n            require(\n                PublicAddr.mint(moderatorsFundWallet, mintMF),\n                \"mint moderators fund\"\n            );\n        }\n\n        if (eventsData.getPremiumAmount(_id) > 0) {\n            premDF = getPercent(eventsData.getPremiumAmount(_id), developFundPercPremim );\n            require(                \n                PublicAddr.pay(owner, premDF),\n                \"premium pay development fund\"\n            );\n        }\n\n        emit payToHost(_id, premDF, mintDF, mintCMF, mintMF);\n    }\n\n    function letsPaytoHost(int _id) public {\n        require(msg.sender == owner, \"owner only\");\n        uint mintHost = 0;\n        uint payHost = 0;\n        uint mintAdv = 0;\n        uint payAdv = 0;\n        if (eventsData.getAdvisorAddr(_id) != address(0)) {\n            if(PublicAddr.canMint(_id)){\n                // pay minted tokens\n                mintHost = getPercent( MPData[_id].tokenMinted, hostPercMint + extraHostPercMint);\n                require(\n                    PublicAddr.mint(eventsData.getHostAddr(_id), mintHost),\n                    \"mint host with advisor\"\n                );\n                mintAdv = getPercent(MPData[_id].tokenMinted, advisorPercMint);\n                require(\n                    PublicAddr.mint(eventsData.getAdvisorAddr(_id), mintAdv),\n                    \"mint to advisor\"\n                );\n            }\n            // pay tokens\n            payHost = getPercent(MPData[_id].loserPool, hostPerc + extraHostPerc);\n            require(\n                PublicAddr.pay(eventsData.getHostAddr(_id), payHost),\n                \"pay to host with advisor\"\n            );\n            payAdv = getPercent(MPData[_id].loserPool, advisorPepc);\n            require(\n                PublicAddr.pay(eventsData.getAdvisorAddr(_id), payAdv),\n                \"pay to advisor\"\n            );\n        } else {\n            if(PublicAddr.canMint(_id)){\n                // mint to host\n                mintHost = getPercent(MPData[_id].tokenMinted, hostPercMint);\n                require(\n                    PublicAddr.mint(eventsData.getHostAddr(_id), mintHost),\n                    \"mint to host\"\n                );\n            }\n            payHost = getPercent(MPData[_id].loserPool, hostPerc);\n            // pay to host\n            require(\n                PublicAddr.pay(eventsData.getHostAddr(_id), payHost),\n                \"pay to host\"\n            );\n        }\n        emit payToExperts(_id, mintHost, payHost, mintAdv, payAdv);\n    }\n\n    function letsPayToExperts(int _id) public {\n        require(msg.sender == owner, \"owner only\");\n        uint percent = eventsData.getAdvisorAddr(_id) != address(0)\n                ? expertPerc\n                : expertPerc + expertExtraPerc;\n        uint correctAnswer = MPData[_id].correctAnswer;\n        int allReputation = calcReput(_id, correctAnswer);\n\n        if(allReputation > 0){\n            for (uint i = 0; i < eventsData.getExpertAmount(_id, correctAnswer); i++ ) {\n                int reputation = eventsData.getExpertReput(_id, correctAnswer, i);\n                if (reputation >= 0) {\n                    address payable expertWallet = eventsData.getExpertWallet(_id, correctAnswer, i);\n                    if(PublicAddr.canMint(_id)){\n                        // mint tokens\n                        uint amountMint = (getPercent(MPData[_id].tokenMinted, expertPercMint) * (uint(reputation) + 1)) / uint(allReputation);\n                        require(PublicAddr.mint(expertWallet, amountMint), \"mint exp\");\n                    }\n                    // pay tokens\n                    require(PublicAddr.pay(expertWallet, calcPay(_id, percent, expertPremiumPerc, reputation, allReputation)), \"pay exp\");\n                }\n            }\n        }else{\n            require(\n                PublicAddr.pay(comMarketFundWallet, getPercent(MPData[_id].loserPool, percent)),\n                \"mint community marketing fund\"\n            );\n        }\n        emit payToPlayers(_id, expertPercMint, percent, expertPremiumPerc);\n    }\n    \n    function calcReput(int _id, uint correctAnswer) private view returns(int) { \n        int allReputation = 0;\n        for ( uint i = 0; i < eventsData.getExpertAmount(_id, correctAnswer); i++ ) {\n            if ( eventsData.getExpertReput(_id, correctAnswer, i) >= 0 ) {\n                allReputation = allReputation + (eventsData.getExpertReput(_id, correctAnswer, i) + 1);\n            }\n        }\n        return allReputation;\n    }\n\n    function calcPay(int _id, uint percent, uint expertPremiumPerc, int reputation, int allReputation) private view returns(uint){\n        uint amount = expertFormula(MPData[_id].loserPool, percent, reputation, allReputation);\n        if(eventsData.getPremiumAmount(_id) > 0){\n            amount = amount + (expertFormula(eventsData.getPremiumAmount(_id), expertPremiumPerc, reputation, allReputation));\n        }\n        return amount;\n    }\n\n    function expertFormula(uint from, uint percent, int reputation, int allReputation) private pure returns(uint){\n        return (getPercent(from, percent) * (uint(reputation) + 1)) / uint(allReputation);\n    }\n}\n",
  "sourcePath": "/Users/macbook/Documents/freelance/tokenominc/contracts/matic/events/PublicEvents/MiddlePayment.sol",
  "compiler": {
    "name": "solc",
    "version": "0.7.6+commit.7338295f.Linux.g++"
  },
  "schemaVersion": "3.3.4",
  "updatedAt": "2021-04-07T13:40:43.508Z",
  "networkType": "ethereum",
  "devdoc": {
    "kind": "dev",
    "methods": {},
    "version": 1
  },
  "userdoc": {
    "kind": "user",
    "methods": {},
    "version": 1
  }
}