{
  "contractName": "PlayerPayment",
  "abi": [
    {
      "anonymous": false,
      "inputs": [
        {
          "indexed": false,
          "internalType": "int256",
          "name": "id",
          "type": "int256"
        },
        {
          "indexed": false,
          "internalType": "uint256",
          "name": "avarageBet",
          "type": "uint256"
        },
        {
          "indexed": false,
          "internalType": "uint256",
          "name": "calcMintedToken",
          "type": "uint256"
        },
        {
          "indexed": false,
          "internalType": "uint256",
          "name": "winPool",
          "type": "uint256"
        },
        {
          "indexed": false,
          "internalType": "uint256",
          "name": "avarageBetWin",
          "type": "uint256"
        },
        {
          "indexed": false,
          "internalType": "uint256",
          "name": "premimWin",
          "type": "uint256"
        }
      ],
      "name": "eventFinish",
      "type": "event"
    },
    {
      "anonymous": false,
      "inputs": [
        {
          "indexed": false,
          "internalType": "int256",
          "name": "id",
          "type": "int256"
        }
      ],
      "name": "eventMintedFinish",
      "type": "event"
    },
    {
      "anonymous": false,
      "inputs": [
        {
          "indexed": false,
          "internalType": "int256",
          "name": "id",
          "type": "int256"
        },
        {
          "indexed": false,
          "internalType": "uint256",
          "name": "avarageBet",
          "type": "uint256"
        },
        {
          "indexed": false,
          "internalType": "uint256",
          "name": "calcMintedToken",
          "type": "uint256"
        },
        {
          "indexed": false,
          "internalType": "uint256",
          "name": "winPool",
          "type": "uint256"
        },
        {
          "indexed": false,
          "internalType": "uint256",
          "name": "avarageBetWin",
          "type": "uint256"
        },
        {
          "indexed": false,
          "internalType": "uint256",
          "name": "premimWin",
          "type": "uint256"
        }
      ],
      "name": "payToLosers",
      "type": "event"
    },
    {
      "anonymous": false,
      "inputs": [
        {
          "indexed": false,
          "internalType": "int256",
          "name": "id",
          "type": "int256"
        }
      ],
      "name": "payToRefferers",
      "type": "event"
    },
    {
      "inputs": [
        {
          "internalType": "uint256",
          "name": "_playersPersMint",
          "type": "uint256"
        },
        {
          "internalType": "uint256",
          "name": "_playersPers",
          "type": "uint256"
        },
        {
          "internalType": "uint256",
          "name": "_playersPersPremiun",
          "type": "uint256"
        },
        {
          "internalType": "uint256",
          "name": "_firstRefer",
          "type": "uint256"
        },
        {
          "internalType": "uint256",
          "name": "_secontRefer",
          "type": "uint256"
        },
        {
          "internalType": "uint256",
          "name": "_thirdRefer",
          "type": "uint256"
        },
        {
          "internalType": "address",
          "name": "_fakeAddr",
          "type": "address"
        }
      ],
      "name": "__PPConfigInit",
      "outputs": [],
      "stateMutability": "nonpayable",
      "type": "function"
    },
    {
      "inputs": [
        {
          "internalType": "uint256",
          "name": "_GFindex",
          "type": "uint256"
        },
        {
          "internalType": "int256",
          "name": "_id",
          "type": "int256"
        },
        {
          "internalType": "contract PubStruct",
          "name": "eventsData",
          "type": "address"
        },
        {
          "internalType": "bool",
          "name": "minted",
          "type": "bool"
        }
      ],
      "name": "calcMintedTokens",
      "outputs": [
        {
          "internalType": "uint256",
          "name": "",
          "type": "uint256"
        }
      ],
      "stateMutability": "view",
      "type": "function",
      "constant": true
    },
    {
      "inputs": [],
      "name": "fakeAddr",
      "outputs": [
        {
          "internalType": "address",
          "name": "",
          "type": "address"
        }
      ],
      "stateMutability": "view",
      "type": "function",
      "constant": true
    },
    {
      "inputs": [],
      "name": "firstRefer",
      "outputs": [
        {
          "internalType": "uint256",
          "name": "",
          "type": "uint256"
        }
      ],
      "stateMutability": "view",
      "type": "function",
      "constant": true
    },
    {
      "inputs": [
        {
          "internalType": "uint256",
          "name": "_percent",
          "type": "uint256"
        },
        {
          "internalType": "uint256",
          "name": "_from",
          "type": "uint256"
        }
      ],
      "name": "getPercent",
      "outputs": [
        {
          "internalType": "uint256",
          "name": "",
          "type": "uint256"
        }
      ],
      "stateMutability": "pure",
      "type": "function",
      "constant": true
    },
    {
      "inputs": [],
      "name": "playersPers",
      "outputs": [
        {
          "internalType": "uint256",
          "name": "",
          "type": "uint256"
        }
      ],
      "stateMutability": "view",
      "type": "function",
      "constant": true
    },
    {
      "inputs": [],
      "name": "playersPersMint",
      "outputs": [
        {
          "internalType": "uint256",
          "name": "",
          "type": "uint256"
        }
      ],
      "stateMutability": "view",
      "type": "function",
      "constant": true
    },
    {
      "inputs": [],
      "name": "playersPersPremiun",
      "outputs": [
        {
          "internalType": "uint256",
          "name": "",
          "type": "uint256"
        }
      ],
      "stateMutability": "view",
      "type": "function",
      "constant": true
    },
    {
      "inputs": [],
      "name": "secontRefer",
      "outputs": [
        {
          "internalType": "uint256",
          "name": "",
          "type": "uint256"
        }
      ],
      "stateMutability": "view",
      "type": "function",
      "constant": true
    },
    {
      "inputs": [
        {
          "internalType": "address",
          "name": "_fake",
          "type": "address"
        }
      ],
      "name": "setFakeAddr",
      "outputs": [],
      "stateMutability": "nonpayable",
      "type": "function"
    },
    {
      "inputs": [
        {
          "internalType": "uint256",
          "name": "_playersPersMint",
          "type": "uint256"
        },
        {
          "internalType": "uint256",
          "name": "_playersPers",
          "type": "uint256"
        },
        {
          "internalType": "uint256",
          "name": "_playersPersPremiun",
          "type": "uint256"
        }
      ],
      "name": "setPlayerPercMint",
      "outputs": [],
      "stateMutability": "nonpayable",
      "type": "function"
    },
    {
      "inputs": [
        {
          "internalType": "uint256",
          "name": "_firstRefer",
          "type": "uint256"
        },
        {
          "internalType": "uint256",
          "name": "_secontRefer",
          "type": "uint256"
        },
        {
          "internalType": "uint256",
          "name": "_thirdRefer",
          "type": "uint256"
        }
      ],
      "name": "setReferrersPerc",
      "outputs": [],
      "stateMutability": "nonpayable",
      "type": "function"
    },
    {
      "inputs": [],
      "name": "thirdRefer",
      "outputs": [
        {
          "internalType": "uint256",
          "name": "",
          "type": "uint256"
        }
      ],
      "stateMutability": "view",
      "type": "function",
      "constant": true
    },
    {
      "inputs": [
        {
          "internalType": "uint256",
          "name": "_playersPersMint",
          "type": "uint256"
        },
        {
          "internalType": "uint256",
          "name": "_playersPers",
          "type": "uint256"
        },
        {
          "internalType": "uint256",
          "name": "_playersPersPremiun",
          "type": "uint256"
        },
        {
          "internalType": "uint256",
          "name": "_firstRefer",
          "type": "uint256"
        },
        {
          "internalType": "uint256",
          "name": "_secontRefer",
          "type": "uint256"
        },
        {
          "internalType": "uint256",
          "name": "_thirdRefer",
          "type": "uint256"
        },
        {
          "internalType": "address",
          "name": "_fakeAddr",
          "type": "address"
        }
      ],
      "name": "__PlayerPaymentInit",
      "outputs": [],
      "stateMutability": "nonpayable",
      "type": "function"
    },
    {
      "inputs": [
        {
          "internalType": "contract PublicEvents",
          "name": "_addr",
          "type": "address"
        },
        {
          "internalType": "address",
          "name": "_mpAddr",
          "type": "address"
        }
      ],
      "name": "setAddr",
      "outputs": [],
      "stateMutability": "nonpayable",
      "type": "function"
    },
    {
      "inputs": [
        {
          "internalType": "int256",
          "name": "_id",
          "type": "int256"
        }
      ],
      "name": "letsPayToPlayers",
      "outputs": [],
      "stateMutability": "nonpayable",
      "type": "function"
    },
    {
      "inputs": [
        {
          "internalType": "int256",
          "name": "_id",
          "type": "int256"
        },
        {
          "internalType": "uint256",
          "name": "_avarageBet",
          "type": "uint256"
        },
        {
          "internalType": "uint256",
          "name": "_calcMintedToken",
          "type": "uint256"
        }
      ],
      "name": "letsPayToLoosers",
      "outputs": [],
      "stateMutability": "nonpayable",
      "type": "function"
    },
    {
      "inputs": [
        {
          "internalType": "int256",
          "name": "_id",
          "type": "int256"
        },
        {
          "internalType": "address payable[]",
          "name": "_ref1",
          "type": "address[]"
        },
        {
          "internalType": "uint256[]",
          "name": "_amount1",
          "type": "uint256[]"
        },
        {
          "internalType": "address payable[]",
          "name": "_ref2",
          "type": "address[]"
        },
        {
          "internalType": "uint256[]",
          "name": "_amount2",
          "type": "uint256[]"
        },
        {
          "internalType": "address payable[]",
          "name": "_ref3",
          "type": "address[]"
        },
        {
          "internalType": "uint256[]",
          "name": "_amount3",
          "type": "uint256[]"
        },
        {
          "internalType": "uint256",
          "name": "_amount",
          "type": "uint256"
        }
      ],
      "name": "payToReff",
      "outputs": [],
      "stateMutability": "nonpayable",
      "type": "function"
    }
  ],
  "bytecode": "0x608060405234801561001057600080fd5b50613729806100206000396000f3fe608060405234801561001057600080fd5b50600436106101165760003560e01c806372d6417a116100a2578063ba1c675211610071578063ba1c6752146103e9578063bd17ea4814610461578063d114b77d1461047f578063de6fe10814610830578063ebcb00e0146108b057610116565b806372d6417a1461034d57806373e258ac1461036b57806379fdb1681461038957806393494baa146103a757610116565b806345e2c742116100e957806345e2c742146101c7578063622198661461024757806366a08d9c1461029357806367e2a21b146102c757806372ca8e061461030957610116565b80630129f2781461011b578063134c3b071461014957806327e5371714610167578063431e89e114610185575b600080fd5b6101476004803603602081101561013157600080fd5b8101908080359060200190929190505050610914565b005b6101516110a1565b6040518082815260200191505060405180910390f35b61016f6110a7565b6040518082815260200191505060405180910390f35b6101c56004803603606081101561019b57600080fd5b810190808035906020019092919080359060200190929190803590602001909291905050506110ad565b005b610245600480360360e08110156101dd57600080fd5b81019080803590602001909291908035906020019092919080359060200190929190803590602001909291908035906020019092919080359060200190929190803573ffffffffffffffffffffffffffffffffffffffff16906020019092919050505061118a565b005b61027d6004803603604081101561025d57600080fd5b81019080803590602001909291908035906020019092919050505061129e565b6040518082815260200191505060405180910390f35b61029b6112b5565b604051808273ffffffffffffffffffffffffffffffffffffffff16815260200191505060405180910390f35b610307600480360360608110156102dd57600080fd5b810190808035906020019092919080359060200190929190803590602001909291905050506112db565b005b61034b6004803603602081101561031f57600080fd5b81019080803573ffffffffffffffffffffffffffffffffffffffff169060200190929190505050611a61565b005b610355611b68565b6040518082815260200191505060405180910390f35b610373611b6e565b6040518082815260200191505060405180910390f35b610391611b74565b6040518082815260200191505060405180910390f35b6103e7600480360360608110156103bd57600080fd5b81019080803590602001909291908035906020019092919080359060200190929190505050611b7a565b005b61044b600480360360808110156103ff57600080fd5b810190808035906020019092919080359060200190929190803573ffffffffffffffffffffffffffffffffffffffff169060200190929190803515159060200190929190505050611c57565b6040518082815260200191505060405180910390f35b61046961204f565b6040518082815260200191505060405180910390f35b61082e600480360361010081101561049657600080fd5b8101908080359060200190929190803590602001906401000000008111156104bd57600080fd5b8201836020820111156104cf57600080fd5b803590602001918460208302840111640100000000831117156104f157600080fd5b919080806020026020016040519081016040528093929190818152602001838360200280828437600081840152601f19601f8201169050808301925050505050505091929192908035906020019064010000000081111561055157600080fd5b82018360208201111561056357600080fd5b8035906020019184602083028401116401000000008311171561058557600080fd5b919080806020026020016040519081016040528093929190818152602001838360200280828437600081840152601f19601f820116905080830192505050505050509192919290803590602001906401000000008111156105e557600080fd5b8201836020820111156105f757600080fd5b8035906020019184602083028401116401000000008311171561061957600080fd5b919080806020026020016040519081016040528093929190818152602001838360200280828437600081840152601f19601f8201169050808301925050505050505091929192908035906020019064010000000081111561067957600080fd5b82018360208201111561068b57600080fd5b803590602001918460208302840111640100000000831117156106ad57600080fd5b919080806020026020016040519081016040528093929190818152602001838360200280828437600081840152601f19601f8201169050808301925050505050505091929192908035906020019064010000000081111561070d57600080fd5b82018360208201111561071f57600080fd5b8035906020019184602083028401116401000000008311171561074157600080fd5b919080806020026020016040519081016040528093929190818152602001838360200280828437600081840152601f19601f820116905080830192505050505050509192919290803590602001906401000000008111156107a157600080fd5b8201836020820111156107b357600080fd5b803590602001918460208302840111640100000000831117156107d557600080fd5b919080806020026020016040519081016040528093929190818152602001838360200280828437600081840152601f19601f82011690508083019250505050505050919291929080359060200190929190505050612055565b005b6108ae600480360360e081101561084657600080fd5b81019080803590602001909291908035906020019092919080359060200190929190803590602001909291908035906020019092919080359060200190929190803573ffffffffffffffffffffffffffffffffffffffff169060200190929190505050612910565b005b610912600480360360408110156108c657600080fd5b81019080803573ffffffffffffffffffffffffffffffffffffffff169060200190929190803573ffffffffffffffffffffffffffffffffffffffff169060200190929190505050612ac1565b005b600060029054906101000a900473ffffffffffffffffffffffffffffffffffffffff1673ffffffffffffffffffffffffffffffffffffffff163373ffffffffffffffffffffffffffffffffffffffff16146109d7576040517f08c379a000000000000000000000000000000000000000000000000000000000815260040180806020018281038252600a8152602001807f6f776e6572206f6e6c790000000000000000000000000000000000000000000081525060200191505060405180910390fd5b6000600960009054906101000a900473ffffffffffffffffffffffffffffffffffffffff1673ffffffffffffffffffffffffffffffffffffffff1663f946c207836040518263ffffffff1660e01b81526004018082815260200191505060206040518083038186803b158015610a4c57600080fd5b505afa158015610a60573d6000803e3d6000fd5b505050506040513d6020811015610a7657600080fd5b810190808051906020019092919050505090506000600960009054906101000a900473ffffffffffffffffffffffffffffffffffffffff1673ffffffffffffffffffffffffffffffffffffffff166371aee94584600860009054906101000a900473ffffffffffffffffffffffffffffffffffffffff1673ffffffffffffffffffffffffffffffffffffffff1663bc26b101876040518263ffffffff1660e01b81526004018082815260200191505060206040518083038186803b158015610b3d57600080fd5b505afa158015610b51573d6000803e3d6000fd5b505050506040513d6020811015610b6757600080fd5b81019080805190602001909291905050506040518363ffffffff1660e01b8152600401808381526020018281526020019250505060206040518083038186803b158015610bb357600080fd5b505afa158015610bc7573d6000803e3d6000fd5b505050506040513d6020811015610bdd57600080fd5b81019080805190602001909291905050509050600081610cac600254600860009054906101000a900473ffffffffffffffffffffffffffffffffffffffff1673ffffffffffffffffffffffffffffffffffffffff166305b442ee886040518263ffffffff1660e01b81526004018082815260200191505060206040518083038186803b158015610c6c57600080fd5b505afa158015610c80573d6000803e3d6000fd5b505050506040513d6020811015610c9657600080fd5b810190808051906020019092919050505061129e565b81610cb357fe5b0490506000610cc28584612c4b565b90506000805b84811015610e4c57600960009054906101000a900473ffffffffffffffffffffffffffffffffffffffff1673ffffffffffffffffffffffffffffffffffffffff1663859f0f6a88600860009054906101000a900473ffffffffffffffffffffffffffffffffffffffff1673ffffffffffffffffffffffffffffffffffffffff1663bc26b1018b6040518263ffffffff1660e01b81526004018082815260200191505060206040518083038186803b158015610d8257600080fd5b505afa158015610d96573d6000803e3d6000fd5b505050506040513d6020811015610dac57600080fd5b8101908080519060200190929190505050846040518463ffffffff1660e01b815260040180848152602001838152602001828152602001935050505060206040518083038186803b158015610e0057600080fd5b505afa158015610e14573d6000803e3d6000fd5b505050506040513d6020811015610e2a57600080fd5b8101908080519060200190929190505050820191508080600101915050610cc8565b50600080600a60009054906101000a900473ffffffffffffffffffffffffffffffffffffffff1673ffffffffffffffffffffffffffffffffffffffff1663fe4c58c5896040518263ffffffff1660e01b81526004018082815260200191505060206040518083038186803b158015610ec357600080fd5b505afa158015610ed7573d6000803e3d6000fd5b505050506040513d6020811015610eed57600080fd5b8101908080519060200190929190505050156110785786600960009054906101000a900473ffffffffffffffffffffffffffffffffffffffff1673ffffffffffffffffffffffffffffffffffffffff166330286c378a6040518263ffffffff1660e01b81526004018082815260200191505060206040518083038186803b158015610f7757600080fd5b505afa158015610f8b573d6000803e3d6000fd5b505050506040513d6020811015610fa157600080fd5b810190808051906020019092919050505081610fb957fe5b049150611075600154600860009054906101000a900473ffffffffffffffffffffffffffffffffffffffff1673ffffffffffffffffffffffffffffffffffffffff16632c7d577e8b6040518263ffffffff1660e01b81526004018082815260200191505060206040518083038186803b15801561103557600080fd5b505afa158015611049573d6000803e3d6000fd5b505050506040513d602081101561105f57600080fd5b810190808051906020019092919050505061129e565b90505b600086848161108357fe5b04905061109689888585858b8e8c612ddc565b505050505050505050565b60035481565b60025481565b600060029054906101000a900473ffffffffffffffffffffffffffffffffffffffff1673ffffffffffffffffffffffffffffffffffffffff163373ffffffffffffffffffffffffffffffffffffffff1614611170576040517f08c379a000000000000000000000000000000000000000000000000000000000815260040180806020018281038252600a8152602001807f6f776e6572206f6e6c790000000000000000000000000000000000000000000081525060200191505060405180910390fd5b826004819055508160058190555080600681905550505050565b600060019054906101000a900460ff16806111a957506111a86135a3565b5b806111bf575060008054906101000a900460ff16155b611214576040517f08c379a000000000000000000000000000000000000000000000000000000000815260040180806020018281038252602e8152602001806136c6602e913960400191505060405180910390fd5b60008060019054906101000a900460ff161590508015611264576001600060016101000a81548160ff02191690831515021790555060016000806101000a81548160ff0219169083151502179055505b61127388888888888888612910565b80156112945760008060016101000a81548160ff0219169083151502179055505b5050505050505050565b60006064828402816112ac57fe5b04905092915050565b600760009054906101000a900473ffffffffffffffffffffffffffffffffffffffff1681565b600060029054906101000a900473ffffffffffffffffffffffffffffffffffffffff1673ffffffffffffffffffffffffffffffffffffffff163373ffffffffffffffffffffffffffffffffffffffff161461139e576040517f08c379a000000000000000000000000000000000000000000000000000000000815260040180806020018281038252600a8152602001807f6f776e6572206f6e6c790000000000000000000000000000000000000000000081525060200191505060405180910390fd5b60005b600960009054906101000a900473ffffffffffffffffffffffffffffffffffffffff1673ffffffffffffffffffffffffffffffffffffffff1663a96c2aea856040518263ffffffff1660e01b81526004018082815260200191505060206040518083038186803b15801561141457600080fd5b505afa158015611428573d6000803e3d6000fd5b505050506040513d602081101561143e57600080fd5b8101908080519060200190929190505050811015611a245780600860009054906101000a900473ffffffffffffffffffffffffffffffffffffffff1673ffffffffffffffffffffffffffffffffffffffff1663bc26b101866040518263ffffffff1660e01b81526004018082815260200191505060206040518083038186803b1580156114ca57600080fd5b505afa1580156114de573d6000803e3d6000fd5b505050506040513d60208110156114f457600080fd5b8101908080519060200190929190505050141580156115c957506000600960009054906101000a900473ffffffffffffffffffffffffffffffffffffffff1673ffffffffffffffffffffffffffffffffffffffff166371aee94586846040518363ffffffff1660e01b8152600401808381526020018281526020019250505060206040518083038186803b15801561158b57600080fd5b505afa15801561159f573d6000803e3d6000fd5b505050506040513d60208110156115b557600080fd5b810190808051906020019092919050505014155b15611a175760005b600960009054906101000a900473ffffffffffffffffffffffffffffffffffffffff1673ffffffffffffffffffffffffffffffffffffffff166371aee94586846040518363ffffffff1660e01b8152600401808381526020018281526020019250505060206040518083038186803b15801561164c57600080fd5b505afa158015611660573d6000803e3d6000fd5b505050506040513d602081101561167657600080fd5b8101908080519060200190929190505050811015611a15576000600960009054906101000a900473ffffffffffffffffffffffffffffffffffffffff1673ffffffffffffffffffffffffffffffffffffffff1663f946c207876040518263ffffffff1660e01b81526004018082815260200191505060206040518083038186803b15801561170357600080fd5b505afa158015611717573d6000803e3d6000fd5b505050506040513d602081101561172d57600080fd5b81019080805190602001909291905050508502600960009054906101000a900473ffffffffffffffffffffffffffffffffffffffff1673ffffffffffffffffffffffffffffffffffffffff1663859f0f6a8886866040518463ffffffff1660e01b815260040180848152602001838152602001828152602001935050505060206040518083038186803b1580156117c357600080fd5b505afa1580156117d7573d6000803e3d6000fd5b505050506040513d60208110156117ed57600080fd5b810190808051906020019092919050505085028161180757fe5b049050600a60009054906101000a900473ffffffffffffffffffffffffffffffffffffffff1673ffffffffffffffffffffffffffffffffffffffff166340c10f19600960009054906101000a900473ffffffffffffffffffffffffffffffffffffffff1673ffffffffffffffffffffffffffffffffffffffff16637c997f678987876040518463ffffffff1660e01b815260040180848152602001838152602001828152602001935050505060206040518083038186803b1580156118cb57600080fd5b505afa1580156118df573d6000803e3d6000fd5b505050506040513d60208110156118f557600080fd5b8101908080519060200190929190505050836040518363ffffffff1660e01b8152600401808373ffffffffffffffffffffffffffffffffffffffff16815260200182815260200192505050602060405180830381600087803b15801561195a57600080fd5b505af115801561196e573d6000803e3d6000fd5b505050506040513d602081101561198457600080fd5b8101908080519060200190929190505050611a07576040517f08c379a000000000000000000000000000000000000000000000000000000000815260040180806020018281038252600d8152602001807f70617920746f206c6f736572730000000000000000000000000000000000000081525060200191505060405180910390fd5b5080806001019150506115d1565b505b80806001019150506113a1565b507f64c3aa83886a5aedbc17fdd025481bdd45090d3af68e72f3dd4e3f17385122ff836040518082815260200191505060405180910390a1505050565b600060029054906101000a900473ffffffffffffffffffffffffffffffffffffffff1673ffffffffffffffffffffffffffffffffffffffff163373ffffffffffffffffffffffffffffffffffffffff1614611b24576040517f08c379a000000000000000000000000000000000000000000000000000000000815260040180806020018281038252600a8152602001807f6f776e6572206f6e6c790000000000000000000000000000000000000000000081525060200191505060405180910390fd5b80600760006101000a81548173ffffffffffffffffffffffffffffffffffffffff021916908373ffffffffffffffffffffffffffffffffffffffff16021790555050565b60055481565b60015481565b60045481565b600060029054906101000a900473ffffffffffffffffffffffffffffffffffffffff1673ffffffffffffffffffffffffffffffffffffffff163373ffffffffffffffffffffffffffffffffffffffff1614611c3d576040517f08c379a000000000000000000000000000000000000000000000000000000000815260040180806020018281038252600a8152602001807f6f776e6572206f6e6c790000000000000000000000000000000000000000000081525060200191505060405180910390fd5b826001819055508160028190555080600381905550505050565b600081156120425760008060005b8573ffffffffffffffffffffffffffffffffffffffff1663a96c2aea886040518263ffffffff1660e01b81526004018082815260200191505060206040518083038186803b158015611cb657600080fd5b505afa158015611cca573d6000803e3d6000fd5b505050506040513d6020811015611ce057600080fd5b8101908080519060200190929190505050811015611ede57828673ffffffffffffffffffffffffffffffffffffffff166371aee94589846040518363ffffffff1660e01b8152600401808381526020018281526020019250505060206040518083038186803b158015611d5257600080fd5b505afa158015611d66573d6000803e3d6000fd5b505050506040513d6020811015611d7c57600080fd5b81019080805190602001909291905050501115611e31578291508573ffffffffffffffffffffffffffffffffffffffff166371aee94588836040518363ffffffff1660e01b8152600401808381526020018281526020019250505060206040518083038186803b158015611def57600080fd5b505afa158015611e03573d6000803e3d6000fd5b505050506040513d6020811015611e1957600080fd5b81019080805190602001909291905050509250611ed1565b818673ffffffffffffffffffffffffffffffffffffffff166371aee94589846040518363ffffffff1660e01b8152600401808381526020018281526020019250505060206040518083038186803b158015611e8b57600080fd5b505afa158015611e9f573d6000803e3d6000fd5b505050506040513d6020811015611eb557600080fd5b81019080805190602001909291905050501115611ed0578291505b5b8080600101915050611c65565b5060008573ffffffffffffffffffffffffffffffffffffffff1663f946c207886040518263ffffffff1660e01b81526004018082815260200191505060206040518083038186803b158015611f3257600080fd5b505afa158015611f46573d6000803e3d6000fd5b505050506040513d6020811015611f5c57600080fd5b810190808051906020019092919050505090506000611f7b83836135b4565b611f8585846135b4565b6064030190506000828873ffffffffffffffffffffffffffffffffffffffff166330286c378b6040518263ffffffff1660e01b81526004018082815260200191505060206040518083038186803b158015611fdf57600080fd5b505afa158015611ff3573d6000803e3d6000fd5b505050506040513d602081101561200957600080fd5b81019080805190602001909291905050508161202157fe5b0490506127108a8385840202028161203557fe5b0495505050505050612047565b600090505b949350505050565b60065481565b600060029054906101000a900473ffffffffffffffffffffffffffffffffffffffff1673ffffffffffffffffffffffffffffffffffffffff163373ffffffffffffffffffffffffffffffffffffffff1614612118576040517f08c379a000000000000000000000000000000000000000000000000000000000815260040180806020018281038252600a8152602001807f6f776e6572206f6e6c790000000000000000000000000000000000000000000081525060200191505060405180910390fd5b600760009054906101000a900473ffffffffffffffffffffffffffffffffffffffff1673ffffffffffffffffffffffffffffffffffffffff168760008151811061215e57fe5b602002602001015173ffffffffffffffffffffffffffffffffffffffff16146123025760005b875181101561230057600a60009054906101000a900473ffffffffffffffffffffffffffffffffffffffff1673ffffffffffffffffffffffffffffffffffffffff166340c10f198983815181106121d757fe5b60200260200101518984815181106121eb57fe5b60200260200101516040518363ffffffff1660e01b8152600401808373ffffffffffffffffffffffffffffffffffffffff16815260200182815260200192505050602060405180830381600087803b15801561224657600080fd5b505af115801561225a573d6000803e3d6000fd5b505050506040513d602081101561227057600080fd5b81019080805190602001909291905050506122f3576040517f08c379a00000000000000000000000000000000000000000000000000000000081526004018080602001828103825260098152602001807f6d696e742072656631000000000000000000000000000000000000000000000081525060200191505060405180910390fd5b8080600101915050612184565b505b600760009054906101000a900473ffffffffffffffffffffffffffffffffffffffff1673ffffffffffffffffffffffffffffffffffffffff168560008151811061234857fe5b602002602001015173ffffffffffffffffffffffffffffffffffffffff16146124ec5760005b85518110156124ea57600a60009054906101000a900473ffffffffffffffffffffffffffffffffffffffff1673ffffffffffffffffffffffffffffffffffffffff166340c10f198783815181106123c157fe5b60200260200101518784815181106123d557fe5b60200260200101516040518363ffffffff1660e01b8152600401808373ffffffffffffffffffffffffffffffffffffffff16815260200182815260200192505050602060405180830381600087803b15801561243057600080fd5b505af1158015612444573d6000803e3d6000fd5b505050506040513d602081101561245a57600080fd5b81019080805190602001909291905050506124dd576040517f08c379a00000000000000000000000000000000000000000000000000000000081526004018080602001828103825260098152602001807f6d696e742072656632000000000000000000000000000000000000000000000081525060200191505060405180910390fd5b808060010191505061236e565b505b600760009054906101000a900473ffffffffffffffffffffffffffffffffffffffff1673ffffffffffffffffffffffffffffffffffffffff168360008151811061253257fe5b602002602001015173ffffffffffffffffffffffffffffffffffffffff16146126d65760005b83518110156126d457600a60009054906101000a900473ffffffffffffffffffffffffffffffffffffffff1673ffffffffffffffffffffffffffffffffffffffff166340c10f198583815181106125ab57fe5b60200260200101518584815181106125bf57fe5b60200260200101516040518363ffffffff1660e01b8152600401808373ffffffffffffffffffffffffffffffffffffffff16815260200182815260200192505050602060405180830381600087803b15801561261a57600080fd5b505af115801561262e573d6000803e3d6000fd5b505050506040513d602081101561264457600080fd5b81019080805190602001909291905050506126c7576040517f08c379a00000000000000000000000000000000000000000000000000000000081526004018080602001828103825260098152602001807f6d696e742072656632000000000000000000000000000000000000000000000081525060200191505060405180910390fd5b8080600101915050612558565b505b600081111561284257600a60009054906101000a900473ffffffffffffffffffffffffffffffffffffffff1673ffffffffffffffffffffffffffffffffffffffff166340c10f19600060029054906101000a900473ffffffffffffffffffffffffffffffffffffffff16836040518363ffffffff1660e01b8152600401808373ffffffffffffffffffffffffffffffffffffffff16815260200182815260200192505050602060405180830381600087803b15801561279457600080fd5b505af11580156127a8573d6000803e3d6000fd5b505050506040513d60208110156127be57600080fd5b8101908080519060200190929190505050612841576040517f08c379a00000000000000000000000000000000000000000000000000000000081526004018080602001828103825260148152602001807f6d696e7420726566416c6c20746f206f776e657200000000000000000000000081525060200191505060405180910390fd5b5b600860009054906101000a900473ffffffffffffffffffffffffffffffffffffffff1673ffffffffffffffffffffffffffffffffffffffff16630583e6ee896040518263ffffffff1660e01b815260040180828152602001915050600060405180830381600087803b1580156128b757600080fd5b505af11580156128cb573d6000803e3d6000fd5b505050507f0f3eb3672b1eff908c7b79682f595b66509f4e1aac9f34d75dcbb1e8d4276322886040518082815260200191505060405180910390a15050505050505050565b600060019054906101000a900460ff168061292f575061292e6135a3565b5b80612945575060008054906101000a900460ff16155b61299a576040517f08c379a000000000000000000000000000000000000000000000000000000000815260040180806020018281038252602e8152602001806136c6602e913960400191505060405180910390fd5b60008060019054906101000a900460ff1615905080156129ea576001600060016101000a81548160ff02191690831515021790555060016000806101000a81548160ff0219169083151502179055505b33600060026101000a81548173ffffffffffffffffffffffffffffffffffffffff021916908373ffffffffffffffffffffffffffffffffffffffff16021790555087600181905550866002819055508560038190555084600481905550836005819055508260068190555081600760006101000a81548173ffffffffffffffffffffffffffffffffffffffff021916908373ffffffffffffffffffffffffffffffffffffffff1602179055508015612ab75760008060016101000a81548160ff0219169083151502179055505b5050505050505050565b600060029054906101000a900473ffffffffffffffffffffffffffffffffffffffff1673ffffffffffffffffffffffffffffffffffffffff163373ffffffffffffffffffffffffffffffffffffffff1614612b84576040517f08c379a000000000000000000000000000000000000000000000000000000000815260040180806020018281038252600a8152602001807f6f776e6572206f6e6c790000000000000000000000000000000000000000000081525060200191505060405180910390fd5b81600a60006101000a81548173ffffffffffffffffffffffffffffffffffffffff021916908373ffffffffffffffffffffffffffffffffffffffff16021790555081600960006101000a81548173ffffffffffffffffffffffffffffffffffffffff021916908373ffffffffffffffffffffffffffffffffffffffff16021790555080600860006101000a81548173ffffffffffffffffffffffffffffffffffffffff021916908373ffffffffffffffffffffffffffffffffffffffff1602179055505050565b600080600960009054906101000a900473ffffffffffffffffffffffffffffffffffffffff1673ffffffffffffffffffffffffffffffffffffffff166380559173856040518263ffffffff1660e01b81526004018082815260200191505060206040518083038186803b158015612cc157600080fd5b505afa158015612cd5573d6000803e3d6000fd5b505050506040513d6020811015612ceb57600080fd5b81019080805190602001909291905050501115612dd1576000612dbd600354600960009054906101000a900473ffffffffffffffffffffffffffffffffffffffff1673ffffffffffffffffffffffffffffffffffffffff166380559173876040518263ffffffff1660e01b81526004018082815260200191505060206040518083038186803b158015612d7d57600080fd5b505afa158015612d91573d6000803e3d6000fd5b505050506040513d6020811015612da757600080fd5b810190808051906020019092919050505061129e565b9050828181612dc857fe5b04915050612dd6565b600090505b92915050565b60005b87811015613421576000600960009054906101000a900473ffffffffffffffffffffffffffffffffffffffff1673ffffffffffffffffffffffffffffffffffffffff1663859f0f6a8b600860009054906101000a900473ffffffffffffffffffffffffffffffffffffffff1673ffffffffffffffffffffffffffffffffffffffff1663bc26b1018e6040518263ffffffff1660e01b81526004018082815260200191505060206040518083038186803b158015612e9b57600080fd5b505afa158015612eaf573d6000803e3d6000fd5b505050506040513d6020811015612ec557600080fd5b8101908080519060200190929190505050856040518463ffffffff1660e01b815260040180848152602001838152602001828152602001935050505060206040518083038186803b158015612f1957600080fd5b505afa158015612f2d573d6000803e3d6000fd5b505050506040513d6020811015612f4357600080fd5b810190808051906020019092919050505090506000600960009054906101000a900473ffffffffffffffffffffffffffffffffffffffff1673ffffffffffffffffffffffffffffffffffffffff16637c997f678c600860009054906101000a900473ffffffffffffffffffffffffffffffffffffffff1673ffffffffffffffffffffffffffffffffffffffff1663bc26b1018f6040518263ffffffff1660e01b81526004018082815260200191505060206040518083038186803b15801561300a57600080fd5b505afa15801561301e573d6000803e3d6000fd5b505050506040513d602081101561303457600080fd5b8101908080519060200190929190505050866040518463ffffffff1660e01b815260040180848152602001838152602001828152602001935050505060206040518083038186803b15801561308857600080fd5b505afa15801561309c573d6000803e3d6000fd5b505050506040513d60208110156130b257600080fd5b81019080805190602001909291905050509050600a60009054906101000a900473ffffffffffffffffffffffffffffffffffffffff1673ffffffffffffffffffffffffffffffffffffffff1663fe4c58c58c6040518263ffffffff1660e01b81526004018082815260200191505060206040518083038186803b15801561313857600080fd5b505afa15801561314c573d6000803e3d6000fd5b505050506040513d602081101561316257600080fd5b8101908080519060200190929190505050156132c657600a60009054906101000a900473ffffffffffffffffffffffffffffffffffffffff1673ffffffffffffffffffffffffffffffffffffffff166340c10f1982878c02858c02816131c457fe5b046040518363ffffffff1660e01b8152600401808373ffffffffffffffffffffffffffffffffffffffff16815260200182815260200192505050602060405180830381600087803b15801561321857600080fd5b505af115801561322c573d6000803e3d6000fd5b505050506040513d602081101561324257600080fd5b81019080805190602001909291905050506132c5576040517f08c379a000000000000000000000000000000000000000000000000000000000815260040180806020018281038252600c8152602001807f6d696e7420746f20706c6179000000000000000000000000000000000000000081525060200191505060405180910390fd5b5b600a60009054906101000a900473ffffffffffffffffffffffffffffffffffffffff1673ffffffffffffffffffffffffffffffffffffffff1663c4076876826133128e8a878d8b6135cb565b6040518363ffffffff1660e01b8152600401808373ffffffffffffffffffffffffffffffffffffffff16815260200182815260200192505050602060405180830381600087803b15801561336557600080fd5b505af1158015613379573d6000803e3d6000fd5b505050506040513d602081101561338f57600080fd5b8101908080519060200190929190505050613412576040517f08c379a000000000000000000000000000000000000000000000000000000000815260040180806020018281038252600b8152602001807f70617920746f20706c617900000000000000000000000000000000000000000081525060200191505060405180910390fd5b50508080600101915050612ddf565b50600a60009054906101000a900473ffffffffffffffffffffffffffffffffffffffff1673ffffffffffffffffffffffffffffffffffffffff1663fe4c58c5896040518263ffffffff1660e01b81526004018082815260200191505060206040518083038186803b15801561349557600080fd5b505afa1580156134a9573d6000803e3d6000fd5b505050506040513d60208110156134bf57600080fd5b810190808051906020019092919050505015613539577fa2b1991fc65337e47933b8950c66cdc0f3c6b6d31b7ed208c4f475f23a0dfb6288878786888660405180878152602001868152602001858152602001848152602001838152602001828152602001965050505050505060405180910390a1613599565b7fa05362d027c62c5fc48248f1717b541780f597dc7b8adb1c06af030f4845cefc88878786888660405180878152602001868152602001858152602001848152602001838152602001828152602001965050505050505060405180910390a15b5050505050505050565b60006135ae306136b2565b15905090565b60008160648402816135c257fe5b04905092915050565b6000808484868802816135da57fe5b040190506000600960009054906101000a900473ffffffffffffffffffffffffffffffffffffffff1673ffffffffffffffffffffffffffffffffffffffff166380559173896040518263ffffffff1660e01b81526004018082815260200191505060206040518083038186803b15801561365357600080fd5b505afa158015613667573d6000803e3d6000fd5b505050506040513d602081101561367d57600080fd5b810190808051906020019092919050505011156136a557838584028161369f57fe5b04810190505b8091505095945050505050565b600080823b90506000811191505091905056fe496e697469616c697a61626c653a20636f6e747261637420697320616c726561647920696e697469616c697a6564a2646970667358221220b2e95e69bca86ac27fc7ed698b8c0f68e7ba407319e767c97443169cefd9fd2964736f6c63430007060033",
  "immutableReferences": {},
  "source": "// SPDX-License-Identifier: MIT\npragma solidity >=0.4.22 <0.9.0;\nimport {PubStruct} from \"../../struct/PubStruct.sol\";\nimport {MPStruct} from \"../../struct/MPStruct.sol\";\nimport {Libs} from \"./Libs.sol\";\nimport {PPConfig} from \"../../config/PPConfig.sol\";\nimport {PublicEvents} from \"./PublicEvents.sol\";\n \ncontract PlayerPayment is Libs, PPConfig {\n    event payToLosers(int id, uint avarageBet, uint calcMintedToken, uint winPool, uint avarageBetWin, uint premimWin);\n    event payToRefferers(int id);\n    event eventMintedFinish(int id);\n    event eventFinish(int id, uint avarageBet, uint calcMintedToken, uint winPool, uint avarageBetWin, uint premimWin);\n    MPStruct mpData;\n    PubStruct eventsData;\n    PublicEvents PublicAddr;\n\n    function __PlayerPaymentInit(\n        uint256 _playersPersMint,\n        uint256 _playersPers,\n        uint256 _playersPersPremiun,\n        uint256 _firstRefer,\n        uint256 _secontRefer,\n        uint256 _thirdRefer,\n        address _fakeAddr\n        ) public initializer {\n        __PPConfigInit(\n            _playersPersMint,\n            _playersPers,\n            _playersPersPremiun,\n            _firstRefer,\n            _secontRefer,\n            _thirdRefer,\n            _fakeAddr\n        ); \n    }\n\n    function setAddr(\n        PublicEvents _addr, \n        address _mpAddr\n        ) public{\n        require(msg.sender == owner, \"owner only\");\n        PublicAddr = _addr;\n        eventsData = PubStruct(_addr);\n        mpData = MPStruct(_mpAddr);\n    }\n\n   function letsPayToPlayers(int _id) public {\n        require(msg.sender == owner, \"owner only\");\n        uint activePlay = eventsData.getActivePlayers(_id);\n        uint rightPlay = eventsData.getPlayerAmount(_id, mpData.getCorrectAnswer(_id));\n        uint winPool = getPercent(playersPers, mpData.getLoserPool(_id)) / rightPlay;\n        uint premimWin = calcPremiumWin(_id, rightPlay);\n        uint betAmount = 0;\n\n        for ( uint i = 0; i < rightPlay; i++ ) {\n            betAmount += eventsData.getPlayerTokens(_id, mpData.getCorrectAnswer(_id), i);\n        }\n\n        uint avarageBet = 0;\n        uint calcMintedToken = 0;\n        if(PublicAddr.canMint(_id)){\n            avarageBet = eventsData.getPool(_id) / activePlay;\n            calcMintedToken = getPercent(playersPersMint, mpData.getTokenMinted(_id));\n        }\n\n        uint avarageBetWin = betAmount / rightPlay;\n        payToPlay(_id, rightPlay, avarageBet, calcMintedToken, avarageBetWin, winPool, activePlay, premimWin);\n    }\n\n    function payToPlay(int _id, uint rightPlay, uint avarageBet, uint calcMintedToken, uint avarageBetWin, uint winPool, uint activePlay, uint premimWin) private {\n       for ( uint i = 0; i < rightPlay; i++ ) {\n            uint userBet = eventsData.getPlayerTokens(_id, mpData.getCorrectAnswer(_id), i);\n            address payable userWallet = eventsData.getPlayerWallet(_id, mpData.getCorrectAnswer(_id), i);\n            if(PublicAddr.canMint(_id)){\n                // mint token to users\n                require(\n                    PublicAddr.mint(userWallet, calcMintedToken * userBet / (avarageBet * activePlay)),\n                    \"mint to play\"\n                );\n            }\n            // pay tokens to users\n            require(\n                PublicAddr.pay(userWallet, calcPlayerPay(_id, winPool, userBet, avarageBetWin, premimWin)),\n                \"pay to play\"\n            );\n        }\n        if(PublicAddr.canMint(_id)){\n            emit payToLosers(_id, avarageBet, calcMintedToken, winPool, avarageBetWin, premimWin);\n        }else{\n            emit eventFinish(_id, avarageBet, calcMintedToken, winPool, avarageBetWin, premimWin);\n        }\n    }\n\n    function calcPlayerPay(int _id, uint winPool, uint userBet, uint avarageBetWin, uint premimWin) private view returns(uint){\n        uint amount = ((winPool * userBet) / avarageBetWin) + userBet;\n        if (eventsData.getPremiumAmount(_id) > 0) {\n            // add premium tokens to amount\n            amount = amount + (premimWin * userBet / avarageBetWin);\n        }\n        return amount;\n    }\n\n    function calcPremiumWin(int _id, uint rightPlay) private view returns(uint){\n        if (eventsData.getPremiumAmount(_id) > 0) {\n            uint premiumToken = getPercent(playersPersPremiun, eventsData.getPremiumAmount(_id));\n            return premiumToken / rightPlay;\n        }else{\n            return 0;\n        }\n    }\n\n    function letsPayToLoosers(\n        int _id,\n        uint _avarageBet,\n        uint _calcMintedToken\n    ) public {\n        require(msg.sender == owner, \"owner only\");\n        for (uint i = 0; i < eventsData.getQuestAmount(_id); i++) {\n            if (mpData.getCorrectAnswer(_id) != i && eventsData.getPlayerAmount(_id, i) != 0) {\n                for (uint z = 0; z < eventsData.getPlayerAmount(_id, i); z++) {\n                    uint mintLost = (_calcMintedToken * eventsData.getPlayerTokens(_id, i, z)) / ( _avarageBet * eventsData.getActivePlayers(_id));\n                    require(PublicAddr.mint(eventsData.getPlayerWallet(_id, i, z), mintLost), \"pay to losers\");\n                }\n            }\n        }\n       emit payToRefferers(_id);\n    }\n\n    function payToReff(\n        int _id, \n        address payable[] memory _ref1, \n        uint[] memory _amount1, \n        address payable[] memory _ref2, \n        uint[] memory _amount2, \n        address payable[] memory _ref3, \n        uint[] memory _amount3,\n        uint _amount\n        ) public {\n        require(msg.sender == owner, \"owner only\");  \n        if(_ref1[0] != fakeAddr){      \n            for(uint i = 0; i < _ref1.length; i++){\n                require(PublicAddr.mint(_ref1[i], _amount1[i]), \"mint ref1\");\n            }\n        }\n        if(_ref2[0] != fakeAddr){\n            for(uint i = 0; i < _ref2.length; i++){\n                require(PublicAddr.mint(_ref2[i], _amount2[i]), \"mint ref2\");\n            }\n        }\n        if(_ref3[0] != fakeAddr){\n            for(uint i = 0; i < _ref3.length; i++){\n                require(PublicAddr.mint(_ref3[i], _amount3[i]), \"mint ref2\");\n            }\n        }\n        if(_amount > 0){\n            require(PublicAddr.mint(owner, _amount), \"mint refAll to owner\");\n\n        }\n        mpData.setFinishEvent(_id);\n        emit eventMintedFinish(\n            _id\n        );\n    }\n}    ",
  "sourcePath": "/Users/macbook/Documents/freelance/tokenominc/contracts/matic/events/PublicEvents/PlayerPayment.sol",
  "compiler": {
    "name": "solc",
    "version": "0.7.6+commit.7338295f.Linux.g++"
  },
  "schemaVersion": "3.3.4",
  "updatedAt": "2021-04-14T14:50:41.421Z",
  "networkType": "ethereum",
  "devdoc": {
    "kind": "dev",
    "methods": {},
    "version": 1
  },
  "userdoc": {
    "kind": "user",
    "methods": {},
    "version": 1
  }
}