{
  "contractName": "PublicEvents",
  "abi": [
    {
      "anonymous": false,
      "inputs": [
        {
          "indexed": false,
          "internalType": "int256",
          "name": "id",
          "type": "int256"
        },
        {
          "indexed": false,
          "internalType": "uint256",
          "name": "activePlayers",
          "type": "uint256"
        }
      ],
      "name": "calculateExpert",
      "type": "event"
    },
    {
      "anonymous": false,
      "inputs": [
        {
          "indexed": false,
          "internalType": "int256",
          "name": "id",
          "type": "int256"
        }
      ],
      "name": "findCorrectAnswer",
      "type": "event"
    },
    {
      "anonymous": false,
      "inputs": [
        {
          "indexed": false,
          "internalType": "int256",
          "name": "id",
          "type": "int256"
        },
        {
          "indexed": false,
          "internalType": "string",
          "name": "purpose",
          "type": "string"
        }
      ],
      "name": "revertedEvent",
      "type": "event"
    },
    {
      "inputs": [],
      "name": "betToken",
      "outputs": [
        {
          "internalType": "contract BET",
          "name": "",
          "type": "address"
        }
      ],
      "stateMutability": "view",
      "type": "function",
      "constant": true
    },
    {
      "inputs": [],
      "name": "btyToken",
      "outputs": [
        {
          "internalType": "contract BTY",
          "name": "",
          "type": "address"
        }
      ],
      "stateMutability": "view",
      "type": "function",
      "constant": true
    },
    {
      "inputs": [
        {
          "internalType": "int256",
          "name": "",
          "type": "int256"
        }
      ],
      "name": "events",
      "outputs": [
        {
          "internalType": "int256",
          "name": "id",
          "type": "int256"
        },
        {
          "internalType": "uint256",
          "name": "startTime",
          "type": "uint256"
        },
        {
          "internalType": "uint256",
          "name": "endTime",
          "type": "uint256"
        },
        {
          "internalType": "uint256",
          "name": "questAmount",
          "type": "uint256"
        },
        {
          "internalType": "uint256",
          "name": "activePlayers",
          "type": "uint256"
        },
        {
          "internalType": "uint256",
          "name": "activeExperts",
          "type": "uint256"
        },
        {
          "internalType": "uint256",
          "name": "amountExperts",
          "type": "uint256"
        },
        {
          "internalType": "bool",
          "name": "calculateExperts",
          "type": "bool"
        },
        {
          "internalType": "address payable",
          "name": "host",
          "type": "address"
        },
        {
          "internalType": "address payable",
          "name": "advisor",
          "type": "address"
        },
        {
          "internalType": "uint256",
          "name": "pool",
          "type": "uint256"
        },
        {
          "internalType": "uint256",
          "name": "premiumAmount",
          "type": "uint256"
        }
      ],
      "stateMutability": "view",
      "type": "function",
      "constant": true
    },
    {
      "inputs": [
        {
          "internalType": "int256",
          "name": "_id",
          "type": "int256"
        }
      ],
      "name": "getActivePlayers",
      "outputs": [
        {
          "internalType": "uint256",
          "name": "",
          "type": "uint256"
        }
      ],
      "stateMutability": "view",
      "type": "function",
      "constant": true
    },
    {
      "inputs": [
        {
          "internalType": "int256",
          "name": "_id",
          "type": "int256"
        }
      ],
      "name": "getAdvisorAddr",
      "outputs": [
        {
          "internalType": "address",
          "name": "",
          "type": "address"
        }
      ],
      "stateMutability": "view",
      "type": "function",
      "constant": true
    },
    {
      "inputs": [
        {
          "internalType": "int256",
          "name": "_id",
          "type": "int256"
        },
        {
          "internalType": "uint256",
          "name": "i",
          "type": "uint256"
        }
      ],
      "name": "getExpertAmount",
      "outputs": [
        {
          "internalType": "uint256",
          "name": "",
          "type": "uint256"
        }
      ],
      "stateMutability": "view",
      "type": "function",
      "constant": true
    },
    {
      "inputs": [
        {
          "internalType": "int256",
          "name": "_id",
          "type": "int256"
        },
        {
          "internalType": "uint256",
          "name": "i",
          "type": "uint256"
        },
        {
          "internalType": "uint256",
          "name": "z",
          "type": "uint256"
        }
      ],
      "name": "getExpertReput",
      "outputs": [
        {
          "internalType": "int256",
          "name": "",
          "type": "int256"
        }
      ],
      "stateMutability": "view",
      "type": "function",
      "constant": true
    },
    {
      "inputs": [
        {
          "internalType": "int256",
          "name": "_id",
          "type": "int256"
        },
        {
          "internalType": "uint256",
          "name": "i",
          "type": "uint256"
        },
        {
          "internalType": "uint256",
          "name": "z",
          "type": "uint256"
        }
      ],
      "name": "getExpertWallet",
      "outputs": [
        {
          "internalType": "address payable",
          "name": "",
          "type": "address"
        }
      ],
      "stateMutability": "view",
      "type": "function",
      "constant": true
    },
    {
      "inputs": [
        {
          "internalType": "int256",
          "name": "_id",
          "type": "int256"
        }
      ],
      "name": "getHostAddr",
      "outputs": [
        {
          "internalType": "address",
          "name": "",
          "type": "address"
        }
      ],
      "stateMutability": "view",
      "type": "function",
      "constant": true
    },
    {
      "inputs": [
        {
          "internalType": "int256",
          "name": "_id",
          "type": "int256"
        },
        {
          "internalType": "uint256",
          "name": "i",
          "type": "uint256"
        }
      ],
      "name": "getPlayerAmount",
      "outputs": [
        {
          "internalType": "uint256",
          "name": "",
          "type": "uint256"
        }
      ],
      "stateMutability": "view",
      "type": "function",
      "constant": true
    },
    {
      "inputs": [
        {
          "internalType": "int256",
          "name": "_id",
          "type": "int256"
        },
        {
          "internalType": "uint256",
          "name": "i",
          "type": "uint256"
        },
        {
          "internalType": "uint256",
          "name": "z",
          "type": "uint256"
        }
      ],
      "name": "getPlayerTokens",
      "outputs": [
        {
          "internalType": "uint256",
          "name": "",
          "type": "uint256"
        }
      ],
      "stateMutability": "view",
      "type": "function",
      "constant": true
    },
    {
      "inputs": [
        {
          "internalType": "int256",
          "name": "_id",
          "type": "int256"
        },
        {
          "internalType": "uint256",
          "name": "i",
          "type": "uint256"
        },
        {
          "internalType": "uint256",
          "name": "z",
          "type": "uint256"
        }
      ],
      "name": "getPlayerWallet",
      "outputs": [
        {
          "internalType": "address payable",
          "name": "",
          "type": "address"
        }
      ],
      "stateMutability": "view",
      "type": "function",
      "constant": true
    },
    {
      "inputs": [
        {
          "internalType": "int256",
          "name": "_id",
          "type": "int256"
        }
      ],
      "name": "getPool",
      "outputs": [
        {
          "internalType": "uint256",
          "name": "",
          "type": "uint256"
        }
      ],
      "stateMutability": "view",
      "type": "function",
      "constant": true
    },
    {
      "inputs": [
        {
          "internalType": "int256",
          "name": "_id",
          "type": "int256"
        }
      ],
      "name": "getPremiumAmount",
      "outputs": [
        {
          "internalType": "uint256",
          "name": "",
          "type": "uint256"
        }
      ],
      "stateMutability": "view",
      "type": "function",
      "constant": true
    },
    {
      "inputs": [
        {
          "internalType": "int256",
          "name": "_id",
          "type": "int256"
        }
      ],
      "name": "getQuestAmount",
      "outputs": [
        {
          "internalType": "uint256",
          "name": "",
          "type": "uint256"
        }
      ],
      "stateMutability": "view",
      "type": "function",
      "constant": true
    },
    {
      "inputs": [
        {
          "internalType": "uint256",
          "name": "_startTime",
          "type": "uint256"
        },
        {
          "internalType": "uint256",
          "name": "_endTime",
          "type": "uint256"
        }
      ],
      "name": "timeAnswer",
      "outputs": [
        {
          "internalType": "int8",
          "name": "",
          "type": "int8"
        }
      ],
      "stateMutability": "view",
      "type": "function",
      "constant": true
    },
    {
      "inputs": [
        {
          "internalType": "uint256",
          "name": "_endTime",
          "type": "uint256"
        }
      ],
      "name": "timeValidate",
      "outputs": [
        {
          "internalType": "int8",
          "name": "",
          "type": "int8"
        }
      ],
      "stateMutability": "view",
      "type": "function",
      "constant": true
    },
    {
      "inputs": [],
      "name": "__PublicEventsInit",
      "outputs": [],
      "stateMutability": "nonpayable",
      "type": "function"
    },
    {
      "inputs": [
        {
          "internalType": "address",
          "name": "_mpaddr",
          "type": "address"
        },
        {
          "internalType": "address",
          "name": "_ppaddr",
          "type": "address"
        },
        {
          "internalType": "contract BET",
          "name": "_betAddress",
          "type": "address"
        },
        {
          "internalType": "contract BTY",
          "name": "_btyAddress",
          "type": "address"
        },
        {
          "internalType": "uint256",
          "name": "_minBet",
          "type": "uint256"
        },
        {
          "internalType": "int256",
          "name": "_minTime",
          "type": "int256"
        }
      ],
      "name": "setConfig",
      "outputs": [],
      "stateMutability": "nonpayable",
      "type": "function"
    },
    {
      "inputs": [
        {
          "internalType": "int256",
          "name": "_id",
          "type": "int256"
        },
        {
          "internalType": "uint256",
          "name": "_sT",
          "type": "uint256"
        },
        {
          "internalType": "uint256",
          "name": "_eT",
          "type": "uint256"
        },
        {
          "internalType": "uint256",
          "name": "_questAmount",
          "type": "uint256"
        },
        {
          "internalType": "uint256",
          "name": "_amountExp",
          "type": "uint256"
        },
        {
          "internalType": "bool",
          "name": "_calcExp",
          "type": "bool"
        },
        {
          "internalType": "address payable",
          "name": "_host",
          "type": "address"
        },
        {
          "internalType": "uint256",
          "name": "_amountPrem",
          "type": "uint256"
        }
      ],
      "name": "newEvent",
      "outputs": [],
      "stateMutability": "payable",
      "type": "function",
      "payable": true
    },
    {
      "inputs": [
        {
          "internalType": "address payable",
          "name": "_advisor",
          "type": "address"
        },
        {
          "internalType": "int256",
          "name": "_id",
          "type": "int256"
        }
      ],
      "name": "addAdvisor",
      "outputs": [],
      "stateMutability": "nonpayable",
      "type": "function"
    },
    {
      "inputs": [
        {
          "internalType": "int256",
          "name": "_id",
          "type": "int256"
        },
        {
          "internalType": "uint256",
          "name": "_answer",
          "type": "uint256"
        },
        {
          "internalType": "uint256",
          "name": "_amount",
          "type": "uint256"
        },
        {
          "internalType": "address payable",
          "name": "_pWallet",
          "type": "address"
        }
      ],
      "name": "setAnswer",
      "outputs": [],
      "stateMutability": "payable",
      "type": "function",
      "payable": true
    },
    {
      "inputs": [
        {
          "internalType": "int256",
          "name": "_id",
          "type": "int256"
        },
        {
          "internalType": "uint256",
          "name": "_answer",
          "type": "uint256"
        },
        {
          "internalType": "address payable",
          "name": "_eWallet",
          "type": "address"
        },
        {
          "internalType": "int256",
          "name": "_reput",
          "type": "int256"
        }
      ],
      "name": "setValidator",
      "outputs": [],
      "stateMutability": "payable",
      "type": "function",
      "payable": true
    },
    {
      "inputs": [
        {
          "internalType": "uint256",
          "name": "_amount",
          "type": "uint256"
        },
        {
          "internalType": "int256",
          "name": "_id",
          "type": "int256"
        }
      ],
      "name": "setActiveExpertsFromOracl",
      "outputs": [],
      "stateMutability": "nonpayable",
      "type": "function"
    },
    {
      "inputs": [
        {
          "internalType": "address",
          "name": "_addr",
          "type": "address"
        },
        {
          "internalType": "uint256",
          "name": "_amount",
          "type": "uint256"
        }
      ],
      "name": "mint",
      "outputs": [
        {
          "internalType": "bool",
          "name": "",
          "type": "bool"
        }
      ],
      "stateMutability": "nonpayable",
      "type": "function"
    },
    {
      "inputs": [
        {
          "internalType": "address",
          "name": "_addr",
          "type": "address"
        },
        {
          "internalType": "uint256",
          "name": "_amount",
          "type": "uint256"
        }
      ],
      "name": "pay",
      "outputs": [
        {
          "internalType": "bool",
          "name": "",
          "type": "bool"
        }
      ],
      "stateMutability": "nonpayable",
      "type": "function"
    },
    {
      "inputs": [
        {
          "internalType": "int256",
          "name": "_id",
          "type": "int256"
        }
      ],
      "name": "canMint",
      "outputs": [
        {
          "internalType": "bool",
          "name": "",
          "type": "bool"
        }
      ],
      "stateMutability": "view",
      "type": "function",
      "constant": true
    },
    {
      "inputs": [],
      "name": "getGF",
      "outputs": [
        {
          "internalType": "uint256",
          "name": "",
          "type": "uint256"
        }
      ],
      "stateMutability": "view",
      "type": "function",
      "constant": true
    }
  ],
  "bytecode": "0x608060405234801561001057600080fd5b5061339d806100206000396000f3fe6080604052600436106101b75760003560e01c806378691f16116100ec578063b8e13ec21161008a578063f438835c11610064578063f438835c14610ad3578063f46cf83814610b38578063f946c20714610bb1578063fe4c58c514610c00576101b7565b8063b8e13ec214610986578063c40768761461099d578063e7897f8f14610a0e576101b7565b8063859f0f6a116100c6578063859f0f6a146108105780639147f01714610873578063a7f21b68146108d5578063a96c2aea14610937576101b7565b806378691f16146107075780637c997f671461074857806380559173146107c1576101b7565b80634c30a15a1161015957806354f6db741161013357806354f6db741461059a5780636e25fb85146105f657806371aee94514610621578063730f3d141461067a576101b7565b80634c30a15a14610434578063506d05cf146104fe57806353bdb0621461053f576101b7565b806330286c371161019557806330286c37146102ca57806340c10f191461031957806342f1bb8d1461038a5780634a30062b146103ef576101b7565b80630569ae99146101bc57806323c8778e1461021f578063246fe64714610278575b600080fd5b3480156101c857600080fd5b50610209600480360360608110156101df57600080fd5b81019080803590602001909291908035906020019092919080359060200190929190505050610c51565b6040518082815260200191505060405180910390f35b34801561022b57600080fd5b506102626004803603604081101561024257600080fd5b810190808035906020019092919080359060200190929190505050610c9f565b6040518082815260200191505060405180910390f35b34801561028457600080fd5b506102b16004803603602081101561029b57600080fd5b8101908080359060200190929190505050610cd3565b604051808260000b815260200191505060405180910390f35b3480156102d657600080fd5b50610303600480360360208110156102ed57600080fd5b8101908080359060200190929190505050610cf1565b6040518082815260200191505060405180910390f35b34801561032557600080fd5b506103726004803603604081101561033c57600080fd5b81019080803573ffffffffffffffffffffffffffffffffffffffff16906020019092919080359060200190929190505050610d10565b60405180821515815260200191505060405180910390f35b34801561039657600080fd5b506103c3600480360360208110156103ad57600080fd5b8101908080359060200190929190505050610f77565b604051808273ffffffffffffffffffffffffffffffffffffffff16815260200191505060405180910390f35b3480156103fb57600080fd5b506104326004803603604081101561041257600080fd5b810190808035906020019092919080359060200190929190505050610fb6565b005b34801561044057600080fd5b5061046d6004803603602081101561045757600080fd5b8101908080359060200190929190505050611097565b604051808d81526020018c81526020018b81526020018a815260200189815260200188815260200187815260200186151581526020018573ffffffffffffffffffffffffffffffffffffffff1681526020018473ffffffffffffffffffffffffffffffffffffffff1681526020018381526020018281526020019c5050505050505050505050505060405180910390f35b34801561050a57600080fd5b50610513611144565b604051808273ffffffffffffffffffffffffffffffffffffffff16815260200191505060405180910390f35b34801561054b57600080fd5b506105986004803603604081101561056257600080fd5b81019080803573ffffffffffffffffffffffffffffffffffffffff1690602001909291908035906020019092919050505061116a565b005b3480156105a657600080fd5b506105dd600480360360408110156105bd57600080fd5b810190808035906020019092919080359060200190929190505050611285565b604051808260000b815260200191505060405180910390f35b34801561060257600080fd5b5061060b6112b7565b6040518082815260200191505060405180910390f35b34801561062d57600080fd5b506106646004803603604081101561064457600080fd5b810190808035906020019092919080359060200190929190505050611361565b6040518082815260200191505060405180910390f35b610705600480360361010081101561069157600080fd5b810190808035906020019092919080359060200190929190803590602001909291908035906020019092919080359060200190929190803515159060200190929190803573ffffffffffffffffffffffffffffffffffffffff16906020019092919080359060200190929190505050611395565b005b34801561071357600080fd5b5061071c61183e565b604051808273ffffffffffffffffffffffffffffffffffffffff16815260200191505060405180910390f35b34801561075457600080fd5b506107956004803603606081101561076b57600080fd5b81019080803590602001909291908035906020019092919080359060200190929190505050611864565b604051808273ffffffffffffffffffffffffffffffffffffffff16815260200191505060405180910390f35b3480156107cd57600080fd5b506107fa600480360360208110156107e457600080fd5b81019080803590602001909291905050506118d2565b6040518082815260200191505060405180910390f35b34801561081c57600080fd5b5061085d6004803603606081101561083357600080fd5b810190808035906020019092919080359060200190929190803590602001909291905050506118f1565b6040518082815260200191505060405180910390f35b6108d36004803603608081101561088957600080fd5b810190808035906020019092919080359060200190929190803573ffffffffffffffffffffffffffffffffffffffff1690602001909291908035906020019092919050505061193f565b005b610935600480360360808110156108eb57600080fd5b81019080803590602001909291908035906020019092919080359060200190929190803573ffffffffffffffffffffffffffffffffffffffff1690602001909291905050506121f6565b005b34801561094357600080fd5b506109706004803603602081101561095a57600080fd5b8101908080359060200190929190505050612b13565b6040518082815260200191505060405180910390f35b34801561099257600080fd5b5061099b612b32565b005b3480156109a957600080fd5b506109f6600480360360408110156109c057600080fd5b81019080803573ffffffffffffffffffffffffffffffffffffffff16906020019092919080359060200190929190505050612c6f565b60405180821515815260200191505060405180910390f35b348015610a1a57600080fd5b50610ad1600480360360c0811015610a3157600080fd5b81019080803573ffffffffffffffffffffffffffffffffffffffff169060200190929190803573ffffffffffffffffffffffffffffffffffffffff169060200190929190803573ffffffffffffffffffffffffffffffffffffffff169060200190929190803573ffffffffffffffffffffffffffffffffffffffff1690602001909291908035906020019092919080359060200190929190505050612ed6565b005b348015610adf57600080fd5b50610b0c60048036036020811015610af657600080fd5b8101908080359060200190929190505050613135565b604051808273ffffffffffffffffffffffffffffffffffffffff16815260200191505060405180910390f35b348015610b4457600080fd5b50610b8560048036036060811015610b5b57600080fd5b81019080803590602001909291908035906020019092919080359060200190929190505050613174565b604051808273ffffffffffffffffffffffffffffffffffffffff16815260200191505060405180910390f35b348015610bbd57600080fd5b50610bea60048036036020811015610bd457600080fd5b81019080803590602001909291905050506131e2565b6040518082815260200191505060405180910390f35b348015610c0c57600080fd5b50610c3960048036036020811015610c2357600080fd5b8101908080359060200190929190505050613201565b60405180821515815260200191505060405180910390f35b600080600085815260200190815260200160002060070160008481526020019081526020016000208281548110610c8457fe5b90600052602060002090600202016001015490509392505050565b6000806000848152602001908152602001600020600701600083815260200190815260200160002080549050905092915050565b60008082420312610ce75760009050610cec565b600190505b919050565b6000806000838152602001908152602001600020600c01549050919050565b6000600860009054906101000a900473ffffffffffffffffffffffffffffffffffffffff1673ffffffffffffffffffffffffffffffffffffffff163373ffffffffffffffffffffffffffffffffffffffff161480610dbb5750600960009054906101000a900473ffffffffffffffffffffffffffffffffffffffff1673ffffffffffffffffffffffffffffffffffffffff163373ffffffffffffffffffffffffffffffffffffffff16145b610e2d576040517f08c379a000000000000000000000000000000000000000000000000000000000815260040180806020018281038252600a8152602001807f6f776e6572206f6e6c790000000000000000000000000000000000000000000081525060200191505060405180910390fd5b600360009054906101000a900473ffffffffffffffffffffffffffffffffffffffff1673ffffffffffffffffffffffffffffffffffffffff1663341ce1fc84846040518363ffffffff1660e01b8152600401808373ffffffffffffffffffffffffffffffffffffffff16815260200182815260200192505050602060405180830381600087803b158015610ec057600080fd5b505af1158015610ed4573d6000803e3d6000fd5b505050506040513d6020811015610eea57600080fd5b8101908080519060200190929190505050610f6d576040517f08c379a00000000000000000000000000000000000000000000000000000000081526004018080602001828103825260078152602001807f706179206572720000000000000000000000000000000000000000000000000081525060200191505060405180910390fd5b6001905092915050565b6000806000838152602001908152602001600020600b0160009054906101000a900473ffffffffffffffffffffffffffffffffffffffff169050919050565b600760009054906101000a900473ffffffffffffffffffffffffffffffffffffffff1673ffffffffffffffffffffffffffffffffffffffff163373ffffffffffffffffffffffffffffffffffffffff1614611079576040517f08c379a000000000000000000000000000000000000000000000000000000000815260040180806020018281038252600a8152602001807f6f776e6572206f6e6c790000000000000000000000000000000000000000000081525060200191505060405180910390fd5b81600080838152602001908152602001600020600901819055505050565b600060205280600052604060002060009150905080600001549080600101549080600201549080600301549080600601549080600801549080600901549080600a0160009054906101000a900460ff169080600a0160019054906101000a900473ffffffffffffffffffffffffffffffffffffffff169080600b0160009054906101000a900473ffffffffffffffffffffffffffffffffffffffff169080600c01549080600d015490508c565b600460009054906101000a900473ffffffffffffffffffffffffffffffffffffffff1681565b600760009054906101000a900473ffffffffffffffffffffffffffffffffffffffff1673ffffffffffffffffffffffffffffffffffffffff163373ffffffffffffffffffffffffffffffffffffffff161461122d576040517f08c379a000000000000000000000000000000000000000000000000000000000815260040180806020018281038252600a8152602001807f6f776e6572206f6e6c790000000000000000000000000000000000000000000081525060200191505060405180910390fd5b81600080838152602001908152602001600020600b0160006101000a81548173ffffffffffffffffffffffffffffffffffffffff021916908373ffffffffffffffffffffffffffffffffffffffff1602179055505050565b600080834203126112ac576000428303126112a357600090506112b1565b600290506112b1565b600190505b92915050565b6000600360009054906101000a900473ffffffffffffffffffffffffffffffffffffffff1673ffffffffffffffffffffffffffffffffffffffff1663d70b4bb66040518163ffffffff1660e01b815260040160206040518083038186803b15801561132157600080fd5b505afa158015611335573d6000803e3d6000fd5b505050506040513d602081101561134b57600080fd5b8101908080519060200190929190505050905090565b6000806000848152602001908152602001600020600401600083815260200190815260200160002080549050905092915050565b600760009054906101000a900473ffffffffffffffffffffffffffffffffffffffff1673ffffffffffffffffffffffffffffffffffffffff163373ffffffffffffffffffffffffffffffffffffffff1614611458576040517f08c379a000000000000000000000000000000000000000000000000000000000815260040180806020018281038252600a8152602001807f6f776e6572206f6e6c790000000000000000000000000000000000000000000081525060200191505060405180910390fd5b876000808a815260200190815260200160002060000181905550866000808a815260200190815260200160002060010181905550856000808a815260200190815260200160002060020181905550846000808a815260200190815260200160002060030181905550836000808a815260200190815260200160002060090181905550816000808a8152602001908152602001600020600a0160016101000a81548173ffffffffffffffffffffffffffffffffffffffff021916908373ffffffffffffffffffffffffffffffffffffffff160217905550826000808a8152602001908152602001600020600a0160006101000a81548160ff021916908315150217905550600081111561183457806000808a8152602001908152602001600020600d018190555080600460009054906101000a900473ffffffffffffffffffffffffffffffffffffffff1673ffffffffffffffffffffffffffffffffffffffff1663dd62ed3e84306040518363ffffffff1660e01b8152600401808373ffffffffffffffffffffffffffffffffffffffff1681526020018273ffffffffffffffffffffffffffffffffffffffff1681526020019250505060206040518083038186803b15801561162657600080fd5b505afa15801561163a573d6000803e3d6000fd5b505050506040513d602081101561165057600080fd5b810190808051906020019092919050505010156116d5576040517f08c379a00000000000000000000000000000000000000000000000000000000081526004018080602001828103825260098152602001807f416c6c6f77616e6365000000000000000000000000000000000000000000000081525060200191505060405180910390fd5b600460009054906101000a900473ffffffffffffffffffffffffffffffffffffffff1673ffffffffffffffffffffffffffffffffffffffff16631711764e3084846040518463ffffffff1660e01b8152600401808473ffffffffffffffffffffffffffffffffffffffff1681526020018373ffffffffffffffffffffffffffffffffffffffff1681526020018281526020019350505050602060405180830381600087803b15801561178657600080fd5b505af115801561179a573d6000803e3d6000fd5b505050506040513d60208110156117b057600080fd5b8101908080519060200190929190505050611833576040517f08c379a000000000000000000000000000000000000000000000000000000000815260040180806020018281038252600b8152602001807f7377697065206572726f7200000000000000000000000000000000000000000081525060200191505060405180910390fd5b5b5050505050505050565b600360009054906101000a900473ffffffffffffffffffffffffffffffffffffffff1681565b60008060008581526020019081526020016000206004016000848152602001908152602001600020828154811061189757fe5b906000526020600020906002020160000160009054906101000a900473ffffffffffffffffffffffffffffffffffffffff1690509392505050565b6000806000838152602001908152602001600020600d01549050919050565b60008060008581526020019081526020016000206004016000848152602001908152602001600020828154811061192457fe5b90600052602060002090600202016001015490509392505050565b600760009054906101000a900473ffffffffffffffffffffffffffffffffffffffff1673ffffffffffffffffffffffffffffffffffffffff163373ffffffffffffffffffffffffffffffffffffffff1614611a02576040517f08c379a000000000000000000000000000000000000000000000000000000000815260040180806020018281038252600a8152602001807f6f776e6572206f6e6c790000000000000000000000000000000000000000000081525060200191505060405180910390fd5b6000611a2260008087815260200190815260200160002060020154610cd3565b60000b14611a98576040517f08c379a000000000000000000000000000000000000000000000000000000000815260040180806020018281038252600e8152602001807f6e6f742076616c69642074696d6500000000000000000000000000000000000081525060200191505060405180910390fd5b60008085815260200190815260200160002060050160008373ffffffffffffffffffffffffffffffffffffffff1673ffffffffffffffffffffffffffffffffffffffff16815260200190815260200160002060009054906101000a900460ff1615611b6b576040517f08c379a00000000000000000000000000000000000000000000000000000000081526004018080602001828103825260108152602001807f757365722070617274696369706174650000000000000000000000000000000081525060200191505060405180910390fd5b60011515600560009054906101000a900473ffffffffffffffffffffffffffffffffffffffff1673ffffffffffffffffffffffffffffffffffffffff1663362e41b6866040518263ffffffff1660e01b81526004018082815260200191505060206040518083038186803b158015611be257600080fd5b505afa158015611bf6573d6000803e3d6000fd5b505050506040513d6020811015611c0c57600080fd5b810190808051906020019092919050505015151415611c93576040517f08c379a00000000000000000000000000000000000000000000000000000000081526004018080602001828103825260118152602001807f6576656e7420697320726576657274656400000000000000000000000000000081525060200191505060405180910390fd5b60011515600560009054906101000a900473ffffffffffffffffffffffffffffffffffffffff1673ffffffffffffffffffffffffffffffffffffffff1663d343c1dc866040518263ffffffff1660e01b81526004018082815260200191505060206040518083038186803b158015611d0a57600080fd5b505afa158015611d1e573d6000803e3d6000fd5b505050506040513d6020811015611d3457600080fd5b810190808051906020019092919050505015151415611dbb576040517f08c379a000000000000000000000000000000000000000000000000000000000815260040180806020018281038252600f8152602001807f6576656e742069732066696e697368000000000000000000000000000000000081525060200191505060405180910390fd5b60016000808681526020019081526020016000206006015411611fc457600560009054906101000a900473ffffffffffffffffffffffffffffffffffffffff1673ffffffffffffffffffffffffffffffffffffffff16639ec2345a856040518263ffffffff1660e01b815260040180828152602001915050600060405180830381600087803b158015611e4d57600080fd5b505af1158015611e61573d6000803e3d6000fd5b505050506000806000868152602001908152602001600020600601541415611ef8577f847521552ad126e64c52b14640c804737bd67f2b6674309b332d1e5b17f857d1846040518082815260200180602001828103825260138152602001807f646f206e6f74206861766520706c6179657273000000000000000000000000008152506020019250505060405180910390a1611fbf565b600660009054906101000a900473ffffffffffffffffffffffffffffffffffffffff1673ffffffffffffffffffffffffffffffffffffffff1663769c4898856040518263ffffffff1660e01b81526004018082815260200180602001828103825260188152602001807f6f6e6c79206f6e6520706c61796572206f6e206576656e74000000000000000081525060200192505050600060405180830381600087803b158015611fa657600080fd5b505af1158015611fba573d6000803e3d6000fd5b505050505b6121f0565b600080858152602001908152602001600020600a0160009054906101000a900460ff1680156120085750600080600086815260200190815260200160002060090154145b15612066577f7d056f7ad1cec2447e1046080437b34a925f7ddd6099486d01c4e0e01bd51a8c8460008087815260200190815260200160002060060154604051808381526020018281526020019250505060405180910390a16121ef565b61206e613287565b60405180604001604052808473ffffffffffffffffffffffffffffffffffffffff168152602001838152509050600080868152602001908152602001600020600701600085815260200190815260200160002081908060018154018082558091505060019003906000526020600020906002020160009091909190915060008201518160000160006101000a81548173ffffffffffffffffffffffffffffffffffffffff021916908373ffffffffffffffffffffffffffffffffffffffff16021790555060208201518160010155505060016000808781526020019081526020016000206008016000828254019250508190555060008086815260200190815260200160002060090154600080878152602001908152602001600020600801541480156121b05750600080600087815260200190815260200160002060090154115b156121ed577fa41def8a44f88925e3e009abe2bb54653ea68faeeccd9a6a45ff94bb19f040d7856040518082815260200191505060405180910390a15b505b5b50505050565b600760009054906101000a900473ffffffffffffffffffffffffffffffffffffffff1673ffffffffffffffffffffffffffffffffffffffff163373ffffffffffffffffffffffffffffffffffffffff16146122b9576040517f08c379a000000000000000000000000000000000000000000000000000000000815260040180806020018281038252600a8152602001807f6f776e6572206f6e6c790000000000000000000000000000000000000000000081525060200191505060405180910390fd5b60006122ef6000808781526020019081526020016000206001015460008088815260200190815260200160002060020154611285565b60000b14612365576040517f08c379a00000000000000000000000000000000000000000000000000000000081526004018080602001828103825260118152602001807f54696d65206973206e6f742076616c696400000000000000000000000000000081525060200191505060405180910390fd5b60011515600560009054906101000a900473ffffffffffffffffffffffffffffffffffffffff1673ffffffffffffffffffffffffffffffffffffffff1663362e41b6866040518263ffffffff1660e01b81526004018082815260200191505060206040518083038186803b1580156123dc57600080fd5b505afa1580156123f0573d6000803e3d6000fd5b505050506040513d602081101561240657600080fd5b81019080805190602001909291905050501515141561248d576040517f08c379a00000000000000000000000000000000000000000000000000000000081526004018080602001828103825260118152602001807f6576656e7420697320726576657274656400000000000000000000000000000081525060200191505060405180910390fd5b60011515600560009054906101000a900473ffffffffffffffffffffffffffffffffffffffff1673ffffffffffffffffffffffffffffffffffffffff1663d343c1dc866040518263ffffffff1660e01b81526004018082815260200191505060206040518083038186803b15801561250457600080fd5b505afa158015612518573d6000803e3d6000fd5b505050506040513d602081101561252e57600080fd5b8101908080519060200190929190505050151514156125b5576040517f08c379a000000000000000000000000000000000000000000000000000000000815260040180806020018281038252600f8152602001807f6576656e742069732066696e697368000000000000000000000000000000000081525060200191505060405180910390fd5b6001151560008086815260200190815260200160002060050160008373ffffffffffffffffffffffffffffffffffffffff1673ffffffffffffffffffffffffffffffffffffffff16815260200190815260200160002060009054906101000a900460ff1615151415612672576040517f08c379a00000000000000000000000000000000000000000000000000000000081526004018080602001828103825260218152602001806132e86021913960400191505060405180910390fd5b6002548210156126cd576040517f08c379a00000000000000000000000000000000000000000000000000000000081526004018080602001828103825260318152602001806133376031913960400191505060405180910390fd5b6126d56132b7565b60405180604001604052808373ffffffffffffffffffffffffffffffffffffffff168152602001848152509050600080868152602001908152602001600020600401600085815260200190815260200160002081908060018154018082558091505060019003906000526020600020906002020160009091909190915060008201518160000160006101000a81548173ffffffffffffffffffffffffffffffffffffffff021916908373ffffffffffffffffffffffffffffffffffffffff160217905550602082015181600101555050600160008087815260200190815260200160002060050160008473ffffffffffffffffffffffffffffffffffffffff1673ffffffffffffffffffffffffffffffffffffffff16815260200190815260200160002060006101000a81548160ff02191690831515021790555060016000808781526020019081526020016000206006016000828254019250508190555082600080878152602001908152602001600020600c016000828254019250508190555082600360009054906101000a900473ffffffffffffffffffffffffffffffffffffffff1673ffffffffffffffffffffffffffffffffffffffff1663dd62ed3e84306040518363ffffffff1660e01b8152600401808373ffffffffffffffffffffffffffffffffffffffff1681526020018273ffffffffffffffffffffffffffffffffffffffff1681526020019250505060206040518083038186803b1580156128ff57600080fd5b505afa158015612913573d6000803e3d6000fd5b505050506040513d602081101561292957600080fd5b810190808051906020019092919050505010156129ae576040517f08c379a000000000000000000000000000000000000000000000000000000000815260040180806020018281038252600f8152602001807f416c6c6f77616e6365206572726f72000000000000000000000000000000000081525060200191505060405180910390fd5b600360009054906101000a900473ffffffffffffffffffffffffffffffffffffffff1673ffffffffffffffffffffffffffffffffffffffff166323b872dd8330866040518463ffffffff1660e01b8152600401808473ffffffffffffffffffffffffffffffffffffffff1681526020018373ffffffffffffffffffffffffffffffffffffffff1681526020018281526020019350505050602060405180830381600087803b158015612a5f57600080fd5b505af1158015612a73573d6000803e3d6000fd5b505050506040513d6020811015612a8957600080fd5b8101908080519060200190929190505050612b0c576040517f08c379a000000000000000000000000000000000000000000000000000000000815260040180806020018281038252601f8152602001807f5472616e73666572204245542066726f6d20706c6179657273206572726f720081525060200191505060405180910390fd5b5050505050565b6000806000838152602001908152602001600020600301549050919050565b60018054906101000a900460ff1680612b4f5750612b4e613263565b5b80612b675750600160009054906101000a900460ff16155b612bbc576040517f08c379a000000000000000000000000000000000000000000000000000000000815260040180806020018281038252602e815260200180613309602e913960400191505060405180910390fd5b600060018054906101000a900460ff161590508015612c0a5760018060016101000a81548160ff02191690831515021790555060018060006101000a81548160ff0219169083151502179055505b33600760006101000a81548173ffffffffffffffffffffffffffffffffffffffff021916908373ffffffffffffffffffffffffffffffffffffffff1602179055508015612c6c5760006001806101000a81548160ff0219169083151502179055505b50565b6000600860009054906101000a900473ffffffffffffffffffffffffffffffffffffffff1673ffffffffffffffffffffffffffffffffffffffff163373ffffffffffffffffffffffffffffffffffffffff161480612d1a5750600960009054906101000a900473ffffffffffffffffffffffffffffffffffffffff1673ffffffffffffffffffffffffffffffffffffffff163373ffffffffffffffffffffffffffffffffffffffff16145b612d8c576040517f08c379a000000000000000000000000000000000000000000000000000000000815260040180806020018281038252600a8152602001807f6f776e6572206f6e6c790000000000000000000000000000000000000000000081525060200191505060405180910390fd5b600360009054906101000a900473ffffffffffffffffffffffffffffffffffffffff1673ffffffffffffffffffffffffffffffffffffffff1663a9059cbb84846040518363ffffffff1660e01b8152600401808373ffffffffffffffffffffffffffffffffffffffff16815260200182815260200192505050602060405180830381600087803b158015612e1f57600080fd5b505af1158015612e33573d6000803e3d6000fd5b505050506040513d6020811015612e4957600080fd5b8101908080519060200190929190505050612ecc576040517f08c379a00000000000000000000000000000000000000000000000000000000081526004018080602001828103825260088152602001807f6d696e742065727200000000000000000000000000000000000000000000000081525060200191505060405180910390fd5b6001905092915050565b600760009054906101000a900473ffffffffffffffffffffffffffffffffffffffff1673ffffffffffffffffffffffffffffffffffffffff163373ffffffffffffffffffffffffffffffffffffffff1614612f99576040517f08c379a000000000000000000000000000000000000000000000000000000000815260040180806020018281038252600a8152602001807f6f776e6572206f6e6c790000000000000000000000000000000000000000000081525060200191505060405180910390fd5b85600560006101000a81548173ffffffffffffffffffffffffffffffffffffffff021916908373ffffffffffffffffffffffffffffffffffffffff16021790555085600660006101000a81548173ffffffffffffffffffffffffffffffffffffffff021916908373ffffffffffffffffffffffffffffffffffffffff16021790555085600860006101000a81548173ffffffffffffffffffffffffffffffffffffffff021916908373ffffffffffffffffffffffffffffffffffffffff16021790555084600960006101000a81548173ffffffffffffffffffffffffffffffffffffffff021916908373ffffffffffffffffffffffffffffffffffffffff16021790555083600360006101000a81548173ffffffffffffffffffffffffffffffffffffffff021916908373ffffffffffffffffffffffffffffffffffffffff16021790555082600460006101000a81548173ffffffffffffffffffffffffffffffffffffffff021916908373ffffffffffffffffffffffffffffffffffffffff1602179055508160028190555080600a81905550505050505050565b6000806000838152602001908152602001600020600a0160019054906101000a900473ffffffffffffffffffffffffffffffffffffffff169050919050565b6000806000858152602001908152602001600020600701600084815260200190815260200160002082815481106131a757fe5b906000526020600020906002020160000160009054906101000a900473ffffffffffffffffffffffffffffffffffffffff1690509392505050565b6000806000838152602001908152602001600020600601549050919050565b6000806000838152602001908152602001600020600a0160009054906101000a900460ff16801561324b5750600a5460008084815260200190815260200160002060010154420312155b15613259576001905061325e565b600090505b919050565b600061326e30613274565b15905090565b600080823b905060008111915050919050565b6040518060400160405280600073ffffffffffffffffffffffffffffffffffffffff168152602001600081525090565b6040518060400160405280600073ffffffffffffffffffffffffffffffffffffffff16815260200160008152509056fe7573657220616c726561647920706172746963697061746520696e206576656e74496e697469616c697a61626c653a20636f6e747261637420697320616c726561647920696e697469616c697a656462657420616d6f756e74206d75737420626520626967676572206f7220657175616c20746f20302e303120746f6b656e73a2646970667358221220c1c541bc55337727573889879f988af8c846658414a56f364189978706b146bc64736f6c63430007060033",
  "immutableReferences": {},
  "source": "// SPDX-License-Identifier: MIT\npragma solidity >=0.4.22 <0.9.0;\n\nimport {TimeValidation} from \"../../helpers/TimeValidation.sol\";\nimport {BET} from \"../../tokens/BET.sol\";\nimport {BTY} from \"../../tokens/BTY.sol\";\nimport {PubStruct} from \"../../struct/PubStruct.sol\";\nimport {MPStruct} from \"../../struct/MPStruct.sol\";\nimport {MiddlePayment} from \"./MiddlePayment.sol\";\n\nimport \"@openzeppelin/contracts-upgradeable/proxy/Initializable.sol\";\n\ncontract PublicEvents is\n    TimeValidation,\n    PubStruct,\n    Initializable\n{\n    event calculateExpert(int id, uint activePlayers);\n    event findCorrectAnswer(int id);\n    event revertedEvent(int id, string purpose);\n\n    uint minBet;\n    BET public betToken;\n    BTY public btyToken;\n    MPStruct mpData;\n    MiddlePayment mpContract;\n    address owner;\n    address MPContract;\n    address PPContract;\n    int minTime; // minimum event extension time\n    \n    function __PublicEventsInit() public initializer {\n        owner = msg.sender;\n    }\n\n    function setConfig(address _mpaddr, address _ppaddr, BET _betAddress, BTY _btyAddress, uint _minBet, int _minTime) public {\n        require( msg.sender == owner, \"owner only\");\n        mpData = MPStruct(_mpaddr);\n        mpContract = MiddlePayment(_mpaddr);\n        MPContract = _mpaddr;\n        PPContract = _ppaddr;\n        betToken = _betAddress;\n        btyToken = _btyAddress;\n        minBet = _minBet;\n        minTime = _minTime;\n    }\n\n    function newEvent(\n        int _id,\n        uint _sT,\n        uint _eT,\n        uint _questAmount,\n        uint _amountExp,\n        bool _calcExp,\n        address payable _host,\n        uint _amountPrem\n    ) public payable {\n        require( msg.sender == owner, \"owner only\");\n        events[_id].id = _id;\n        events[_id].startTime = _sT;\n        events[_id].endTime = _eT;\n        events[_id].questAmount = _questAmount;\n        events[_id].amountExperts = _amountExp;\n        events[_id].host = _host;\n        events[_id].calculateExperts = _calcExp;\n        if (_amountPrem > 0) {\n            events[_id].premiumAmount = _amountPrem;\n            require( btyToken.allowance(_host, address(this)) >= _amountPrem, \"Allowance\" );\n            require( btyToken.swipeEvents(address(this), _host, _amountPrem), \"swipe error\" );\n        }\n    }\n\n    function addAdvisor(address payable _advisor, int _id) public{\n        require( msg.sender == owner, \"owner only\");\n        events[_id].advisor = _advisor;\n    }\n\n    function setAnswer(\n        int _id,\n        uint _answer,\n        uint _amount,\n        address payable _pWallet\n    ) public payable {\n        require( msg.sender == owner, \"owner only\");\n         require(\n             timeAnswer(events[_id].startTime, events[_id].endTime) == 0,\n             \"Time is not valid\"\n         );\n         require(mpData.checkReverted(_id) != true, \"event is reverted\");\n         require(mpData.checkEventFinish(_id) != true, \"event is finish\");\n         require(\n             events[_id].allPlayers[_pWallet] != true,\n             \"user already participate in event\"\n         );\n         require(_amount >= minBet, \"bet amount must be bigger or equal to 0.01 tokens\" );\n\n        PubStruct.Player memory player;\n        player = PubStruct.Player(_pWallet, _amount);\n        events[_id].players[_answer].push(player);\n        events[_id].allPlayers[_pWallet] = true;\n        events[_id].activePlayers += 1;\n        events[_id].pool += _amount;\n\n         require(\n             betToken.allowance(_pWallet, address(this)) >= _amount,\n             \"Allowance error\"\n         );\n         require(\n             betToken.transferFrom(_pWallet, address(this), _amount),\n             \"Transfer BET from players error\"\n         );\n    }\n\n    function setValidator(\n        int _id,\n        uint _answer,\n        address payable _eWallet,\n        int _reput\n    ) public payable {\n        require( msg.sender == owner, \"owner only\");\n        require(timeValidate(events[_id].endTime) == 0, \"not valid time\"); \n        require(\n            !events[_id].allPlayers[_eWallet],\n            \"user participate\"\n        );\n        require(mpData.checkReverted(_id) != true, \"event is reverted\");\n        require(mpData.checkEventFinish(_id) != true, \"event is finish\");\n\n        if (events[_id].activePlayers <= 1) {\n            mpData.setReverted(_id);\n            if(events[_id].activePlayers == 0){\n                emit revertedEvent(_id, \"do not have players\");\n            }else{\n                mpContract.revertedPayment(_id, \"only one player on event\");\n            }\n        } else {\n            if (\n                events[_id].calculateExperts && events[_id].amountExperts == 0\n            ) {\n                emit calculateExpert(_id, events[_id].activePlayers);\n            } else {\n                PubStruct.Expert memory expert;\n                expert = PubStruct.Expert(_eWallet, _reput);\n                events[_id].expert[_answer].push(expert);\n                events[_id].activeExperts += 1;\n\n                if (events[_id].activeExperts == events[_id].amountExperts && events[_id].amountExperts > 0) {\n                    emit findCorrectAnswer(_id);\n                }\n            }\n        }\n    }\n\n    function setActiveExpertsFromOracl(uint _amount, int _id) public {\n        require( msg.sender == owner, \"owner only\");\n        events[_id].amountExperts = _amount;\n    }\n\n    function mint(address _addr, uint _amount) public returns(bool) {\n        require( msg.sender == MPContract || msg.sender == PPContract, \"owner only\");\n        require(betToken.mintFromPublicContract(_addr, _amount),\"pay err\");\n        return true;\n    }\n\n    function pay(address _addr, uint _amount) public returns(bool) {\n        require( msg.sender == MPContract || msg.sender == PPContract, \"owner only\");\n        require(betToken.transfer(_addr, _amount),\"mint err\");\n        return true;\n    }\n\n    function canMint(int _id) public view returns(bool) {\n        if(events[_id].calculateExperts && int256( block.timestamp - events[_id].startTime) >= minTime){\n            return true;\n        }else{\n            return false;\n        }\n    }\n\n    function getGF() public view returns(uint) {\n        return betToken.getGFindex();\n    }\n\n}\n",
  "sourcePath": "/Users/macbook/Documents/freelance/tokenominc/contracts/matic/events/PublicEvents/PublicEvents.sol",
  "compiler": {
    "name": "solc",
    "version": "0.7.6+commit.7338295f.Linux.g++"
  },
  "schemaVersion": "3.3.4",
  "updatedAt": "2021-04-07T13:40:43.492Z",
  "networkType": "ethereum",
  "devdoc": {
    "kind": "dev",
    "methods": {},
    "version": 1
  },
  "userdoc": {
    "kind": "user",
    "methods": {},
    "version": 1
  }
}